:1000000008C1000037C1000035C1000033C1000045
:1000100031C100002FC100002DC100002BC1000024
:1000200029C1000027C1000025C1000023C1000034
:1000300021C100001FC100001DC100001BC1000044
:1000400019C1000017C1000015C1000013C1000054
:1000500011C100000FC100000DC10000E1C400008B
:1000600009C100000C94980C0C946F0C03C10000A3
:1000700001C10000FFC00000FDC00000FBC0000087
:10008000F9C00000F7C00000F5C00000F3C0000098
:100090000C94460C0C941D0CEDC00000EBC000004D
:1000A000E9C00000E7C00000E5C00000E3C00000B8
:1000B000E1C00000DFC00000DDC00000DBC00000C8
:1000C000D9C00000D7C00000D5C000000C94F40BCC
:1000D0000C94CB0BCFC00000CDC00000CBC0000003
:1000E000C9C00000D607D907C807CC07D007100839
:1000F000DD07E107E707EB07EF07F507F907FD075E
:100100001008030807080B0800000A0B02090C0D71
:100110000E080703040100000000000000000000BA
:1001200000000000000000000000000000000000CF
:10013000000000001211100000000000000000008C
:1001400000000000000000000000000000000102AC
:1001500010202008081020401020408002010201D9
:100160000804020101020408102040808040201091
:1001700008040201800402018040201008040201EA
:100180000804020101020408102040800102040852
:100190001020408000002200250028002B002E00A7
:1001A0003100340002010000050108010B010505C2
:1001B0000505070508080808020202020A0A0808DD
:1001C000040404040101010101010101030303030B
:1001D00003030303040707070C0C0C0C0C0C0C0C9A
:1001E0000202020206060606060606060B0B0B0BAB
:1001F0000B0B0B0B00002100240027002A002D0010
:100200003000330001010000040107010A01220D42
:10021000DF1111241FBECFEFD1E2DEBFCDBF00E062
:100220000CBF13E0A0E0B2E0EEECF9E200E00BBF9F
:1002300002C007900D92A636B107D9F726E0A6E6D0
:10024000B3E001C01D92AC33B207E1F711E0C8E0A2
:10025000D1E000E006C021970109802FFE010E9435
:10026000F311C730D10780E00807A9F70E943B10BF
:100270000C94D614C5CECB0108957F928F929F9295
:10028000AF92BF92CF92DF92EF92FF920F931F93A4
:10029000CF93DF93EC0149015A018B01C12CD12C82
:1002A0007601C814D904EA04FB0484F5F8017190BE
:1002B0008F018F8580FF0BC0E881F9810084F18573
:1002C000E02D20E144E060E070E0CE011995EB857F
:1002D000FC858D859E85E817F90738F470828B853B
:1002E0009C8501969C878B870BC0E881F981672DDF
:1002F00070E0028CF38DE02DCE011995019649F046
:100300002FEFC21AD20AE20AF20ACBCFB401C5011A
:1003100002C0B601C701DF91CF911F910F91FF90ED
:10032000EF90DF90CF90BF90AF909F908F907F9095
:100330000895CF93DF93EC01E881F9810288F38976
:10034000E02D19958F3F2FEF920731F02D813E81DF
:100350002F5F3F4F3E832D83DF91CF9108958FEF25
:100360009FEF089560E070E0CB01089580E090E099
:100370000895CB010895CF93DF93EC018889998983
:10038000DC01ED91FC910480F581E02D1995892B1C
:10039000A9F388899989DC01ED91FC910680F781A8
:1003A000E02DDF91CF911994CF93DF93EC018889F1
:1003B0009989DC01ED91FC910480F581E02D19957E
:1003C000892BA9F388899989DC01ED91FC9100843E
:1003D000F185E02DDF91CF911994AF92BF92CF922A
:1003E000DF92EF92FF920F931F93CF93DF9300D092
:1003F0001F92CDB7DEB78C015B01C12CD12C7601E9
:10040000F80180899189DC01ED91FC910680F781EA
:10041000E02D29833A834B835C83199529813A81A6
:100420004B815C818F3F71F0C216D306E406F5065E
:100430004CF4D5018D935D01BFEFCB1ADB0AEB0ABB
:10044000FB0ADECFC701B6010F900F900F900F90FF
:10045000DF91CF911F910F91FF90EF90DF90CF90A0
:10046000BF90AF900895DC0150968D919C9151976B
:10047000DC01ED91FC910480F581E02D199480E080
:1004800090E0089580E090E0089580E090E0089585
:1004900080E090E008950895CF93DF93C0913B05ED
:1004A000D0913C05E881F9810480F581E02DCE01F1
:1004B0001995892BB9F3E881F9810680F781E02D40
:1004C000CE01DF91CF9119941F93CF93DF93182F13
:1004D000C0913B05D0913C058A3041F4E881F98117
:1004E0000190F081E02D6DE0CE011995E881F98150
:1004F0000190F081E02D612FCE01199521E030E0CF
:10050000019711F420E030E0C901DF91CF911F91F4
:1005100008950F931F93FC0102851385248535856B
:10052000401B510B620B730B77FD02C0808901C029
:1005300080E01F910F910895FC01428353836483EF
:10054000758386819781A085B185480F591F6A1FE1
:100550007B1F428753876487758708950C942714FF
:10056000089508950C942714DC01ED91FC913697C1
:1005700020813181820F931FF5CFFB0120813181D2
:10058000FC0131832083FB0142815381F9013697BD
:1005900020813181FC01E20FF31F518340830895D4
:1005A00028E532E0FC013183208322E632E0318FFE
:1005B000208F68E672E0E1CFDC01ED91FC91369787
:1005C00020813181820F931FEBCFCF93DF93EC011A
:1005D000E7DFCE01DF91CF910C942714DC01ED9180
:1005E000FC91369720813181820F931FEECF0C94BE
:1005F0002714089508950C942714DC01ED91FC91C3
:10060000369720813181820F931FF5CFFB01208126
:100610003181FC0131832083FB0142815381F90147
:10062000369720813181FC01E20FF31F5183408313
:10063000089520ED32E0FC01318320832AED32E081
:10064000358B248B60EE72E0E1CFDC01ED91FC9103
:10065000369720813181820F931FEBCFCF93DF93A9
:10066000EC01E7DFCE01DF91CF910C942714DC0180
:10067000ED91FC91369720813181820F931FEECF4F
:100680000C9427140F931F93CF93DF938C01EB01EE
:100690006F3F8FEF780719F480E090E00FC06A3069
:1006A00031F46DE0F801808991890E94C40B6C2FB0
:1006B000F801808991890E94C40BCE01DF91CF910E
:1006C0001F910F9108958F929F92BF92CF92DF92C8
:1006D000EF92FF920F931F93CF93DF9300D01F925F
:1006E000CDB7DEB78C014B01C12CD12C7601C216DF
:1006F000D306E406F50644F5F401B1904F01FAE0A3
:10070000BF120EC06DE0F8018089918929833A8378
:100710004B835C830E94C40B5C814B813A812981AD
:100720006B2DF8018089918929833A834B835C83FF
:100730000E94C40BFFEFCF1ADF0AEF0AFF0A5C81A9
:100740004B813A812981D3CFCA01B9010F900F9013
:100750000F900F90DF91CF911F910F91FF90EF902D
:10076000DF90CF90BF909F908F900895AF92BF92EF
:10077000CF92DF92EF92FF920F931F93CF93DF936D
:10078000FC01248135816217730700F56B01EC01D0
:1007900086E0869F5001879FB00C11248B01E12CCD
:1007A000F12C8C819D810817190770F4C7018A0DFF
:1007B0009B1D28813981820F931F6BD70F5F1F4FBD
:1007C000F6E0EF0EF11CEDCFDD82CC82DF91CF9110
:1007D0001F910F91FF90EF90DF90CF90BF90AF905F
:1007E00008954F925F926F927F928F929F92AF92F5
:1007F000BF92EF92FF920F931F93CF93DF9300E08E
:1008000010E0E12CF12CC0E0D0E080911705909130
:100810001805C817D90708F061C020912A058091F2
:100820002B0590E0A0E0B0E0BA2FA92F982F8827E1
:10083000A22B20912C05822B2D0166247724892E52
:100840009A2EAB2EBB24482D382F20911C05222335
:1008500091F0622F70E0649DA001659D500D749D24
:10086000500D1124452E829E40011124492D829F56
:10087000C0011124392F2091220550911F0580912C
:100880001D0590911E05251303C08E0D9F1D06C0EA
:10089000800F911FFC01E20FF11D108220911F05B6
:1008A000FC01E20FF11D408220912005FC01E20FC6
:1008B000F11D408320912105FC01E20FF11D3083E1
:1008C00080911D0590911E05892B09F0B9D32196C1
:1008D00083E0E80EF11C0C5F1F4F97CFDF91CF91A3
:1008E0001F910F91FF90EF90BF90AF909F908F90CE
:1008F0007F906F905F904F9008952FB7F89460911C
:100900006703709168038091690390916A032FBF18
:1009100008950F931F93CF93DF93EC01EE85FF852E
:10092000309709F01995E9DF6E837F83888799876F
:100930000A811B812C813D81DC01CB01800F911F3D
:10094000A21FB31F8A879B87AC87BD87DF91CF919A
:100950001F910F9108958F929F92AF92BF92CF9265
:10096000DF92EF92FF920F931F93CF93DF93EC01EF
:10097000EE85FF85309709F01995BFDF4B015C01CB
:100980008E016E012EE1C20ED11CE12CF12C89A941
:100990009AA98E159F0524F1D80153968D919C91AB
:1009A00054970097C1F0BFEFEB1AFB0ADC01ED9101
:1009B000FC910280F381E02DB501A40119958823F3
:1009C00051F0F80183899489DC01ED91FC91048058
:1009D000F581E02D19950E5F1F4F0C151D05B9F619
:1009E0008CDF6E837F83888799870A811B812C81A6
:1009F0003D81DC01CB01800F911FA21FB31F8A87AD
:100A00009B87AC87BD87DF91CF911F910F91FF909E
:100A1000EF90DF90CF90BF90AF909F908F90089510
:100A20001F920F920FB60F9211242F933F938F9323
:100A30009F93AF93BF938091670390916803A091B8
:100A40006903B0916A033091660323E0230F2D37C9
:100A500020F40196A11DB11D05C026E8230F0296C2
:100A6000A11DB11D209366038093670390936803D3
:100A7000A0936903B0936A038091A5049091A604A2
:100A8000A091A704B091A8040196A11DB11D809367
:100A9000A5049093A604A093A704B093A804BF91C3
:100AA000AF919F918F913F912F910F900FBE0F901B
:100AB0001F901895CF93DF93EC0188859985009757
:100AC00011F00E9427148E8187FD04C060E0DF9141
:100AD000CF9157C7DF91CF91089508950895089554
:100AE0006F927F928F929F92AF92BF92CF92DF923E
:100AF000EF92FF920F931F93CF93DF93FC0124811A
:100B0000358189010F5F1F4F2017310708F06BC037
:100B10007B01EC018281938180179107A0F5275F0B
:100B20003F4F8217930778F5A080B18033832283EB
:100B300086E0F82FF29FC001F39F900D11240E94D0
:100B4000921399838883C12CD12C812C912C8C8178
:100B50009D8188169906A0F435016C0C7D1C888156
:100B600099818C0D9D1D009711F0B301CDD5C30166
:100B700090D54FEF841A940A86E0C80ED11CE7CFB7
:100B8000C5010E942714CC80DD8086E08C9D500139
:100B90008D9DB00C1124812C912CC016D10690F49F
:100BA00028813981C4018A0D9B1D820F931F0097F4
:100BB00011F0B701A9D5EFEFCE1ADE0AF6E08F0EDD
:100BC000911CEBCF1D830C83DF91CF911F910F916F
:100BD000FF90EF90DF90CF90BF90AF909F908F905D
:100BE0007F906F900895B801DF91CF911F910F9181
:100BF000FF90EF90DF90CF90BF90AF909F908F903D
:100C00007F906F90B3CDEF92FF920F931F93CF938E
:100C1000DF93CDB7DEB768970FB6F894DEBF0FBE8F
:100C2000CDBF8AEF92E0C3D288E094E07DD3892BD8
:100C300009F454C080E193E0BAD268E074E0CE01D8
:100C400001967BD54AE061E070E0CE010D9626D595
:100C5000BE016F5F7F4FCE01079656D5CE01079636
:100C600058D1BE01635F7F4FD1D4BC01CE01439602
:100C70004BD5CE01439636D1CE0143960AD5CE014F
:100C8000079607D5CE010D9604D54AE061E070E0E5
:100C9000CE010D9603D5BE016F5F7F4FCE01079643
:100CA00033D5CE01079635D1BE01635F7F4FAED4F9
:100CB000BC01CE01439628D5BE016D5E7F4F8DE20B
:100CC00095E00EDFCE014396E4D4CE010796E1D441
:100CD000CE010D96DED4CE010196DBD48BE693E0F7
:100CE00023D3892B09F454C087E393E060D26BE6E9
:100CF00073E0CE01019621D54AE062E070E0CE01BA
:100D00000D96CCD4BE016F5F7F4FCE010796FCD409
:100D1000CE010796FED0BE01635F7F4F77D4BC0142
:100D2000CE014396F1D4CE014396DCD0CE0143965A
:100D3000B0D4CE010796ADD4CE010D96AAD44AE028
:100D400062E070E0CE010D96A9D4BE016F5F7F4FC7
:100D5000CE010796D9D4CE010796DBD0BE01635FE2
:100D60007F4F54D4BC01CE014396CED4BE016D5EFC
:100D70007F4F8DE295E0B4DECE0143968AD4CE015A
:100D8000079687D4CE010D9684D4CE01019681D4E6
:100D9000E12CF12C00E010E08091380590913905AC
:100DA0000817190708F043C06091340570913505A4
:100DB0006E0D7F1DCE014396A7D44AE060E070E03F
:100DC000CE0107966BD4BE016D5E7F4FCE010D96AE
:100DD0009BD4CE010D969DD0BE01695F7F4F16D486
:100DE000BC01CE01019690D4CE0101967BD0CE01FC
:100DF00001964FD4CE010D964CD4CE01079649D41E
:100E00004F89588D6B897C8988E094E027D24F897F
:100E1000588D6B897C898BE693E020D2CE01439676
:100E200038D40F5F1F4F86E0E80EF11CB5CF60E0AD
:100E300070E084E395E09ADC68960FB6F894DEBF24
:100E40000FBECDBFDF91CF911F910F91FF90EF901B
:100E50000895EF92FF920F931F93CF93DF937C013E
:100E600000E010E0C0E0D0E0F7012481358180810E
:100E70009181C217D30738F4800F911F0AD42196AD
:100E80000A5F1F4FF1CFDF91CF911F910F91FF901C
:100E9000EF900C942714FC01A089B18982E08C9317
:100EA000A485B5851C92A685B7858FEC8C93108E92
:100EB000A489B58986E08C93A289B3898C918061DD
:100EC0008C93A289B3898C9188608C93A289B38911
:100ED0008C9180688C930288F389E02D80818F7DCE
:100EE00080830895CF93DF93FC0144815581608115
:100EF00071818BE695E0B2D1EC0142E050E06EE505
:100F000073E08BE695E0AAD18C0F9D1FDF91CF9106
:100F100008950F931F93CF93DF931F921F92CDB726
:100F2000DEB78C018BE389831A8241E050E0BE0179
:100F30006F5F7F4FC8012BD3811102C0C80154D30A
:100F4000C8010F900F90DF91CF911F910F910895DD
:100F500090E0FC01E85FFE4F4491FC01E25BFE4F34
:100F60002491FC01E255FE4F9491992309F467C046
:100F7000442309F455C050E0FA013197E231F105FC
:100F800008F04EC08827EE58FF4F8F4F0C94F31196
:100F9000809180008F7707C0809180008F7D03C093
:100FA00080918000877F809380003AC084B58F77DE
:100FB00002C084B58F7D84BD33C08091B0008F772F
:100FC00003C08091B0008F7D8093B00029C08091D4
:100FD00090008F7707C0809190008F7D03C0809133
:100FE0009000877F809390001BC08091A0008F7736
:100FF00007C08091A0008F7D03C08091A000877FF3
:101000008093A0000DC0809120018F7707C0809150
:1010100020018F7D03C080912001877F8093200174
:10102000E92FF0E0EE0FFF1FEC56FE4FA591B491B3
:101030008FB7F894EC9120952E232C938FBF0895B1
:101040000F931F93CF93DF93CDB7DEB729970FB6DA
:10105000F894DEBF0FBECDBFD0D400912305109110
:1010600024052091250530912605DC01CB01801B4C
:10107000910BA20BB30B8C329140A105B10560F32B
:10108000F8948091190590911A059A838983E091CB
:101090001D05F0911E05DF011196808189879091D1
:1010A0001505E0912705F0912805809129059923E0
:1010B00009F42EC09081982B988790818095892380
:1010C0008F838F818C8388E08B8358856F814985DE
:1010D0003B812C8189819A81508347FD252F3A9548
:1010E0002083262F39F0441F00C0000060830000D9
:1010F00000C0F2CF38E04D9160830000019761F7A6
:10110000F0932805E093270549873B832C8338C05B
:101110009081982B98879081809589238F838F81E8
:101120008E8388E08D8358856F8149853D812E812E
:1011300089819A81508347FD252F00C000C02083FC
:1011400000C000C000C000C000C060830000262FA7
:101150003A9541F0441F000000C000C000C000C02C
:1011600000C0E8CF38E04D9100C0608300C0019717
:1011700009F7F0932805E093270549873D832E83DF
:101180009A838983789439D46093230570932405D6
:10119000809325059093260529960FB6F894DEBF17
:1011A0000FBECDBFDF91CF911F910F910895CF93C7
:1011B000DF93009771F0FC0101900020E9F731976F
:1011C000AF01481B590BBC018BE695E047D0EC0101
:1011D00002C0C0E0D0E042E050E06EE573E08BE694
:1011E00095E03CD08C0F9D1FDF91CF910895CF9358
:1011F000DF93ACEBB4E0FD01C191D191209741F0B8
:1012000049895A89EC0129893A894217530711F112
:10121000D4E0EA3DFD0781F720E030E04D915D919B
:10122000452B89F4220F331FF901E755FB4F948BAF
:10123000838B8091DA049091DB0401969093DB0418
:101240008093DA0407C02F5F3F4F2F30310531F70D
:1012500080E001C081E0DF91CF910895CF92DF92CD
:10126000EF92FF920F931F93CF93DF936C017A015C
:101270008B01C0E0D0E0CE15DF0589F0D8016D917B
:101280008D01D601ED91FC910190F081E02DC60118
:101290001995892B11F47E0102C02196ECCFC7016C
:1012A000DF91CF911F910F91FF90EF90DF90CF9042
:1012B0000895FC01A089B1898C91A689B78982FD26
:1012C0000FC09C91818D8F5F8F73228D821749F0A3
:1012D000218DDF01A20FB11D5D969C93818F089532
:1012E0008C910895FC01918D828D981761F0828D0B
:1012F000DF01A80FB11D5D968C91928D9F5F9F734A
:10130000928F90E008958FEF9FEF0895FC01918DEB
:10131000828D981731F0828DE80FF11D858D90E058
:1013200008958FEF9FEF0895FC01918D228D892FF5
:1013300090E0805C9F4F821B91098F7399270895DD
:101340008BE693E0F1DF21E0892B09F420E0822F86
:10135000089588E094E0E8DF21E0892B09F420E09B
:10136000822F08958BE695E0DFDF21E0892B09F4D9
:1013700020E0822F0895FC01848DDF01A80FB11DAC
:10138000A35ABF4F2C91848D90E001968F739927BB
:10139000848FA689B7892C93A089B1898C918064A8
:1013A0008C93938D848D981306C00288F389E02D69
:1013B00080818F7D80830895EF92FF920F931F931A
:1013C000CF93DF93EC0181E0888F9B8D8C8D9813F8
:1013D00005C0E889F989808185FD23C0F62E0B8D33
:1013E00010E00F5F1F4F0F731127E02E8C8DE81256
:1013F0000BC00FB607FCFACFE889F989808185FF19
:10140000F5CFCE01B8DFF2CF8B8DFE01E80FF11DD5
:10141000E35AFF4FF0820B8FEA89FB89808180625B
:1014200007C0EE89FF896083E889F989808180643B
:10143000808381E090E0DF91CF911F910F91FF9029
:10144000EF900895CF93DF93EC01888D8823C1F04E
:10145000EA89FB89808185FD05C0A889B9898C91BD
:1014600086FD0EC00FB607FCF5CF808185FFF2CF59
:10147000A889B9898C9185FFEDCFCE017CDFE8CFBB
:10148000DF91CF91089580E090E0892B19F06ADF19
:1014900081111BC080E090E0892B19F05ADF811187
:1014A00017C080E090E0892B19F04ADF811113C04A
:1014B00080E090E0892BA1F080E090E0892B81F022
:1014C0000E94000081110AC008950E940000E2CF2E
:1014D0000E940000E6CF0E940000EACF0C940000BA
:1014E00008950E94DF120F931F93CF93DF93EC01B7
:1014F00088819981009729F02A813B812617370737
:1015000080F48B016F5F7F4F76D7009761F09983EE
:1015100088831B830A832C813D81232B11F4FC01DA
:10152000108281E001C080E0DF91CF911F910F9187
:1015300008950F931F93CF93DF93EC01DED9688753
:1015400079878A879B87E881F9810680F781E02D7A
:10155000CE01199597FF16C0D0D9088519852A851F
:101560003B85DC01CB01801B910BA20BB30B0C81E3
:101570001D812E813F8180179107A207B30718F3C1
:101580008FEF9FEFDF91CF911F910F910895EF9211
:10159000FF920F931F93CF93DF93FC01248135813A
:1015A0006115710511F480E018C041155105A1F0D5
:1015B0007B01EC018A01020F131FB80194DF88231D
:1015C00091F3288139818C819D81B701820F931F0E
:1015D0000E94EC121D830C8381E0DF91CF911F915B
:1015E0000F91FF90EF900895CF93DF93EC018881E6
:1015F0009981009711F00E942714198218821D8288
:101600001C821B821A82DF91CF910895CF93DF93C2
:10161000EC01FB014481558160817181B8DF81114A
:1016200002C0CE01E1DFCE01DF91CF910895EF92AC
:10163000FF920F931F93CF93DF93EC017B018A01FD
:10164000BA0151DF811103C0CE01CEDF06C01D8378
:101650000C83B70188819981BFD7CE01DF91CF91EB
:101660001F910F91FF90EF900895FC01118210825D
:1016700013821282158214826115710549F0FB01F3
:1016800001900020E9F73197AF01461B570BCFCFF0
:101690000895FC01808191810C942714EF92FF92B0
:1016A0000F931F93CF93DF93CDB7DEB762970FB63B
:1016B000F894DEBF0FBECDBF8C01CB01F8011182C3
:1016C0001082138212821582148250E09E012F5FD5
:1016D0003F4F7901B90195D7F70101900020E9F753
:1016E0003197AF014E195F09B701C801A0DF6296BB
:1016F0000FB6F894DEBF0FBECDBFDF91CF911F9123
:101700000F91FF90EF900895FB01DC0111961C9260
:101710001E9213961C921E92129715961C921E9260
:1017200014978617970741F06081718161157105E3
:1017300019F0448155817BCF0895EF92FF920F936A
:101740001F93CF93DF931F921F92CDB7DEB78C010B
:101750007B0160E673E089DFC701EBDE97FD0AC01D
:1017600089831A8241E050E0BE016F5F7F4FC8015C
:101770000EDFF2CFC8010F900F90DF91CF911F9134
:101780000F91FF90EF900895DC01ED91FC91019095
:10179000F081E02D19941F920F920FB60F92112431
:1017A0000BB60F922F933F934F935F936F937F935B
:1017B0008F939F93AF93BF93EF93FF938BE693E049
:1017C000DADDFF91EF91BF91AF919F918F917F9162
:1017D0006F915F914F913F912F910F900BBE0F90A2
:1017E0000FBE0F901F9018951F920F920FB60F9279
:1017F00011240BB60F922F933F934F935F936F93E8
:101800007F938F939F93AF93BF93EF93FF938BE659
:1018100093E04FDDFF91EF91BF91AF919F918F9139
:101820007F916F915F914F913F912F910F900BBEE0
:101830000F900FBE0F901F9018951F920F920FB62A
:101840000F9211240BB60F922F933F934F935F93F8
:101850006F937F938F939F93AF93BF93EF93FF9378
:1018600088E094E088DDFF91EF91BF91AF919F9167
:101870008F917F916F915F914F913F912F910F9039
:101880000BBE0F900FBE0F901F9018951F920F92D6
:101890000FB60F9211240BB60F922F933F934F93D5
:1018A0005F936F937F938F939F93AF93BF93EF93C8
:1018B000FF9388E094E0FDDCFF91EF91BF91AF9141
:1018C0009F918F917F916F915F914F913F912F9158
:1018D0000F900BBE0F900FBE0F901F9018951F9288
:1018E0000F920FB60F9211240BB60F922F933F93C6
:1018F0004F935F936F937F938F939F93AF93BF9318
:10190000EF93FF938BE695E036DDFF91EF91BF916A
:10191000AF919F918F917F916F915F914F913F9187
:101920002F910F900BBE0F900FBE0F901F90189528
:101930001F920F920FB60F9211240BB60F922F9396
:101940003F934F935F936F937F938F939F93AF9347
:10195000BF93EF93FF938BE695E0ABDCFF91EF91A4
:10196000BF91AF919F918F917F916F915F914F91B7
:101970003F912F910F900BBE0F900FBE0F901F90B5
:101980001895CF93DF9390E0FC01E25BFE4F24912A
:10199000FC01E255FE4F8491882361F190E0880FAD
:1019A000991FFC01EC50FE4FC591D491FC01EC56FF
:1019B000FE4FA591B491611109C09FB7F894888139
:1019C000209582238883EC912E230BC0623061F432
:1019D0009FB7F8943881822F809583238883EC9178
:1019E0002E2B2C939FBF06C08FB7F894E8812E2B27
:1019F00028838FBFDF91CF9108953FB7F8948091EE
:101A0000A5049091A604A091A704B091A80426B5BE
:101A1000A89B05C02F3F19F00196A11DB11D3FBF26
:101A2000BA2FA92F982F8827820F911DA11DB11DB4
:101A3000BC01CD0142E0660F771F881F991F4A95B0
:101A4000D1F70895CF92DF92EF92FF920F931F93F9
:101A5000CF93DF93CDB7DEB765970FB6F894DEBFAF
:101A60000FBECDBF10926E0310926D0348EE53E08F
:101A700060E070E040936F035093700360937103D4
:101A80007093720322E332E030936C0320936B0374
:101A900085ED90E0909378038093770384ED90E058
:101AA00090937A038093790380ED90E090937C0388
:101AB00080937B0381ED90E090937E0380937D0380
:101AC00082ED90E09093800380937F0386ED90E019
:101AD0009093820380938103109284031092850374
:101AE000109286031092870310920B0410920A043E
:101AF00040930C0450930D0460930E0470930F04F4
:101B000030930904209308048DEC90E09093150421
:101B1000809314048CEC90E0909317048093160447
:101B200088EC90E0909319048093180489EC90E07D
:101B300090931B0480931A048AEC90E090931D0408
:101B400080931C048EEC90E090931F0480931E04FD
:101B50001092210410922204109223041092240463
:101B60008BE695E010926E0510926D0540936F051F
:101B700050937005609371057093720530936C05F6
:101B800020936B0525EC30E03093780520937705A2
:101B900024EC30E030937A052093790520EC30E096
:101BA00030937C0520937B0521EC30E030937E055B
:101BB00020937D0522EC30E03093800520937F0553
:101BC00026EC30E030938205209381051092840545
:101BD00010928505109286051092870561E270E0EB
:101BE0007093200660931F06109221061092220621
:101BF0001092230626E0C22ED12CE12CF12CC092AB
:101C00002406D0922506E0922606F092270610922E
:101C100028061092290610922A0610922B0640E2FE
:101C200040932C0610922E0610922D06109231062B
:101C30002AE036E03093300620932F0620ED32E084
:101C400030930906209308062AED32E030931D06F2
:101C500020931C0610920E0610920D06109210068C
:101C600010920F061092120610921106109214068E
:101C7000109213061092160610921506109218066E
:101C8000109217062EEA32E030930B0620930A06D4
:101C900090931B0680931A0650E150931906709397
:101CA00059056093580510925A0510925B051092E1
:101CB0005C05C0925D05D0925E05E0925F05F092F2
:101CC00060051092610510926205109263051092F2
:101CD00064054093650510926705109266051092A1
:101CE0006A0510923F05109240051092410510922E
:101CF000420543E455E0509369054093680548E583
:101D000052E050933E0540933D0542E652E0509329
:101D100056054093550510924705109246051092BE
:101D200049051092480510924B0510924A051092F1
:101D30004D0510924C0510924F0510924E051092D1
:101D4000510510925005309344052093430590931C
:101D500054058093530528E02093520590933C0549
:101D600080933B056CE472E084E692E077D4EDE288
:101D7000F5E08EE0DF011D928A95E9F708E010E0BA
:101D80001093300500932F0580E390E0CBD490931F
:101D90002E0580932D05109337050093360580E3BB
:101DA00090E0C0D4909335058093340581E0809312
:101DB000150510921605109218051092170510922D
:101DC0001A05109219059FEF90931B0510921C05A0
:101DD00010921E0510921D0580931F05109220057C
:101DE00092E0909321058093220510922305109292
:101DF000240510922505109226051A8218861F8642
:101E0000188A198A1A8A8E878B871C869D878983F0
:101E100089E690E09E838D8385D49A878987009791
:101E200051F029E6FC0111922A95E9F783E290E04E
:101E30009C838B8304C01E821D821C821B828DE0CA
:101E40008F838A81882329F061E08DE09ADD8DE01F
:101E50007FD8EBEBF1E0E491F0E0EE0FFF1FEC56E2
:101E6000FE4F859194919C8B8B8BEBE5F1E0E49197
:101E7000ED8B85E1FE013196A5E1B5E001900D9273
:101E80008A95E1F7CE0101960E945A058FEF809363
:101E90002A0580932B0580932C0594EFE92E92E080
:101EA000F92EF0920305E092020511E0109312055D
:101EB000109211051092100510920C0510920D054C
:101EC00010920E0510920F050E947D046093080584
:101ED0007093090580930A0590930B0522E035E085
:101EE00030931405209313051092040510920505F4
:101EF000109206051092070560930C0570930D056E
:101F000080930E0590930F05F092F004E092EF0499
:101F10001093FF041092FE041092FD041092F90435
:101F20001092FA041092FB041092FC040E947D04AB
:101F30006093F5047093F6048093F7049093F8048B
:101F40002FEE34E030930105209300051092F10448
:101F50001092F2041092F3041092F4046093F904C6
:101F60007093FA048093FB049093FC04F092DD04D8
:101F7000E092DC041093EC041092EB041092EA045B
:101F80001092E6041092E7041092E8041092E9041B
:101F90000E947D046093E2047093E3048093E40460
:101FA0009093E5042CED34E03093EE042093ED049F
:101FB0001092DE041092DF041092E0041092E1040B
:101FC0006093E6047093E7048093E8049093E90437
:101FD000F092AA04E092A9041093B9041092B804F4
:101FE0001092B7041092B3041092B4041092B50486
:101FF0001092B6040E947D046093AF047093B00405
:102000008093B1049093B20429EA34E03093BB0486
:102010002093BA041092AB041092AC041092AD0459
:102020001092AE046093B3047093B4048093B5042B
:102030009093B6048AEE92E09093AA048093A90448
:102040001092DB041092DA04ECEBF4E0119211929E
:1020500084E0EA3DF807D1F765960FB6F894DEBF45
:102060000FBECDBFDF91CF911F910F91FF90EF90E9
:10207000DF90CF900895CF93DF93CDB7DEB72D9744
:102080000FB6F894DEBF0FBECDBF789484B58260E2
:1020900084BD84B5816084BD85B5826085BD85B50C
:1020A000816085BD80916E00816080936E0010928A
:1020B0008100809181008260809381008091810005
:1020C0008160809381008091800081608093800096
:1020D0008091B10084608093B1008091B0008160F4
:1020E0008093B000809191008260809391008091F4
:1020F0009100816080939100809190008160809335
:1021000090008091A10082608093A1008091A10045
:1021100081608093A1008091A00081608093A000E5
:102120008091210182608093210180912101816051
:102130008093210180912001816080932001809112
:102140007A00846080937A0080917A008260809324
:102150007A0080917A00816080937A0080917A0081
:10216000806880937A001092C10080911B0587FDE2
:1021700006C061E006DC80911B050E94A80781E093
:102180008093160580911D0590911E05892B11F0F5
:102190000E94200811E0109312058AE0C82ED12C6D
:1021A000E12CF12CC0920405D0920505E0920605C1
:1021B000F09207058091080590910905A0910A0504
:1021C000B0910B050A96A11DB11D80930C0590934B
:1021D0000D05A0930E05B0930F0581EF93E090934A
:1021E0001105809310058BE695E00E944B0788E06F
:1021F00094E00E944B078BE693E00E944B071093FC
:10220000FF04C092F104D092F204E092F304F09241
:10221000F4048091F5049091F604A091F704B09134
:10222000F8040A96A11DB11D8093F9049093FA0455
:10223000A093FB04B093FC0483E096E09093FE042B
:102240008093FD0482E095E00E94F7088FEE94E011
:102250000E94F7088CED94E00E94F7088BE695E069
:102260000E944B0706E0BB24BA9489EA94E00E94DE
:10227000AB0461E673E0CE010196F7D9BE016F5F52
:102280007F4F84E395E00E947005CE01019601DA4C
:1022900080913105909132059E838D8308969C83B1
:1022A0008B839C01029FC001039F900D11243AD2A1
:1022B0009A838983E12CF12CC12CD12C8D819E81B4
:1022C000C816D906A0F460912D0570912E056E0DEB
:1022D0007F1D89819A818E0D9F1D009709F014DA68
:1022E0003FEFC31AD30A86E0E80EF11CE7CF8091D6
:1022F000310590913205892BE9F0C12CD12CE12CCC
:10230000F12C8091310590913205E816F90670F4B0
:1023100080912D0590912E058C0D9D1DBAD92FEF22
:10232000E21AF20A36E0C30ED11CEBCF109232054E
:1023300010923105E12CF12CC12CD12C8D819E8184
:10234000C816D906B0F589819A818E0D9F1D0E940D
:10235000720761E673E0CE01089687D9E981FA81B8
:10236000EE0DFF1D4C855D85848195818417950751
:1023700068F080819181009749F0688579856115C1
:10238000710521F030D111E0892B09F010E0CE0168
:1023900008967FD9112331F010922A0510922B054F
:1023A000B0922C058FEFC81AD80A26E0E20EF11C75
:1023B000C5CFCE0101960E94290765D856CF85E189
:1023C00095E00E945A0584E395E00E9429078DE27A
:1023D00095E00E9429078DE395E00E94D00288E0F5
:1023E00096E00C941903EE0FFF1F881F8BBF079018
:1023F000F691E02D19946F927F928F929F92AF92F7
:10240000BF92CF92DF92EF92FF920F931F93CF93E1
:10241000DF93EC01009781F4CB01DF91CF911F9105
:102420000F91FF90EF90DF90CF90BF90AF909F9073
:102430008F907F906F9076C1FC01E60FF71F9C0193
:1024400022503109E217F30708F4A8C0D9010D9111
:102450001C91119706171707A8F00530110508F40D
:102460009BC0C80104978617970708F495C00250CF
:102470001109061B170B019311936D937C93CF01E8
:10248000E6D18AC05B01A01AB10A4C01800E911EF0
:10249000A0913A06B0913B0640E050E0E12CF12CCF
:1024A000109709F44AC0A815B905D1F56D907C9034
:1024B0001197630182E0C80ED11CCA14DB0480F1BD
:1024C000A3014A195B096A0182E0C80ED11C129669
:1024D000BC9012971396AC91B5E0CB16D10440F0A6
:1024E000B282A38351834083D9016D937C930AC048
:1024F0000E5F1F4FC301800F911FF90191838083ED
:10250000EB2DFA2FE114F10431F0D7011396FC936F
:10251000EE93129741C0F0933B06E0933A063CC01D
:102520008D919C9111974817590708F4AC017D01D2
:1025300012960D90BC91A02DB3CF8091380690914A
:10254000390688159905E1F446175707C8F48091B4
:10255000000290910102009741F48DB79EB740911F
:10256000040250910502841B950BE817F907B0F49B
:10257000F0933906E0933806F901718360830CC04B
:10258000CB01D0D07C01009749F0A801BE011BD03F
:10259000CE015DD1C70104C0CE0102C080E090E051
:1025A000DF91CF911F910F91FF90EF90DF90CF902F
:1025B000BF90AF909F908F907F906F90089581E033
:1025C00090E0F894F3C1FB01DC0102C001900D9290
:1025D00041505040D8F70895FB01DC0101900D9265
:1025E0000020E1F70895FB01DC014150504030F03C
:1025F0008D910190801919F40020B9F7881B990B6F
:1026000008954532510518F4423008F004C0FB012A
:102610001082CB010895BB274A3031F4992322F46C
:10262000BDE2909581959F4F01C0BB27FB015527C7
:10263000AA27880F991FAA1FA41710F0A41B83951F
:102640005051B9F7A05DAA3308F0A95DA193009796
:1026500079F7B111B1931192CB0198C10F931F93E8
:10266000CF93DF93009731F46115710519F480E081
:1026700090E039C08B01EC016EE070E081E090E009
:1026800037D0FC01892B99F380E88383011511056C
:1026900071F01387028781E88383809132069091DD
:1026A0003306892B21F4F0933306E093320620970A
:1026B000C9F0D187C087838182608383809134068B
:1026C00090913506892B71F4F0933506E09334062A
:1026D0008091360690913706892B21F4F0933706C6
:1026E000E0933606CF01DF91CF911F910F910895AE
:1026F0000F931F93CF93DF93869F8001879F100DC9
:10270000969F100D1124C8010DD0EC01009721F007
:10271000A80160E070E033D1CE01DF91CF911F912D
:102720000F910895CF93DF938230910510F482E0EA
:1027300090E0E0913A06F0913B0620E030E0C0E006
:10274000D0E0309711F14081518148175907C0F00E
:102750004817590761F482819381209719F09B8370
:102760008A832BC090933B0680933A0626C021159E
:10277000310519F04217530718F49A01BE01DF0121
:10278000EF010280F381E02DDCCF2115310509F145
:10279000281B390B2430310590F412968D919C91B1
:1027A00013976115710521F0FB019383828304C0A7
:1027B00090933B0680933A06FD01329644C0FD019A
:1027C000E20FF31F81939193225031092D933C9393
:1027D0003AC02091380630913906232B41F42091DC
:1027E000020230910302309339062093380620917B
:1027F0000002309101022115310541F42DB73EB799
:102800004091040250910502241B350BE0913806DB
:10281000F0913906E217F307A0F42E1B3F0B28179F
:10282000390778F0AC014E5F5F4F2417350748F049
:102830004E0F5F1F50933906409338068193919352
:1028400002C0E0E0F0E0CF01DF91CF9108950F9357
:102850001F93CF93DF93009709F48CC0FC0132974C
:102860001382128200913A0610913B060115110560
:1028700081F420813181820F931F2091380630919D
:1028800039062817390779F5F0933906E0933806A9
:1028900071C0D80140E050E0AE17BF0750F4129667
:1028A0002D913C911397AD012115310509F1D90105
:1028B000F3CF9D01DA013383228360817181860F1A
:1028C000971F8217930769F4EC0128813981260F3D
:1028D000371F2E5F3F4F318320838A819B819383F3
:1028E0008283452B29F4F0933B06E0933A0642C0DD
:1028F0001396FC93EE931297ED01499159919E0125
:10290000240F351FE217F30771F480819181840F42
:10291000951F029611969C938E93828193811396B4
:102920009C938E931297E0E0F0E0D80112968D917F
:102930009C911397009719F0F8018C01F6CF8D91B7
:102940009C9198012E5F3F4F820F931F2091380674
:10295000309139062817390769F4309729F4109215
:102960003B0610923A0602C0138212821093390677
:1029700000933806DF91CF911F910F910895DC01EC
:1029800001C06D9341505040E0F70895DC01FC0117
:10299000672F71917723E1F7329704C07C916D9393
:1029A00070836291AE17BF07C8F3089511E0C8E0C5
:1029B000D1E000E005C0802FFE0115DD2196011D4C
:0E29C000C930D10780E00807B1F7F894FFCFC7
:1029CE0000003C068000180000000000000000001F
:1029DE00E8FFE8FF00000000000014000000000007
:1029EE0000000000ECFFECFF000000000000000003
:1029FE000000DC092E09940972098609220A0600D4
:102A0E0000000000B002B202FAFFFAFF0000B102AD
:102A1E00B402180000000000D002E502E8FFE8FF53
:102A2E000000DC02EE0258020C02160262020000E6
:102A3E0000006D05AE024B024802450242023F0203
:102A4E00B601B201AF019901B9013D013B0102008E
:102A5E0000000000F902FB02FEFFFEFF0000FA027A
:102A6E00FD02000000006F054003000000006E052F
:102A7E00F7024B024802450242023F023302ED01C9
:102A8E00D401BB01B901630342031400000000002E
:102A9E0019032E03ECFFECFF000025033703D002D1
:102AAE0020022A02DA02000000009C028902AB0416
:102ABE00000000009C0289028904436865636B690B
:102ACE006E6720666F72206D657373616765730044
:102ADE004C6F6F6B696E6720746F20526561642056
:102AEE0066726F6D204E4F525448424F554E4420E1
:102AFE0053657269616C004C6F6F6B696E67207401
:102B0E006F20526561642066726F6D20534F55546D
:102B1E0048424F554E442053657269616C000D0A50
:062B2E0000424C55450079
:00000001FF
