:1000000008C1000037C1000035C1000033C1000045
:1000100031C100002FC100002DC100002BC1000024
:1000200029C1000027C1000025C1000023C1000034
:1000300021C100001FC100001DC100001BC1000044
:1000400019C1000017C1000015C1000013C1000054
:1000500011C100000FC100000DC10000BFC70000AA
:1000600009C1000031C7000006C7000003C100003D
:1000700001C10000FFC00000FDC00000FBC0000087
:10008000F9C00000F7C00000F5C00000F3C0000098
:10009000C9C600009EC60000EDC00000EBC0000015
:1000A000E9C00000E7C00000E5C00000E3C00000B8
:1000B000E1C00000DFC00000DDC00000DBC00000C8
:1000C000D9C00000D7C00000D5C0000059C600004C
:1000D0002EC60000CFC00000CDC00000CBC0000085
:1000E000C9C00000C808CB08BA08BE08C208020987
:1000F000CF08D308D908DD08E108E708EB08EF08C6
:100100000209F508F908FD08000021002400270075
:100110002A002D0030003300010100000401070116
:100120000A0100000A0B02090C0D0E080703040166
:1001300000000000000000000000000000000000BF
:10014000000000000000000000000000000012118C
:10015000100000000000000000000000000000008F
:10016000000000000000000001021020200808101C
:100170002040102040800201020108040201010217
:1001800004081020408080402010080402018004F0
:10019000020180402010080402010804020101024B
:1001A0000408102040800102040810204080000054
:1001B0002200250028002B002E003100340002010F
:1001C0000000050108010B010505050507050808E4
:1001D0000808020202020A0A0808040404040101D1
:1001E00001010101010103030303030303030407E6
:1001F00007070C0C0C0C0C0C0C0C0202020206067D
:100200000606060606060B0B0B0B0B0B0B0B1D0C49
:100210000E0C11241FBECFEFD1E2DEBFCDBF00E038
:100220000CBF13E0A0E0B2E0E4E1F3E200E00BBFBA
:1002300002C007900D92A230B107D9F725E0A2E0E5
:10024000B3E001C01D92A83DB207E1F711E0C8E09C
:10025000D1E000E006C021970109802FFE010E9435
:10026000A00EC730D10780E00807A9F70E94000A56
:100270000C947911C5CEFC0142835383648375834A
:1002800086819781A085B185480F591F6A1F7B1F02
:1002900042875387648775870895DC01ED91FC914F
:1002A0000190F081E02D1994CF92DF92EF92FF92AE
:1002B0000F931F93CF93DF936C017A018B01C0E002
:1002C000D0E0CE15DF0589F0D8016D918D01D60102
:1002D000ED91FC910190F081E02DC6011995892BDB
:1002E00011F47E0102C02196ECCFC701DF91CF91BE
:1002F0001F910F91FF90EF90DF90CF900895FC0138
:10030000A089B1898C91A689B78982FD0FC09C9183
:10031000818D8F5F8F73228D821749F0218DDF01D0
:10032000A20FB11D5D969C93818F08958C910895C5
:10033000FC01918D828D981761F0828DDF01A80FED
:10034000B11D5D968C91928D9F5F9F73928F90E00F
:1003500008958FEF9FEF0895FC01918D828D98177E
:1003600031F0828DE80FF11D858D90E008958FEFBB
:100370009FEF0895FC01918D228D892F90E0805C84
:100380009F4F821B91098F73992708958BE093E00B
:10039000F1DF21E0892B09F420E0822F089588EA1B
:1003A00093E0E8DF21E0892B09F420E0822F089513
:1003B00089ED94E0DFDF21E0892B09F420E0822F32
:1003C0000895FC01848DDF01A80FB11DA35ABF4F12
:1003D0002C91848D90E001968F739927848FA68944
:1003E000B7892C93A089B1898C9180648C93938D6B
:1003F000848D981306C00288F389E02D80818F7D5B
:1004000080830895EF92FF920F931F93CF93DF9312
:10041000EC0181E0888F9B8D8C8D981305C0E88955
:10042000F989808185FD23C0F62E0B8D10E00F5FCA
:100430001F4F0F731127E02E8C8DE8120BC00FB6E3
:1004400007FCFACFE889F989808185FFF5CFCE01D5
:10045000B8DFF2CF8B8DFE01E80FF11DE35AFF4F9D
:10046000F0820B8FEA89FB898081806207C0EE8968
:10047000FF896083E889F98980818064808381E0D5
:1004800090E0DF91CF911F910F91FF90EF90089531
:10049000CF93DF93EC01888D8823C1F0EA89FB8933
:1004A000808185FD05C0A889B9898C9186FD0EC023
:1004B0000FB607FCF5CF808185FFF2CFA889B989F7
:1004C0008C9185FFEDCFCE017CDFE8CFDF91CF911E
:1004D000089580E090E0892B19F06ADF81111BC03C
:1004E00080E090E0892B19F05ADF811117C080E07D
:1004F00090E0892B19F04ADF811113C080E090E071
:10050000892BA1F080E090E0892B81F00E9400000F
:1005100081110AC008950E940000E2CF0E940000ED
:10052000E6CF0E940000EACF0C9400000895CB01B2
:1005300008957F928F929F92AF92BF92CF92DF9257
:10054000EF92FF920F931F93CF93DF93EC0149013A
:100550005A018B01C12CD12C7601C814D904EA04AC
:10056000FB0484F5F80171908F018F8580FF0BC02B
:10057000E881F9810084F185E02D20E144E060E02C
:1005800070E0CE011995EB85FC858D859E85E81779
:10059000F90738F470828B859C8501969C878B8740
:1005A0000BC0E881F981672D70E0028CF38DE02D9E
:1005B000CE011995019649F02FEFC21AD20AE20A2C
:1005C000F20ACBCFB401C50102C0B601C701DF9169
:1005D000CF911F910F91FF90EF90DF90CF90BF9040
:1005E000AF909F908F907F900895CF93DF93EC0111
:1005F000E881F9810288F389E02D19958F3F2FEF6B
:10060000920731F02D813E812F5F3F4F3E832D8336
:10061000DF91CF9108958FEF9FEF089560E070E034
:10062000CB01089580E090E008950F931F93CF933E
:10063000DF938C01EB016F3F8FEF780719F480E0B7
:1006400090E00DC06A3029F46DE0F801808991894D
:1006500024DE6C2FF801808991891FDECE01DF91A5
:10066000CF911F910F9108958F929F92BF92CF9239
:10067000DF92EF92FF920F931F93CF93DF9300D0FF
:100680001F92CDB7DEB78C014B01C12CD12C760166
:10069000C216D306E406F50634F5F401B1904F0115
:1006A000FAE0BF120DC06DE0F801808991892983BD
:1006B0003A834B835C83F1DD5C814B813A812981F4
:1006C0006B2DF8018089918929833A834B835C8360
:1006D000E4DDFFEFCF1ADF0AEF0AFF0A5C814B81EE
:1006E0003A812981D5CFCA01B9010F900F900F909F
:1006F0000F90DF91CF911F910F91FF90EF90DF90BE
:10070000CF90BF909F908F900895CB010895CF9385
:10071000DF93EC0188899989DC01ED91FC910480DB
:10072000F581E02D1995892BA9F388899989DC0138
:10073000ED91FC910680F781E02DDF91CF91199426
:10074000CF93DF93EC0188899989DC01ED91FC91CD
:100750000480F581E02D1995892BA9F38889998961
:10076000DC01ED91FC910084F185E02DDF91CF91CA
:100770001994AF92BF92CF92DF92EF92FF920F93B4
:100780001F93CF93DF9300D01F92CDB7DEB78C01BC
:100790005B01C12CD12C7601F80180899189DC01A3
:1007A000ED91FC910680F781E02D29833A834B83FC
:1007B0005C83199529813A814B815C818F3F71F06F
:1007C000C216D306E406F5064CF4D5018D935D01FF
:1007D000BFEFCB1ADB0AEB0AFB0ADECFC701B6017B
:1007E0000F900F900F900F90DF91CF911F910F916D
:1007F000FF90EF90DF90CF90BF90AF900895DC0115
:1008000050968D919C915197DC01ED91FC91048063
:10081000F581E02D199480E090E0089580E090E06B
:10082000089580E090E0089580E090E008950895B4
:10083000CF93DF93C091D704D091D804E881F98198
:100840000480F581E02DCE011995892BB9F3E8815B
:10085000F9810680F781E02DCE01DF91CF911994C7
:100860001F93CF93DF93182FC091D704D091D80452
:100870008A3041F4E881F9810190F081E02D6DE04A
:10088000CE011995E881F9810190F081E02D612F69
:10089000CE01199521E030E0019711F420E030E01D
:1008A000C901DF91CF911F9108958F929F92AF92CE
:1008B000BF92CF92DF92EF92FF920F931F93CF934D
:1008C000DF93EC01EE85FF85309709F019958FB71E
:1008D000F8948090030390900403A0900503B090D7
:1008E00006038FBF8E016E012EE1C20ED11CE12CDA
:1008F000F12C89A99AA98E159F0524F1D801539648
:100900008D919C9154970097C1F0BFEFEB1AFB0AB1
:10091000DC01ED91FC910280F381E02DB501A40191
:100920001995882351F0F80183899489DC01ED91B0
:10093000FC910480F581E02D19950E5F1F4F0C1579
:100940001D05B9F62FB7F894809103039091040325
:10095000A0910503B09106032FBF8E839F83A887C4
:10096000B9874A815B816C817D81840F951FA61FA9
:10097000B71F8A879B87AC87BD87DF91CF911F9177
:100980000F91FF90EF90DF90CF90BF90AF909F902E
:100990008F900895CF93DF93EC01EE85FF8530971C
:1009A00009F019952FB7F8948091030390910403EF
:1009B000A0910503B09106032FBF8E839F83A88764
:1009C000B9874A815B816C817D81840F951FA61F49
:1009D000B71F8A879B87AC87BD87DF91CF9108952A
:1009E0000F931F93FC010285138524853585401BD9
:1009F000510B620B730B77FD02C0808901C080E050
:100A00001F910F9108954F925F926F927F928F92F4
:100A10009F92AF92BF92EF92FF920F931F93CF934B
:100A2000DF9300E010E0E12CF12CC0E0D0E08091F9
:100A3000B3049091B404C817D90708F061C020919D
:100A4000C6048091C70490E0A0E0B0E0BA2FA92FBF
:100A5000982F8827A22B2091C804822B2D01662471
:100A60007724892E9A2EAB2EBB24482D382F209127
:100A7000B804222391F0622F70E0649DA001659D6F
:100A8000500D749D500D1124452E829E400111245D
:100A9000492D829FC0011124392F2091BE0450910D
:100AA000BB048091B9049091BA04251303C08E0D44
:100AB0009F1D06C0800F911FFC01E20FF11D1082E7
:100AC0002091BB04FC01E20FF11D40822091BC0487
:100AD000FC01E20FF11D40832091BD04FC01E20FF7
:100AE000F11D30838091B9049091BA04892B09F0EB
:100AF00099D3219683E0E80EF11C0C5F1F4F97CF2E
:100B0000DF91CF911F910F91FF90EF90BF90AF9029
:100B10009F908F907F906F905F904F9008950E946C
:100B20008C0F0F931F93CF93DF93EC0188819981F2
:100B3000009729F02A813B812617370788F48B011B
:100B40006F5F7F4F0E94A80E009761F099838883A2
:100B50001B830A832C813D81232B11F4FC0110821D
:100B600081E001C080E0DF91CF911F910F91089546
:100B7000CF93DF93EC0188819981009711F00E9457
:100B8000CA10198218821D821C821B821A82DF9170
:100B9000CF910895EF92FF920F931F93CF93DF931E
:100BA000EC017B018A01BA01BCDF811103C0CE01D7
:100BB000DFDF07C01D830C83B701888199810E9404
:100BC000990FCE01DF91CF911F910F91FF90EF9080
:100BD0000895CF93DF93EC01FB018617970751F03F
:100BE000608171816115710521F044815581D2DFE9
:100BF00001C0BEDFCE01DF91CF910895FC0180815D
:100C000091810C94CA100C94CA10089508950C9404
:100C1000CA10DC01ED91FC91369720813181820F61
:100C2000931FF5CFFB0120813181FC0131832083AB
:100C3000FB0142815381F901369720813181FC010A
:100C4000E20FF31F51834083089522E632E0FC0156
:100C5000318320832CE632E0318F208F62E772E00F
:100C6000E1CFDC01ED91FC91369720813181820F3B
:100C7000931FEBCFCF93DF93EC01E7DFCE01DF9142
:100C8000CF910C94CA10DC01ED91FC913697208134
:100C90003181820F931FEECF0C94CA1008950895EE
:100CA0000C94CA10DC01ED91FC91369720813181C2
:100CB000820F931FF5CFFB0120813181FC0131832D
:100CC0002083FB0142815381F901369720813181D4
:100CD000FC01E20FF31F5183408308952AED32E0B7
:100CE000FC013183208324EE32E0358B248B6AEEC5
:100CF00072E0E1CFDC01ED91FC91369720813181EA
:100D0000820F931FEBCFCF93DF93EC01E7DFCE0190
:100D1000DF91CF910C94CA10DC01ED91FC913697D4
:100D200020813181820F931FEECF0C94CA101F9245
:100D30000F920FB60F9211240BB60F922F933F9381
:100D40004F935F936F937F938F939F93AF93BF93D3
:100D5000EF93FF938BE093E034DBFF91EF91BF9132
:100D6000AF919F918F917F916F915F914F913F9143
:100D70002F910F900BBE0F900FBE0F901F901895E4
:100D80001F920F920FB60F9211240BB60F922F9352
:100D90003F934F935F936F937F938F939F93AF9303
:100DA000BF93EF93FF938BE093E0A9DAFF91EF916C
:100DB000BF91AF919F918F917F916F915F914F9173
:100DC0003F912F910F900BBE0F900FBE0F901F9071
:100DD00018951F920F920FB60F9211240BB60F9217
:100DE0002F933F934F935F936F937F938F939F9333
:100DF000AF93BF93EF93FF9388EA93E0E2DAFF911A
:100E0000EF91BF91AF919F918F917F916F915F9182
:100E10004F913F912F910F900BBE0F900FBE0F90EF
:100E20001F9018951F920F920FB60F9211240BB6B8
:100E30000F922F933F934F935F936F937F938F9373
:100E40009F93AF93BF93EF93FF9388EA93E057DAB2
:100E5000FF91EF91BF91AF919F918F917F916F9192
:100E60005F914F913F912F910F900BBE0F900FBE4E
:100E70000F901F9018951F920F920FB60F9211248A
:100E80000BB60F922F933F934F935F936F937F9384
:100E90008F939F93AF93BF93EF93FF9389ED94E06C
:100EA00090DAFF91EF91BF91AF919F918F917F91D8
:100EB0006F915F914F913F912F910F900BBE0F90CB
:100EC0000FBE0F901F9018951F920F920FB60F92A2
:100ED00011240BB60F922F933F934F935F936F9311
:100EE0007F938F939F93AF93BF93EF93FF9389ED7E
:100EF00094E005DAFF91EF91BF91AF919F918F91AF
:100F00007F916F915F914F913F912F910F900BBE09
:100F10000F900FBE0F901F901895CF93DF9390E026
:100F2000FC01E859FE4F2491FC01E853FE4F8491E7
:100F3000882361F190E0880F991FFC01E85FFE4F64
:100F4000C591D491FC01E255FE4FA591B491611178
:100F500009C09FB7F8948881209582238883EC91FB
:100F60002E230BC0623061F49FB7F8943881822F32
:100F7000809583238883EC912E2B2C939FBF06C0F2
:100F80008FB7F894E8812E2B28838FBFDF91CF9104
:100F900008953FB7F8948091070390910803A091BA
:100FA0000903B0910A0326B5A89B05C02F3F19F08D
:100FB0000196A11DB11D3FBFBA2FA92F982F8827D9
:100FC000820F911DA11DB11DBC01CD0142E0660F34
:100FD000771F881F991F4A95D1F708951F920F9286
:100FE0000FB60F9211242F933F938F939F93AF933C
:100FF000BF938091030390910403A0910503B091E6
:1010000006033091020323E0230F2D3720F40196CD
:10101000A11DB11D05C026E8230F0296A11DB11D1B
:10102000209302038093030390930403A09305038A
:10103000B09306038091070390910803A0910903E0
:10104000B0910A030196A11DB11D809307039093EF
:101050000803A0930903B0930A03BF91AF919F9136
:101060008F913F912F910F900FBE0F901F90189569
:10107000CF93DF93EC0188859985009711F00E944A
:10108000CA108E8187FD04C060E0DF91CF9145CF0B
:10109000DF91CF910895089508950895FC018AE0A5
:1010A00092E09183808381E0808B778766871286C8
:1010B0001386148615866FB7F89480910303909178
:1010C0000403A0910503B09106036FBF8683978345
:1010D000A087B187F28BE18B2283338344835583CE
:1010E000820F931FA41FB51F82879387A487B5879C
:1010F0000895EF92FF920F931F93CF93DF937C019C
:1011000000E010E0C0E0D0E0F7012481358180816B
:101110009181C217D30738F4800F911F6FDD21969C
:101120000A5F1F4FF1CFDF91CF911F910F91FF9079
:10113000EF900C94CA1090E0FC01EE5DFE4F4491DC
:10114000FC01E859FE4F2491FC01E853FE4F9491B5
:10115000992309F466C0442309F454C050E0FA010D
:101160003197E231F10508F04DC08827EE58FF4F66
:101170008F4FE6C5809180008F7707C080918000F7
:101180008F7D03C080918000877F809380003AC06C
:1011900084B58F7702C084B58F7D84BD33C08091C4
:1011A000B0008F7703C08091B0008F7D8093B00036
:1011B00029C0809190008F7707C0809190008F7D2B
:1011C00003C080919000877F809390001BC0809126
:1011D000A0008F7707C08091A0008F7D03C0809111
:1011E000A000877F8093A0000DC0809120018F77A1
:1011F00007C0809120018F7D03C080912001877FEF
:1012000080932001E92FF0E0EE0FFF1FE255FE4F23
:10121000A591B4918FB7F894EC9120952E232C933F
:101220008FBF08950F931F93CF93DF93CDB7DEB792
:1012300029970FB6F894DEBF0FBECDBFAADE00918E
:10124000BF041091C0042091C1043091C204DC019C
:10125000CB01801B910BA20BB30B8C329140A105EB
:10126000B10560F3F8948091B5049091B6049A8327
:101270008983E091B904F091BA04DF01119680816D
:1012800089879091B104E091C304F091C4048091E6
:10129000C504992309F42EC09081982B98879081DA
:1012A000809589238F838F818C8388E08B835885F9
:1012B0006F8149853B812C8189819A81508347FDCB
:1012C000252F3A952083262F39F0441F00C00000B7
:1012D0006083000000C0F2CF38E04D9160830000D1
:1012E000019761F7F093C404E093C30449873B83FB
:1012F0002C8338C09081982B988790818095892382
:101300008F838F818E8388E08D8358856F81498597
:101310003D812E8189819A81508347FD252F00C010
:1013200000C0208300C000C000C000C000C06083B7
:101330000000262F3A9541F0441F000000C000C075
:1013400000C000C000C0E8CF38E04D9100C060830D
:1013500000C0019709F7F093C404E093C3044987E0
:101360003D832E839A838983789413DE6093BF0430
:101370007093C0048093C1049093C20429960FB661
:10138000F894DEBF0FBECDBFDF91CF911F910F91BB
:101390000895CF93DF93A8E5B4E0FD01C191D19109
:1013A000209741F049895A89EC0129893A894217E5
:1013B000530711F1D4E0E637FD0781F720E030E074
:1013C0004D915D91452B89F4220F331FF901EB5BA1
:1013D000FB4F948B838B80917604909177040196D8
:1013E000909377048093760407C02F5F3F4F2F3090
:1013F000310531F780E001C081E0DF91CF910895A0
:10140000CF93DF93CDB7DEB7A4970FB6F894DEBFC6
:101410000FBECDBF789484B5826084BD84B58160F1
:1014200084BD85B5826085BD85B5816085BD8091AF
:101430006E00816080936E00109281008091810027
:10144000826080938100809181008160809381001F
:10145000809180008160809380008091B1008460E1
:101460008093B1008091B00081608093B000809142
:1014700091008260809391008091910081608093BF
:101480009100809190008160809390008091A100F4
:1014900082608093A1008091A10081608093A1006F
:1014A0008091A00081608093A000809121018260E2
:1014B000809321018091210181608093210180919D
:1014C000200181608093200180917A008460809364
:1014D0007A0080917A00826080937A0080917A000D
:1014E000816080937A0080917A00806880937A008E
:1014F0001092C1008091B70487FD05C061E00DDD49
:101500008091B70418DE81E08093B2048091B90421
:101510009091BA04892B09F085DE81E08093AE04B6
:101520008AE090E0A0E0B0E08093A0049093A10452
:10153000A093A204B093A3048091A4049091A50465
:10154000A091A604B091A7040A96A11DB11D809395
:10155000A8049093A904A093AA04B093AB0483E0D9
:1015600095E09093AD048093AC048EE994E011DF94
:101570008BE894E00EDF88E794E00BDF8E010F5FCD
:101580001F4F8BE3D82E96E0C92EBB24BA9485E476
:1015900094E08BD918A21F8E1AA219A21CA21BA21A
:1015A00044E050E06AEF72E0CE014F96F3DA1C8A15
:1015B0001B8A1E8A1D8A188E1F8A4AE0B80180E0A5
:1015C00090E0CCD4F80101900020E9F73197AF0109
:1015D000401B510BB801CE014396DCDA1A8E198EEE
:1015E0001C8E1B8E1E8E1D8EBE01615E7F4FCE0136
:1015F0004996EFDAD9821A82ED8CFE8C2FEFE21A2F
:10160000F20AB701CE0149968CDA882359F0298D68
:101610003A8D8D8D9E8DB801820F931F8AD4FE8ED8
:10162000ED8E03C0CE014996A3DA8F89988D8B8801
:101630009C88ED8CFE8C8114910409F4EBC000971A
:1016400099F0E80EF91EB701CE0149966ADA8823AF
:1016500009F4E0C0298D3A8D8D8D9E8DB401820FE5
:10166000931F67D4FE8EED8E1A8219821C821B8214
:101670001E821D82BE01675E7F4FC801AADA4D81BE
:101680005E8169817A8189ED94E00E94540142E093
:1016900050E06FEF72E089ED94E00E945401C801C0
:1016A000ADDACE014996AADACE014396A7DA4BA16C
:1016B0005CA16F8D78A188EA93E00E9454014BA150
:1016C0005CA16F8D78A18BE093E00E945401CE0164
:1016D0004F9694DA8091CD049091CE049E838D83B1
:1016E00008969C838B839C01C29EC001C39E900D73
:1016F0001124BBD49A838983E12CF12C812C912C69
:101700008D819E8188169906D8F46091C9047091E4
:10171000CA046E0D7F1DE981FA81EE0DFF1D309721
:1017200041F0118210821382128215821482CF013D
:1017300050DA3FEF831A930A86E0E80EF11CE0CFFF
:101740008091CD049091CE04892BE9F0812C912CCD
:10175000E12CF12C8091CD049091CE04E816F9068D
:1017600070F48091C9049091CA04880D991D46DADD
:101770002FEFE21AF20A36E0830E911CEBCF1092A3
:10178000CE041092CD04612C712C812C912C8D8172
:101790009E8188169906C8F51C8A1B8A1E8A1D8A96
:1017A000188E1F8A44E050E06AEF72E0CE01439643
:1017B000F1D9E981FA81E60DF71D4F89588D8481B1
:1017C00095818417950770F080819181009751F081
:1017D0006B897C896115710529F0B2D3FF24F394DC
:1017E000892B09F0F12CCE01439608DAFF2031F065
:1017F0001092C6041092C704B092C8048FEF881AE2
:10180000980A26E0620E711CC2CFC80172DC0E94E9
:101810006902BDCECE014996ABD926CF81EB94E0CB
:1018200027DC80ED94E065DC89EC94E062DC86E7FF
:1018300095E00BDA84EA95E051CACF92DF92EF92FD
:10184000FF920F931F93CF93DF93CDB7DEB76597CA
:101850000FB6F894DEBF0FBECDBF10920E031092EC
:101860000D0348EE53E060E070E040930F035093A7
:10187000100360931103709312032CE332E0309352
:101880000C0320930B0385ED90E090931803809355
:10189000170384ED90E090931A038093190380ED71
:1018A00090E090931C0380931B0381ED90E0909354
:1018B0001E0380931D0382ED90E09093200380939C
:1018C0001F0386ED90E090932203809321031092F2
:1018D00024031092250310922603109227031092DE
:1018E000AB031092AA034093AC035093AD036093F3
:1018F000AE037093AF033093A9032093A8038DEC3C
:1019000090E09093B5038093B4038CEC90E09093B7
:10191000B7038093B60388EC90E09093B90380936B
:10192000B80389EC90E09093BB038093BA038AECF0
:1019300090E09093BD038093BC038EEC90E0909375
:10194000BF038093BE031092C1031092C203109292
:10195000C3031092C40389ED94E01092DC0410924A
:10196000DB044093DD045093DE046093DF04709346
:10197000E0043093DA042093D90425EC30E030936E
:10198000E6042093E50424EC30E03093E80420934F
:10199000E70420EC30E03093EA042093E90421ECE2
:1019A00030E03093EC042093EB0422EC30E03093F1
:1019B000EE042093ED0426EC30E03093F004209305
:1019C000EF041092F2041092F3041092F4041092B7
:1019D000F50461E270E07093BC056093BB05109262
:1019E000BD051092BE051092BF0526E0C22ED12C77
:1019F000E12CF12CC092C005D092C105E092C20545
:101A0000F092C3051092C4051092C5051092C60548
:101A10001092C70540E24093C8051092CA05109283
:101A2000C9051092CD0526EA35E03093CC05209308
:101A3000CB052AED32E03093A5052093A40524EED2
:101A400032E03093B9052093B8051092AA051092A0
:101A5000A9051092AC051092AB051092AE0510923C
:101A6000AD051092B0051092AF051092B20510921C
:101A7000B1051092B4051092B30528EB32E0309313
:101A8000A7052093A6059093B7058093B60550E16E
:101A90005093B5057093920560939105109293054C
:101AA0001092940510929505C0929605D0929705D4
:101AB000E0929805F092990510929A0510929B0574
:101AC00010929C0510929D0540939E051092A005D2
:101AD00010929F051092A305109278051092790537
:101AE00010927A0510927B054CE755E05093A205C1
:101AF0004093A10542E652E0509377054093760566
:101B00004CE652E050938F0540938E05109280056D
:101B100010927F0510928205109281051092840523
:101B20001092830510928605109285051092880503
:101B30001092870510928A051092890530937D05D1
:101B400020937C0590938D0580938C0528E020934D
:101B50008B059093D8048093D70468E174E080E308
:101B600094E01FD2E9ECF4E08EE0DF011D928A954B
:101B7000E9F708E010E01093CC040093CB0480E375
:101B800090E073D29093CA048093C9041093D30455
:101B90000093D20480E390E068D29093D1048093C4
:101BA000D00481E08093B1041092B2041092B40486
:101BB0001092B3041092B6041092B5049FEF909364
:101BC000B7041092B8041092BA041092B90480932A
:101BD000BB041092BC0492E09093BD048093BE04B9
:101BE0001092BF041092C0041092C1041092C2045B
:101BF0001A8218861F86188A198A1A8A8E878B87F6
:101C00001C869D87898389E690E09E838D832DD2F3
:101C10009A878987009751F029E6FC0111922A954D
:101C2000E9F783E290E09C838B8304C01E821D82CF
:101C30001C821B828DE08F838A81882329F061E0DA
:101C40008DE06BD98DE077DAE5EDF1E0E491F0E03D
:101C5000EE0FFF1FE255FE4F859194919C8B8B8B6D
:101C6000E5E7F1E0E491ED8B85E1FE013196A1EB32
:101C7000B4E001900D928A95E1F7CE010196F8D972
:101C80008FEF8093C6048093C7048093C80420E03C
:101C900030E0A90160E070E08EE994E0FFD920E037
:101CA00030E0A90160E070E08BE894E0F7D920E033
:101CB00030E0A90160E070E088E794E0EFD920E02F
:101CC00030E0A90160E070E085E494E0E7D984EFBA
:101CD00092E090934604809345041092770410920A
:101CE0007604E8E5F4E01192119284E0E637F80713
:101CF000D1F71092470410924804109249041092B0
:101D00004A0480914B0490914C04A0914D04B091F1
:101D10004E0480934F0490935004A0935104B093C9
:101D2000520465960FB6F894DEBF0FBECDBFDF91AB
:101D3000CF911F910F91FF90EF90DF90CF9008957A
:101D4000EE0FFF1F881F8BBF0790F691E02D1994AF
:101D50006F927F928F929F92AF92BF92CF92DF92BB
:101D6000EF92FF920F931F93CF93DF93EC010097B5
:101D700081F4CB01DF91CF911F910F91FF90EF90F4
:101D8000DF90CF90BF90AF909F908F907F906F909B
:101D90006CC1FC01E60FF71F9C0122503109E217CC
:101DA000F30708F4A8C0D9010D911C9111970617EB
:101DB0001707A8F00530110508F49BC0C801049767
:101DC0008617970708F495C002501109061B170BD8
:101DD000019311936D937C93CF01DCD18AC05B0199
:101DE000A01AB10A4C01800E911EA091D605B091A7
:101DF000D70540E050E0E12CF12C109709F44AC0DF
:101E0000A815B905D1F56D907C901197630182E01A
:101E1000C80ED11CCA14DB0480F1A3014A195B0966
:101E20006A0182E0C80ED11C1296BC9012971396DC
:101E3000AC91B5E0CB16D10440F0B282A3835183BC
:101E40004083D9016D937C930AC00E5F1F4FC3017D
:101E5000800F911FF90191838083EB2DFA2FE114FC
:101E6000F10431F0D7011396FC93EE93129741C021
:101E7000F093D705E093D6053CC08D919C911197C6
:101E80004817590708F4AC017D0112960D90BC91DA
:101E9000A02DB3CF8091D4059091D50588159905D3
:101EA000E1F446175707C8F48091000290910102AF
:101EB000009741F48DB79EB74091040250910502FE
:101EC000841B950BE817F907B0F4F093D505E09360
:101ED000D405F901718360830CC0CB01C6D07C01AD
:101EE000009749F0A801BE011BD0CE0153D1C70114
:101EF00004C0CE0102C080E090E0DF91CF911F913D
:101F00000F91FF90EF90DF90CF90BF90AF909F9098
:101F10008F907F906F90089581E090E0F894E9C1F0
:101F2000FB01DC0102C001900D9241505040D8F7F6
:101F30000895FB01DC0101900D920020E1F7089566
:101F4000FB01DC014150504030F08D91019080192F
:101F500019F40020B9F7881B990B0895BB274A3064
:101F600031F4992322F4BDE2909581959F4F01C0F1
:101F7000BB27FB015527AA27880F991FAA1FA41763
:101F800010F0A41B83955051B9F7A05DAA3308F057
:101F9000A95DA193009779F7B111B1931192CB018B
:101FA00098C10F931F93CF93DF93009731F461157E
:101FB000710519F480E090E039C08B01EC016EE00E
:101FC00070E081E090E037D0FC01892B99F380E844
:101FD00083830115110571F01387028781E88383DC
:101FE0008091CE059091CF05892B21F4F093CF05F8
:101FF000E093CE052097C9F0D187C08783818260A6
:1020000083838091D0059091D105892B71F4F09351
:10201000D105E093D0058091D2059091D305892B0D
:1020200021F4F093D305E093D205CF01DF91CF9156
:102030001F910F9108950F931F93CF93DF93869F66
:102040008001879F100D969F100D1124C8010DD09F
:10205000EC01009721F0A80160E070E033D1CE01DF
:10206000DF91CF911F910F910895CF93DF9382302D
:10207000910510F482E090E0E091D605F091D7054B
:1020800020E030E0C0E0D0E0309711F14081518194
:1020900048175907C0F04817590761F482819381A6
:1020A000209719F09B838A832BC09093D705809348
:1020B000D60526C02115310519F04217530718F42B
:1020C0009A01BE01DF01EF010280F381E02DDCCF38
:1020D0002115310509F1281B390B2430310590F405
:1020E00012968D919C9113976115710521F0FB015A
:1020F0009383828304C09093D7058093D605FD0116
:10210000329644C0FD01E20FF31F81939193225058
:1021100031092D933C933AC02091D4053091D505D7
:10212000232B41F420910202309103023093D50514
:102130002093D40520910002309101022115310530
:1021400041F42DB73EB74091040250910502241B83
:10215000350BE091D405F091D505E217F307A0F413
:102160002E1B3F0B2817390778F0AC014E5F5F4FED
:102170002417350748F04E0F5F1F5093D505409345
:10218000D4058193919302C0E0E0F0E0CF01DF91AC
:10219000CF9108950F931F93CF93DF93009709F486
:1021A0008CC0FC013297138212820091D6051091E7
:1021B000D7050115110581F420813181820F931F0C
:1021C0002091D4053091D5052817390779F5F0937A
:1021D000D505E093D40571C0D80140E050E0AE17BA
:1021E000BF0750F412962D913C911397AD01211524
:1021F000310509F1D901F3CF9D01DA01338322833F
:1022000060817181860F971F8217930769F4EC0133
:1022100028813981260F371F2E5F3F4F318320835E
:102220008A819B8193838283452B29F4F093D70580
:10223000E093D60542C01396FC93EE931297ED01FE
:10224000499159919E01240F351FE217F30771F44C
:1022500080819181840F951F029611969C938E9395
:102260008281938113969C938E931297E0E0F0E025
:10227000D80112968D919C911397009719F0F8014F
:102280008C01F6CF8D919C9198012E5F3F4F820F6C
:10229000931F2091D4053091D5052817390769F48B
:1022A000309729F41092D7051092D60502C01382F8
:1022B00012821093D5050093D405DF91CF911F9121
:1022C0000F910895DC0101C06D9341505040E0F73B
:1022D0000895DC01FC01672F71917723E1F73297B4
:1022E00004C07C916D9370836291AE17BF07C8F3F1
:1022F000089511E0C8E0D1E000E005C0802FFE01A4
:102300001FDD2196011DC930D10780E00807B1F714
:04231000F894FFCF6F
:102314000000D8058000000000003B01F004CA045E
:1023240018000000000000000000E8FFE8FF0000C3
:102334000000000014000000000000000000ECFF9A
:10234400ECFF000000000000000000000202540145
:10235400BA019801AC01480206000000000005061D
:102364000706FAFFFAFF0000060609061800000037
:10237400000025063A06E8FFE8FF000031064306A0
:102384006202160220026C02000000004B080306E1
:102394001704140411040E040B0412030E030B039C
:1023A400F5028503990297020200000000004E0620
:1023B4005006FEFFFEFF00004F065206000000001C
:1023C4004D089506000000004C084C061704140440
:1023D40011040E040B04FF03B903A0038703850350
:1023E400340315031400000000006E068306ECFF9E
:1023F400ECFF00007A068C06DA022A023402E402B8
:10240400000000003B01F0045504424C5545000D0A
:022414000A00BC
:00000001FF
