:1000000008C1000035C1000033C1000031C100004B
:100010002FC100002DC100002BC1000029C100002C
:1000200027C1000025C1000023C1000021C100003C
:100030001FC100001DC100001BC1000019C100004C
:1000400017C1000015C1000013C1000011C100005C
:100050000FC100000DC100000BC1000066C600000A
:1000600007C1000005C1000003C1000001C100007C
:10007000FFC00000FDC00000FBC00000F9C0000090
:10008000F7C00000F5C00000F3C00000F1C00000A0
:1000900023C60000F8C50000EBC00000E9C0000066
:1000A000E7C00000E5C00000E3C00000E1C00000C0
:1000B000DFC00000DDC00000DBC00000D9C00000D0
:1000C000D7C00000D5C00000D3C00000B3C50000F9
:1000D00088C50000CDC00000CBC00000C9C0000032
:1000E000C7C0000078017B016A016E017201B20194
:1000F0007F01830189018D01910197019B019F017E
:10010000B201A501A901AD010000210024002700D2
:100110002A002D0030003300010100000401070116
:100120000A0100000A0B02090C0D0E080703040166
:1001300000000000000000000000000000000000BF
:10014000000000000000000000000000000012118C
:10015000100000000000000000000000000000008F
:10016000000000000000000001021020200808101C
:100170002040102040800201020108040201010217
:1001800004081020408080402010080402018004F0
:10019000020180402010080402010804020101024B
:1001A0000408102040800102040810204080000054
:1001B0002200250028002B002E003100340002010F
:1001C0000000050108010B010505050507050808E4
:1001D0000808020202020A0A0808040404040101D1
:1001E00001010101010103030303030303030407E6
:1001F00007070C0C0C0C0C0C0C0C0202020206067D
:100200000606060606060B0B0B0B0B0B0B0BDF068D
:10021000B90811241FBECFEFD1E2DEBFCDBF00E091
:100220000CBF12E0A0E0B2E0E2E2F4E100E00BBFBC
:1002300002C007900D92AA32B107D9F723E0AAE2D3
:10024000B2E001C01D92A23FB207E1F711E0C8E0A1
:10025000D1E000E005C021970109802FFE0197D76A
:10026000C730D10780E00807B1F7CAD60C94000A5E
:10027000C7CEFC0142835383648375838681978153
:10028000A085B185480F591F6A1F7B1F428753877E
:1002900064877587089590E0FC01EE5DFE4F449100
:1002A000FC01E859FE4F2491FC01E853FE4F949164
:1002B000992309F466C0442309F454C050E0FA01BC
:1002C0003197E231F10508F04DC08827EE58FF4F15
:1002D0008F4F5DC7809180008F7707C0809180002D
:1002E0008F7D03C080918000877F809380003AC01B
:1002F00084B58F7702C084B58F7D84BD33C0809173
:10030000B0008F7703C08091B0008F7D8093B000E4
:1003100029C0809190008F7707C0809190008F7DD9
:1003200003C080919000877F809390001BC08091D4
:10033000A0008F7707C08091A0008F7D03C08091BF
:10034000A000877F8093A0000DC0809120018F774F
:1003500007C0809120018F7D03C080912001877F9D
:1003600080932001E92FF0E0EE0FFF1FE255FE4FD2
:10037000A591B4918FB7F894EC9120952E232C93EE
:100380008FBF0895CF93DF93A0E8B3E0FD01C19143
:10039000D191209741F049895A89EC0129893A89FC
:1003A0004217530711F1D3E0EE39FD0781F720E042
:1003B00030E04D915D91452B89F4220F331FF901F7
:1003C000E359FC4F948B838B80919E0390919F0304
:1003D000019690939F0380939E0307C02F5F3F4F2A
:1003E0002F30310531F780E001C081E0DF91CF91FE
:1003F0000895CF92DF92EF92FF920F931F93CF93C6
:10040000DF936C017A018B01C0E0D0E0CE15DF05EF
:1004100089F0D8016D918D01D601ED91FC9101908B
:10042000F081E02DC6011995892B11F47E0102C0DF
:100430002196ECCFC701DF91CF911F910F91FF90D3
:10044000EF90DF90CF900895FC01A089B1898C9145
:10045000A689B78982FD0FC09C91818D8F5F8F73B4
:10046000228D821749F0218DDF01A20FB11D5D960B
:100470009C93818F08958C910895FC01918D828DBC
:10048000981761F0828DDF01A80FB11D5D968C91E8
:10049000928D9F5F9F73928F90E008958FEF9FEFF3
:1004A0000895FC01918D828D981731F0828DE80FAF
:1004B000F11D858D90E008958FEF9FEF0895FC0169
:1004C000918D228D892F90E0805C9F4F821B910936
:1004D0008F739927089583E392E0F1DF21E0892B60
:1004E00009F420E0822F089580ED92E0E8DF21E01A
:1004F000892B09F420E0822F0895FC01848DDF010F
:10050000A80FB11DA35ABF4F2C91848D90E0019686
:100510008F739927848FA689B7892C93A089B18975
:100520008C9180648C93938D848D981306C002887F
:10053000F389E02D80818F7D80830895EF92FF9273
:100540000F931F93CF93DF93EC0181E0888F9B8DF6
:100550008C8D981305C0E889F989808185FD23C0B9
:10056000F62E0B8D10E00F5F1F4F0F731127E02E3B
:100570008C8DE8120BC00FB607FCFACFE889F98919
:10058000808185FFF5CFCE01B8DFF2CF8B8DFE01E4
:10059000E80FF11DE35AFF4FF0820B8FEA89FB89C8
:1005A0008081806207C0EE89FF896083E889F989CC
:1005B00080818064808381E090E0DF91CF911F9102
:1005C0000F91FF90EF900895CF93DF93EC01888D0A
:1005D0008823C1F0EA89FB89808185FD05C0A8894F
:1005E000B9898C9186FD0EC00FB607FCF5CF8081CE
:1005F00085FFF2CFA889B9898C9185FFEDCFCE0117
:100600007CDFE8CFDF91CF91089580E090E0892BE7
:1006100041F080E090E0892B21F00E9400008111E0
:100620001BC080E090E0892B19F05EDF811117C0BC
:1006300080E090E0892B19F04EDF811113C080E03B
:1006400090E0892BA1F080E090E0892B81F00E945E
:10065000000081110AC008950E940000E2CF0E94AC
:100660000000E6CF0E940000EACF0C94000008953D
:10067000CF93DF9390E0FC01E859FE4F2491FC01F9
:10068000E853FE4F8491882361F190E0880F991F11
:10069000FC01E85FFE4FC591D491FC01E255FE4F8D
:1006A000A591B491611109C09FB7F89488812095F4
:1006B00082238883EC912E230BC0623061F49FB7B4
:1006C000F8943881822F809583238883EC912E2B98
:1006D0002C939FBF06C08FB7F894E8812E2B2883F8
:1006E0008FBFDF91CF9108953FB7F89480912F028B
:1006F00090913002A0913102B091320226B5A89BB0
:1007000005C02F3F19F00196A11DB11D3FBFBA2FA3
:10071000A92F982F8827820F911DA11DB11DBC0103
:10072000CD0142E0660F771F881F991F4A95D1F7C8
:1007300008950F931F93CF93DF93CDB7DEB729971B
:100740000FB6F894DEBF0FBECDBFCEDF0091E7033A
:100750001091E8032091E9033091EA03DC01CB0119
:10076000801B910BA20BB30B8C329140A105B105FC
:1007700060F3F8948091DD039091DE039A8389837E
:10078000E091E103F091E203DF0111968081898716
:100790009091D903E091EB03F091EC038091ED038C
:1007A000992309F42EC09081982B98879081809589
:1007B00089238F838F818C8388E08B8358856F8119
:1007C00049853B812C8189819A81508347FD252F62
:1007D0003A952083262F39F0441F00C00000608323
:1007E000000000C0F2CF38E04D9160830000019717
:1007F00061F7F093EC03E093EB0349873B832C8391
:1008000038C09081982B98879081809589238F8319
:100810008F818E8388E08D8358856F8149853D81E6
:100820002E8189819A81508347FD252F00C000C009
:10083000208300C000C000C000C000C06083000072
:10084000262F3A9541F0441F000000C000C000C0B0
:1008500000C000C0E8CF38E04D9100C0608300C008
:10086000019709F7F093EC03E093EB0349873D838D
:100870002E839A838983789437DF6093E70370939C
:10088000E8038093E9039093EA0329960FB6F8945E
:10089000DEBF0FBECDBFDF91CF911F910F910895A5
:1008A0002F923F924F925F926F927F928F929F9280
:1008B000AF92BF92CF92DF92EF92FF920F931F936E
:1008C000CF93DF9300D0CDB7DEB76983D82EC72E84
:1008D000292E00E010E0E12CF12C1B821A82362E2A
:1008E0008091DB039091DC032A813B812817390733
:1008F00008F078C0832D4091E003442369F0D49E32
:10090000C0011124692FC49EC00111248981849FD4
:1009100090011124832F02C09C2D6D2D5091E60370
:100920007091E3032091E1033091E203571303C078
:100930002E0D3F1D0EC0200F311FF901E50FF11DD7
:10094000442329F0249EA0011124452F01C0422DEB
:1009500040834091E303F901E40FF11D608340916E
:10096000E403F901E40FF11D90839091E503F9018F
:10097000E90FF11D80838091E1039091E203892BBF
:1009800009F0D7DEB1DE4B015C0182E3482E512C29
:10099000612C712CA9DEDC01CB0188199909AA0907
:1009A000BB09883E9340A105B10558F091E0491A72
:1009B000510861087108E8EE8E0EE3E09E1EA11C4E
:1009C000B11C411451046104710421F72A813B8157
:1009D0002F5F3F4F3B832A8333E0E30EF11C0C5F14
:1009E0001F4F7ECF0F900F900F90DF91CF911F91EF
:1009F0000F91FF90EF90DF90CF90BF90AF909F90BE
:100A00008F907F906F905F904F903F902F900895C0
:100A10008F929F92AF92BF92CF92DF92EF92FF920E
:100A20000F931F93CF93DF93EC01EE85FF853097F3
:100A300009F019958FB7F89480902B0290902C02B2
:100A4000A0902D02B0902E028FBF8E016E012EE17C
:100A5000C20ED11CE12CF12C89A99AA98E159F05F3
:100A600024F1D80153968D919C9154970097C1F031
:100A7000BFEFEB1AFB0ADC01ED91FC910280F381E0
:100A8000E02DB501A4011995882351F0F80183895F
:100A90009489DC01ED91FC910480F581E02D19959C
:100AA0000E5F1F4F0C151D05B9F62FB7F8948091F6
:100AB0002B0290912C02A0912D02B0912E022FBFFB
:100AC0008E839F83A887B9874A815B816C817D81F2
:100AD000840F951FA61FB71F8A879B87AC87BD878A
:100AE000DF91CF911F910F91FF90EF90DF90CF900A
:100AF000BF90AF909F908F900895CF93DF93EC01BC
:100B0000EE85FF85309709F019952FB7F8948091FD
:100B10002B0290912C02A0912D02B0912E022FBF9A
:100B20008E839F83A887B9874A815B816C817D8191
:100B3000840F951FA61FB71F8A879B87AC87BD8729
:100B4000DF91CF9108950F931F93FC0102851385C8
:100B500024853585401B510B620B730B77FD02C05A
:100B6000808901C080E01F910F910895FC018AE007
:100B700092E09183808381E0808B778766871286FD
:100B80001386148615866FB7F89480912B02909186
:100B90002C02A0912D02B0912E026FBF8683978305
:100BA000A087B187F28BE18B228333834483558303
:100BB000820F931FA41FB51F82879387A487B587D1
:100BC000089560E070E08FEF90E06ADE60E07FEF14
:100BD00080E090E065DE6FEF70E080E090E060CE56
:100BE0000BD41F920F920FB60F9211240BB60F92D7
:100BF0002F933F934F935F936F937F938F939F9325
:100C0000AF93BF93EF93FF9383E392E076DCFF9182
:100C1000EF91BF91AF919F918F917F916F915F9174
:100C20004F913F912F910F900BBE0F900FBE0F90E1
:100C30001F9018951F920F920FB60F9211240BB6AA
:100C40000F922F933F934F935F936F937F938F9365
:100C50009F93AF93BF93EF93FF9383E392E0F4DB13
:100C6000FF91EF91BF91AF919F918F917F916F9184
:100C70005F914F913F912F910F900BBE0F900FBE40
:100C80000F901F9018951F920F920FB60F9211247C
:100C90000BB60F922F933F934F935F936F937F9376
:100CA0008F939F93AF93BF93EF93FF9380ED92E069
:100CB00024DCFF91EF91BF91AF919F918F917F9134
:100CC0006F915F914F913F912F910F900BBE0F90BD
:100CD0000FBE0F901F9018951F920F920FB60F9294
:100CE00011240BB60F922F933F934F935F936F9303
:100CF0007F938F939F93AF93BF93EF93FF9380ED79
:100D000092E0A2DBFF91EF91BF91AF919F918F9104
:100D10007F916F915F914F913F912F910F900BBEFB
:100D20000F900FBE0F901F9018951F920F920FB645
:100D30000F9211242F933F938F939F93AF93BF9361
:100D400080912B0290912C02A0912D02B0912E0245
:100D500030912A0223E0230F2D3720F40196A11DA4
:100D6000B11D05C026E8230F0296A11DB11D2093D9
:100D70002A0280932B0290932C02A0932D02B09311
:100D80002E0280912F0290913002A0913102B091F9
:100D900032020196A11DB11D80932F029093300263
:100DA000A0933102B0933202BF91AF919F918F9186
:100DB0003F912F910F900FBE0F901F90189510929A
:100DC00036021092350248EE53E060E070E0409346
:100DD0003702509338026093390270933A0284E1EB
:100DE00092E0909334028093330225ED30E030930B
:100DF000400220933F0224ED30E0309342022093E2
:100E0000410220ED30E0309344022093430221ED73
:100E100030E0309346022093450222ED30E03093DB
:100E200048022093470226ED30E030934A02209397
:100E3000490210924C0210924D0210924E021092F2
:100E40004F021092D3021092D2024093D4025093D8
:100E5000D5026093D6027093D7029093D10280930B
:100E6000D0028DEC90E09093DD028093DC028CEC5C
:100E700090E09093DF028093DE0288EC90E0909304
:100E8000E1028093E00289EC90E09093E30280938A
:100E9000E2028AEC90E09093E5028093E4028EEC0B
:100EA00090E09093E7028093E6021092E90210929C
:100EB000EA021092EB021092EC021092DA03109206
:100EC000E0031092E7031092E8031092E9031092F6
:100ED000EA0381E08093E6038093E3031092E40346
:100EE00092E09093E5038093D90389E690E0909394
:100EF000DE038093DD0353D19093E2038093E103FB
:100F0000009761F029E6FC0111922A95E9F783E246
:100F100090E09093DC038093DB0308C01092DE0323
:100F20001092DD031092DC031092DB038DE08093BE
:100F3000DF038091DA03882329F061E08DE098DBFC
:100F40008DE0A9D9E5EDF1E0E491F0E0EE0FFF1FAF
:100F5000E255FE4F859194919093EC038093EB03BF
:100F6000E5E7F1E0E491E093ED0320E030E0A90152
:100F700060E070E086EC93E0F9DD20E030E0A9016C
:100F800060E070E083EB93E0F1DD20E030E0A90168
:100F900060E070E080EA93E0E9DD20E030E0A90164
:100FA00060E070E08DE693E0E1DD84E292E0909312
:100FB0006E0380936D0310929F0310929E03E0E8EE
:100FC000F3E01192119283E0EE39F807D1F7109215
:100FD0006F0310927003109271031092720380914C
:100FE000730390917403A0917503B091760380937D
:100FF000770390937803A0937903B0937A030895CD
:10100000789484B5826084BD84B5816084BD85B5E3
:10101000826085BD85B5816085BD80916E008160EF
:1010200080936E0010928100809181008260809395
:101030008100809181008160809381008091800097
:101040008160809380008091B10084608093B100C2
:101050008091B00081608093B000809191008260A7
:1010600080939100809191008160809391008091A4
:1010700090008160809390008091A10082608093B5
:10108000A1008091A10081608093A1008091A000C7
:1010900081608093A0008091210182608093210172
:1010A00080912101816080932101809120018160E4
:1010B0008093200180917A00846080937A008091EF
:1010C0007A00826080937A0080917A0081608093B8
:1010D0007A0080917A00806880937A001092C10033
:1010E0008091DF0387FD05C061E0C2DA8091DF03F4
:1010F000D2D881E08093DA038091E1039091E203FA
:10110000892B09F016DB81E08093D6038AE090E01A
:10111000A0E0B0E08093C8039093C903A093CA03F2
:10112000B093CB038091CC039091CD03A091CE03DB
:10113000B091CF030A96A11DB11D8093D003909367
:10114000D103A093D203B093D30381EE95E09093A3
:10115000D5038093D40386EC93E014D983EB93E01A
:1011600011D980EA93E00ED98DE693E051DC4DDA97
:10117000FBCF8091E1039091E203009709F0A4D0A6
:101180008091DF0387FD02C060E072CA0895EE0F10
:10119000FF1F881F8BBF0790F691E02D1994CF9306
:1011A000DF938230910510F482E090E0E091F0034B
:1011B000F091F10320E030E0C0E0D0E0309711F191
:1011C0004081518148175907C0F04817590761F409
:1011D00082819381209719F09B838A832BC09093FF
:1011E000F1038093F00326C02115310519F0421751
:1011F000530718F49A01BE01DF01EF010280F38169
:10120000E02DDCCF2115310509F1281B390B2430E5
:10121000310590F412968D919C911397611571058B
:1012200021F0FB019383828304C09093F1038093A8
:10123000F003FD01329644C0FD01E20FF31F8193DC
:101240009193225031092D933C933AC02091EE03A3
:101250003091EF03232B41F42091020230910302DD
:101260003093EF032093EE032091000230910102AE
:101270002115310541F42DB73EB74091040250913C
:101280000502241B350BE091EE03F091EF03E2170A
:10129000F307A0F42E1B3F0B2817390778F0AC0199
:1012A0004E5F5F4F2417350748F04E0F5F1F509376
:1012B000EF034093EE038193919302C0E0E0F0E0EE
:1012C000CF01DF91CF9108950F931F93CF93DF93B9
:1012D000009709F48CC0FC013297138212820091AE
:1012E000F0031091F1030115110581F42081318182
:1012F000820F931F2091EE033091EF0328173907D7
:1013000079F5F093EF03E093EE0371C0D80140E06C
:1013100050E0AE17BF0750F412962D913C911397F1
:10132000AD012115310509F1D901F3CF9D01DA0194
:101330003383228360817181860F971F8217930701
:1013400069F4EC0128813981260F371F2E5F3F4F4A
:10135000318320838A819B8193838283452B29F467
:10136000F093F103E093F00342C01396FC93EE93E5
:101370001297ED01499159919E01240F351FE217F3
:10138000F30771F480819181840F951F0296119665
:101390009C938E938281938113969C938E93129744
:1013A000E0E0F0E0D80112968D919C9113970097A0
:1013B00019F0F8018C01F6CF8D919C9198012E5F68
:1013C0003F4F820F931F2091EE033091EF032817B8
:1013D000390769F4309729F41092F1031092F00361
:1013E00002C0138212821093EF030093EE03DF9189
:1013F000CF911F910F91089581E090E0F89400C083
:1014000011E0C8E0D1E000E005C0802FFE01BFDEA2
:101410002196011DC930D10780E00807B1F7F89483
:02142000FFCFFC
:101422000000F2038000000000003901A3057D05E1
:10143200000000009E02F9015F023D025102E40237
:0A144200000000003901A3050805B1
:00000001FF
