:1000000008C1000037C1000035C1000033C1000045
:1000100031C100002FC100002DC100002BC1000024
:1000200029C1000027C1000025C1000023C1000034
:1000300021C100001FC100001DC100001BC1000044
:1000400019C1000017C1000015C1000013C1000054
:1000500011C100000FC100000DC1000047C7000022
:1000600009C10000B9C600008EC6000003C100002F
:1000700001C10000FFC00000FDC00000FBC0000087
:10008000F9C00000F7C00000F5C00000F3C0000098
:1000900051C6000026C60000EDC00000EBC0000005
:1000A000E9C00000E7C00000E5C00000E3C00000B8
:1000B000E1C00000DFC00000DDC00000DBC00000C8
:1000C000D9C00000D7C00000D5C00000E1C50000C5
:1000D000B6C50000CFC00000CDC00000CBC00000FE
:1000E000C9C000002D0830081F082308270867082A
:1000F000340838083E08420846084C08500854089E
:1001000067085A085E0862080000210024002700E2
:100110002A002D0030003300010100000401070116
:100120000A0100000A0B02090C0D0E080703040166
:1001300000000000000000000000000000000000BF
:10014000000000000000000000000000000012118C
:10015000100000000000000000000000000000008F
:10016000000000000000000001021020200808101C
:100170002040102040800201020108040201010217
:1001800004081020408080402010080402018004F0
:10019000020180402010080402010804020101024B
:1001A0000408102040800102040810204080000054
:1001B0002200250028002B002E003100340002010F
:1001C0000000050108010B010505050507050808E4
:1001D0000808020202020A0A0808040404040101D1
:1001E00001010101010103030303030303030407E6
:1001F00007070C0C0C0C0C0C0C0C0202020206067D
:100200000606060606060B0B0B0B0B0B0B0B1E0A4A
:10021000A10C11241FBECFEFD1E2DEBFCDBF00E0A5
:100220000CBF12E0A0E0B2E0E6EDFCE100E00BBFA5
:1002300002C007900D92AA3FB107D9F725E0AAEFB7
:10024000B2E001C01D92A03DB207E1F711E0C8E0A5
:10025000D1E000E006C021970109802FFE010E9435
:10026000B60CC730D10780E00807A9F70E946509DE
:100270000C945A0EC5CEFC0142835383648375836C
:1002800086819781A085B185480F591F6A1F7B1F02
:1002900042875387648775870895DC01ED91FC914F
:1002A0000190F081E02D1994CF92DF92EF92FF92AE
:1002B0000F931F93CF93DF936C017A018B01C0E002
:1002C000D0E0CE15DF0589F0D8016D918D01D60102
:1002D000ED91FC910190F081E02DC6011995892BDB
:1002E00011F47E0102C02196ECCFC701DF91CF91BE
:1002F0001F910F91FF90EF90DF90CF900895FC0138
:10030000A089B1898C91A689B78982FD0FC09C9183
:10031000818D8F5F8F73228D821749F0218DDF01D0
:10032000A20FB11D5D969C93818F08958C910895C5
:10033000FC01918D828D981761F0828DDF01A80FED
:10034000B11D5D968C91928D9F5F9F73928F90E00F
:1003500008958FEF9FEF0895FC01918D828D98177E
:1003600031F0828DE80FF11D858D90E008958FEFBB
:100370009FEF0895FC01918D228D892F90E0805C84
:100380009F4F821B91098F739927089583E093E013
:10039000F1DF21E0892B09F420E0822F089580EA23
:1003A00093E0E8DF21E0892B09F420E0822F089513
:1003B0008FEF94E0DFDF21E0892B09F420E0822F2A
:1003C0000895FC01848DDF01A80FB11DA35ABF4F12
:1003D0002C91848D90E001968F739927848FA68944
:1003E000B7892C93A089B1898C9180648C93938D6B
:1003F000848D981306C00288F389E02D80818F7D5B
:1004000080830895EF92FF920F931F93CF93DF9312
:10041000EC0181E0888F9B8D8C8D981305C0E88955
:10042000F989808185FD23C0F62E0B8D10E00F5FCA
:100430001F4F0F731127E02E8C8DE8120BC00FB6E3
:1004400007FCFACFE889F989808185FFF5CFCE01D5
:10045000B8DFF2CF8B8DFE01E80FF11DE35AFF4F9D
:10046000F0820B8FEA89FB898081806207C0EE8968
:10047000FF896083E889F98980818064808381E0D5
:1004800090E0DF91CF911F910F91FF90EF90089531
:10049000CF93DF93EC01888D8823C1F0EA89FB8933
:1004A000808185FD05C0A889B9898C9186FD0EC023
:1004B0000FB607FCF5CF808185FFF2CFA889B989F7
:1004C0008C9185FFEDCFCE017CDFE8CFDF91CF911E
:1004D000089580E090E0892B19F06ADF81111BC03C
:1004E00080E090E0892B19F05ADF811117C080E07D
:1004F00090E0892B19F04ADF811113C080E090E071
:10050000892BA1F080E090E0892B81F00E9400000F
:1005100081110AC008950E940000E2CF0E940000ED
:10052000E6CF0E940000EACF0C9400000895CB01B2
:1005300008957F928F929F92AF92BF92CF92DF9257
:10054000EF92FF920F931F93CF93DF93EC0149013A
:100550005A018B01C12CD12C7601C814D904EA04AC
:10056000FB0484F5F80171908F018F8580FF0BC02B
:10057000E881F9810084F185E02D20E144E060E02C
:1005800070E0CE011995EB85FC858D859E85E81779
:10059000F90738F470828B859C8501969C878B8740
:1005A0000BC0E881F981672D70E0028CF38DE02D9E
:1005B000CE011995019649F02FEFC21AD20AE20A2C
:1005C000F20ACBCFB401C50102C0B601C701DF9169
:1005D000CF911F910F91FF90EF90DF90CF90BF9040
:1005E000AF909F908F907F900895CF93DF93EC0111
:1005F000E881F9810288F389E02D19958F3F2FEF6B
:10060000920731F02D813E812F5F3F4F3E832D8336
:10061000DF91CF9108958FEF9FEF089560E070E034
:10062000CB01089580E090E008950F931F93CF933E
:10063000DF938C01EB016F3F8FEF780719F480E0B7
:1006400090E00DC06A3029F46DE0F801808991894D
:1006500024DE6C2FF801808991891FDECE01DF91A5
:10066000CF911F910F9108958F929F92BF92CF9239
:10067000DF92EF92FF920F931F93CF93DF9300D0FF
:100680001F92CDB7DEB78C014B01C12CD12C760166
:10069000C216D306E406F50634F5F401B1904F0115
:1006A000FAE0BF120DC06DE0F801808991892983BD
:1006B0003A834B835C83F1DD5C814B813A812981F4
:1006C0006B2DF8018089918929833A834B835C8360
:1006D000E4DDFFEFCF1ADF0AEF0AFF0A5C814B81EE
:1006E0003A812981D5CFCA01B9010F900F900F909F
:1006F0000F90DF91CF911F910F91FF90EF90DF90BE
:10070000CF90BF909F908F900895CB010895CF9385
:10071000DF93EC0188899989DC01ED91FC910480DB
:10072000F581E02D1995892BA9F388899989DC0138
:10073000ED91FC910680F781E02DDF91CF91199426
:10074000CF93DF93EC0188899989DC01ED91FC91CD
:100750000480F581E02D1995892BA9F38889998961
:10076000DC01ED91FC910084F185E02DDF91CF91CA
:100770001994AF92BF92CF92DF92EF92FF920F93B4
:100780001F93CF93DF9300D01F92CDB7DEB78C01BC
:100790005B01C12CD12C7601F80180899189DC01A3
:1007A000ED91FC910680F781E02D29833A834B83FC
:1007B0005C83199529813A814B815C818F3F71F06F
:1007C000C216D306E406F5064CF4D5018D935D01FF
:1007D000BFEFCB1ADB0AEB0AFB0ADECFC701B6017B
:1007E0000F900F900F900F90DF91CF911F910F916D
:1007F000FF90EF90DF90CF90BF90AF900895DC0115
:1008000050968D919C915197DC01ED91FC91048063
:10081000F581E02D199480E090E0089580E090E06B
:10082000089580E090E0089580E090E008950895B4
:10083000CF93DF93C091CF04D091D004E881F981A8
:100840000480F581E02DCE011995892BB9F3E8815B
:10085000F9810680F781E02DCE01DF91CF911994C7
:100860001F93CF93DF93182FC091CF04D091D00462
:100870008A3041F4E881F9810190F081E02D6DE04A
:10088000CE011995E881F9810190F081E02D612F69
:10089000CE01199521E030E0019711F420E030E01D
:1008A000C901DF91CF911F9108958F929F92AF92CE
:1008B000BF92CF92DF92EF92FF920F931F93CF934D
:1008C000DF93EC01EE85FF85309709F019958FB71E
:1008D000F8948090FB029090FC02A090FD02B090F2
:1008E000FE028FBF8E016E012EE1C20ED11CE12CE3
:1008F000F12C89A99AA98E159F0524F1D801539648
:100900008D919C9154970097C1F0BFEFEB1AFB0AB1
:10091000DC01ED91FC910280F381E02DB501A40191
:100920001995882351F0F80183899489DC01ED91B0
:10093000FC910480F581E02D19950E5F1F4F0C1579
:100940001D05B9F62FB7F8948091FB029091FC0237
:10095000A091FD02B091FE022FBF8E839F83A887D6
:10096000B9874A815B816C817D81840F951FA61FA9
:10097000B71F8A879B87AC87BD87DF91CF911F9177
:100980000F91FF90EF90DF90CF90BF90AF909F902E
:100990008F900895CF93DF93EC01EE85FF8530971C
:1009A00009F019952FB7F8948091FB029091FC0201
:1009B000A091FD02B091FE022FBF8E839F83A88776
:1009C000B9874A815B816C817D81840F951FA61F49
:1009D000B71F8A879B87AC87BD87DF91CF9108952A
:1009E0000F931F93FC010285138524853585401BD9
:1009F000510B620B730B77FD02C0808901C080E050
:100A00001F910F9108954F925F926F927F928F92F4
:100A10009F92AF92BF92EF92FF920F931F93CF934B
:100A2000DF9300E010E0E12CF12CC0E0D0E08091F9
:100A3000AB049091AC04C817D90708F061C02091AD
:100A4000BE048091BF0490E0A0E0B0E0BA2FA92FCF
:100A5000982F8827A22B2091C004822B2D01662479
:100A60007724892E9A2EAB2EBB24482D382F209127
:100A7000B004222391F0622F70E0649DA001659D77
:100A8000500D749D500D1124452E829E400111245D
:100A9000492D829FC0011124392F2091B604509115
:100AA000B3048091B1049091B204251303C08E0D5C
:100AB0009F1D06C0800F911FFC01E20FF11D1082E7
:100AC0002091B304FC01E20FF11D40822091B40497
:100AD000FC01E20FF11D40832091B504FC01E20FFF
:100AE000F11D30838091B1049091B204892B09F0FB
:100AF000FED2219683E0E80EF11C0C5F1F4F97CFCA
:100B0000DF91CF911F910F91FF90EF90BF90AF9029
:100B10009F908F907F906F905F904F9008952ED709
:100B20000C94BB0D089508950C94BB0DDC01ED9160
:100B3000FC91369720813181820F931FF5CFFB0105
:100B400020813181FC0131832083FB01428153816B
:100B5000F901369720813181FC01E20FF31F5183A7
:100B60004083089522E632E0FC01318320832CE6A5
:100B700032E0318F208F62E772E0E1CFDC01ED914E
:100B8000FC91369720813181820F931FEBCFCF9359
:100B9000DF93EC01E7DFCE01DF91CF91ECC7DC0101
:100BA000ED91FC91369720813181820F931FEFCF19
:100BB000E2C708950895DFC7DC01ED91FC913697F7
:100BC00020813181820F931FF6CFFB01208131817B
:100BD000FC0131832083FB0142815381F901369767
:100BE00020813181FC01E20FF31F5183408308957E
:100BF0002AED32E0FC013183208324EE32E0358B94
:100C0000248B6AEE72E0E1CFDC01ED91FC91369726
:100C100020813181820F931FEBCFCF93DF93EC01C3
:100C2000E7DFCE01DF91CF91A6C7DC01ED91FC910A
:100C3000369720813181820F931FEFCF9CC71F927F
:100C40000F920FB60F9211240BB60F922F933F9372
:100C50004F935F936F937F938F939F93AF93BF93C4
:100C6000EF93FF9383E093E0ACDBFF91EF91BF91B3
:100C7000AF919F918F917F916F915F914F913F9134
:100C80002F910F900BBE0F900FBE0F901F901895D5
:100C90001F920F920FB60F9211240BB60F922F9343
:100CA0003F934F935F936F937F938F939F93AF93F4
:100CB000BF93EF93FF9383E093E021DBFF91EF91EC
:100CC000BF91AF919F918F917F916F915F914F9164
:100CD0003F912F910F900BBE0F900FBE0F901F9062
:100CE00018951F920F920FB60F9211240BB60F9208
:100CF0002F933F934F935F936F937F938F939F9324
:100D0000AF93BF93EF93FF9380EA93E05ADBFF9199
:100D1000EF91BF91AF919F918F917F916F915F9173
:100D20004F913F912F910F900BBE0F900FBE0F90E0
:100D30001F9018951F920F920FB60F9211240BB6A9
:100D40000F922F933F934F935F936F937F938F9364
:100D50009F93AF93BF93EF93FF9380EA93E0CFDA33
:100D6000FF91EF91BF91AF919F918F917F916F9183
:100D70005F914F913F912F910F900BBE0F900FBE3F
:100D80000F901F9018951F920F920FB60F9211247B
:100D90000BB60F922F933F934F935F936F937F9375
:100DA0008F939F93AF93BF93EF93FF938FEF94E055
:100DB00008DBFF91EF91BF91AF919F918F917F9150
:100DC0006F915F914F913F912F910F900BBE0F90BC
:100DD0000FBE0F901F9018951F920F920FB60F9293
:100DE00011240BB60F922F933F934F935F936F9302
:100DF0007F938F939F93AF93BF93EF93FF938FEF67
:100E000094E07DDAFF91EF91BF91AF919F918F9127
:100E10007F916F915F914F913F912F910F900BBEFA
:100E20000F900FBE0F901F901895CF93DF9390E017
:100E3000FC01E859FE4F2491FC01E853FE4F8491D8
:100E4000882361F190E0880F991FFC01E85FFE4F55
:100E5000C591D491FC01E255FE4FA591B491611169
:100E600009C09FB7F8948881209582238883EC91EC
:100E70002E230BC0623061F49FB7F8943881822F23
:100E8000809583238883EC912E2B2C939FBF06C0E3
:100E90008FB7F894E8812E2B28838FBFDF91CF91F5
:100EA00008953FB7F8948091FF0290910003A091BC
:100EB0000103B091020326B5A89B05C02F3F19F08E
:100EC0000196A11DB11D3FBFBA2FA92F982F8827CA
:100ED000820F911DA11DB11DBC01CD0142E0660F25
:100EE000771F881F991F4A95D1F708951F920F9277
:100EF0000FB60F9211242F933F938F939F93AF932D
:100F0000BF938091FB029091FC02A091FD02B091F1
:100F1000FE023091FA0223E0230F2D3720F40196D0
:100F2000A11DB11D05C026E8230F0296A11DB11D0C
:100F30002093FA028093FB029093FC02A093FD029F
:100F4000B093FE028091FF0290910003A0910103F3
:100F5000B09102030196A11DB11D8093FF029093F1
:100F60000003A0930103B0930203BF91AF919F913F
:100F70008F913F912F910F900FBE0F901F9018955A
:100F8000CF93DF93EC0188859985009709F0F3D51D
:100F90008E8187FD04C060E0DF91CF9146CFDF9165
:100FA000CF910895089508950895FC018AE092E094
:100FB0009183808381E0808B778766871286138692
:100FC000148615866FB7F8948091FB029091FC020D
:100FD000A091FD02B091FE026FBF86839783A08728
:100FE000B187F28BE18B2283338344835583820F55
:100FF000931FA41FB51F82879387A487B587089581
:1010000090E0FC01EE5DFE4F4491FC01E859FE4F7B
:101010002491FC01E853FE4F9491992309F466C092
:10102000442309F454C050E0FA013197E231F1054C
:1010300008F04DC08827EE58FF4F8F4F97C480911E
:1010400080008F7707C0809180008F7D03C08091E2
:101050008000877F809380003AC084B58F7702C07C
:1010600084B58F7D84BD33C08091B0008F7703C07D
:101070008091B0008F7D8093B00029C08091900056
:101080008F7707C0809190008F7D03C08091900082
:10109000877F809390001BC08091A0008F7707C04E
:1010A0008091A0008F7D03C08091A000877F8093F6
:1010B000A0000DC0809120018F7707C08091200192
:1010C0008F7D03C080912001877F80932001E92FCD
:1010D000F0E0EE0FFF1FE255FE4FA591B4918FB7E0
:1010E000F894EC9120952E232C938FBF08950F93A5
:1010F0001F93CF93DF93CDB7DEB729970FB6F89440
:10110000DEBF0FBECDBFCDDE0091B7041091B80495
:101110002091B9043091BA04DC01CB01801B910B02
:10112000A20BB30B8C329140A105B10560F3F8948A
:101130008091AD049091AE049A838983E091B104CB
:10114000F091B204DF011196808189879091A90402
:10115000E091BB04F091BC048091BD04992309F493
:101160002EC09081982B98879081809589238F83BA
:101170008F818C8388E08B8358856F8149853B8183
:101180002C8189819A81508347FD252F3A952083B0
:10119000262F39F0441F00C000006083000000C00B
:1011A000F2CF38E04D9160830000019761F7F09332
:1011B000BC04E093BB0449873B832C8338C09081F7
:1011C000982B98879081809589238F838F818E8338
:1011D00088E08D8358856F8149853D812E81898185
:1011E0009A81508347FD252F00C000C0208300C096
:1011F00000C000C000C000C060830000262F3A95E8
:1012000041F0441F000000C000C000C000C000C08A
:10121000E8CF38E04D9100C0608300C0019709F726
:10122000F093BC04E093BB0449873D832E839A83EB
:101230008983789436DE6093B7047093B804809302
:10124000B9049093BA0429960FB6F894DEBF0FBE86
:10125000CDBFDF91CF911F910F910895CF93DF9371
:10126000A0E5B4E0FD01C191D191209741F04989F9
:101270005A89EC0129893A894217530711F1D4E0C0
:10128000EE36FD0781F720E030E04D915D91452B72
:1012900089F4220F331FF901E35CFB4F948B838B9E
:1012A00080916E0490916F04019690936F048093E7
:1012B0006E0407C02F5F3F4F2F30310531F780E0BC
:1012C00001C081E0DF91CF910895789484B5826068
:1012D00084BD84B5816084BD85B5826085BD85B5DA
:1012E000816085BD80916E00816080936E00109258
:1012F00081008091810082608093810080918100D3
:101300008160809381008091800081608093800063
:101310008091B10084608093B1008091B0008160C1
:101320008093B000809191008260809391008091C1
:101330009100816080939100809190008160809302
:1013400090008091A10082608093A1008091A10013
:1013500081608093A1008091A00081608093A000B3
:10136000809121018260809321018091210181601F
:1013700080932101809120018160809320018091E0
:101380007A00846080937A0080917A0082608093F2
:101390007A0080917A00816080937A0080917A004F
:1013A000806880937A001092C1008091AF0487FD1D
:1013B00005C061E03ADD8091AF0422DE81E08093D8
:1013C000AA048091B1049091B204892B09F08FDEB8
:1013D00081E08093A6048AE090E0A0E0B0E08093F2
:1013E000980490939904A0939A04B0939B048091DD
:1013F0009C0490919D04A0919E04B0919F040A9634
:10140000A11DB11D8093A0049093A104A093A204F8
:10141000B093A30483E095E09093A5048093A40483
:1014200086E994E01BDF83E894E018DF80E794E02E
:1014300015DF8DE394E039DA4CD8FBCFCF92DF9201
:10144000EF92FF920F931F93CF93DF93CDB7DEB749
:1014500065970FB6F894DEBF0FBECDBF109206039E
:101460001092050348EE53E060E070E040930703FC
:10147000509308036093090370930A032CE332E04E
:10148000309304032093030385ED90E090931003C1
:1014900080930F0384ED90E09093120380931103E7
:1014A00080ED90E0909314038093130381ED90E01E
:1014B000909316038093150382ED90E090931803A8
:1014C0008093170386ED90E090931A03809319039D
:1014D00010921C0310921D0310921E0310921F0302
:1014E0001092A3031092A2034093A4035093A50368
:1014F0006093A6037093A7033093A1032093A003E6
:101500008DEC90E09093AD038093AC038CEC90E075
:101510009093AF038093AE0388EC90E09093B10377
:101520008093B00389EC90E09093B3038093B2036F
:101530008AEC90E09093B5038093B4038EEC90E036
:101540009093B7038093B6031092B9031092BA0335
:101550001092BB031092BC038FEF94E0109202052F
:10156000109201054093030550930405609305050F
:1015700070930605309300052093FF0425EC30E0BE
:1015800030930C0520930B0524EC30E030930E05CE
:1015900020930D0520EC30E03093100520930F05CB
:1015A00021EC30E0309312052093110522EC30E05D
:1015B000309314052093130526EC30E03093160584
:1015C00020931505109218051092190510921A050E
:1015D00010921B0561E270E07093B4056093B3054F
:1015E0001092B5051092B6051092B70526E0C22EEE
:1015F000D12CE12CF12CC092B805D092B905E09223
:10160000BA05F092BB051092BC051092BD05109270
:10161000BE051092BF0540E24093C0051092C2057E
:101620001092C1051092C5052EE935E03093C4052E
:101630002093C3052AED32E030939D0520939C054D
:1016400024EE32E03093B1052093B0051092A2054C
:101650001092A1051092A4051092A3051092A60560
:101660001092A5051092A8051092A7051092AA0540
:101670001092A9051092AC051092AB0528EB32E050
:1016800030939F0520939E059093AF058093AE0500
:1016900050E15093AD057093ED046093EC0410920B
:1016A000EE041092EF041092F004C092F104D09274
:1016B000F204E092F304F092F4041092F504109214
:1016C000F6041092F7041092F8044093F904109273
:1016D000FB041092FA041092FE041092D3041092AC
:1016E000D4041092D5041092D60447ED54E05093E0
:1016F000FD044093FC0442E652E05093D204409330
:10170000D1044CE652E05093EA044093E90410926D
:10171000DB041092DA041092DD041092DC041092C3
:10172000DF041092DE041092E1041092E0041092A3
:10173000E3041092E2041092E5041092E404309362
:10174000D8042093D7049093E8048093E70428E01A
:101750002093E6049093D0048093CF0468E174E072
:1017600080E394E00FD1E1ECF4E08EE0DF011D9224
:101770008A95E9F708E010E01093C4040093C304CD
:1017800080E190E063D19093C2048093C1041093F0
:10179000CB040093CA0480E190E058D19093C9042F
:1017A0008093C80481E08093A9041092AA04109247
:1017B000AC041092AB041092AE041092AD049FEFF3
:1017C0009093AF041092B0041092B2041092B1043E
:1017D0008093B3041092B40492E09093B504809384
:1017E000B6041092B7041092B8041092B904109283
:1017F000BA041A8218861F86188A198A1A8A8E874E
:101800008B871C869D87898389E690E09E838D83E4
:101810001DD19A878987009751F029E6FC01119222
:101820002A95E9F783E290E09C838B8304C01E82B3
:101830001D821C821B828DE08F838A81882329F080
:1018400061E08DE0F2DA8DE0DBDBE5EDF1E0E491E3
:10185000F0E0EE0FFF1FE255FE4F859194919C8BB7
:101860008B8BE5E7F1E0E491ED8B85E1FE013196AC
:10187000A9EAB4E001900D928A95E1F7CE010196B4
:101880007FDB8FEF8093BE048093BF048093C004FE
:1018900020E030E0A90160E070E086E994E085DBBB
:1018A00020E030E0A90160E070E083E894E07DDBB7
:1018B00020E030E0A90160E070E080E794E075DBB3
:1018C00020E030E0A90160E070E08DE394E06DDBA2
:1018D00084EF92E090933E0480933D0410926F0455
:1018E00010926E04E0E5F4E01192119284E0EE367D
:1018F000F807D1F710923F0410924004109241046F
:10190000109242048091430490914404A0914504B4
:10191000B09146048093470490934804A0934904EF
:10192000B0934A0465960FB6F894DEBF0FBECDBFE4
:10193000DF91CF911F910F91FF90EF90DF90CF90AB
:101940000895CF93DF9389EA94E01ADBC1ECD4E0E9
:101950008F81988510D1888199810DD181ED94E096
:1019600001D98CE995E0DF91CF9142C9EE0FFF1FBD
:10197000881F8BBF0790F691E02D199481E090E0CD
:10198000F89498C10F931F93CF93DF93009731F48E
:101990006115710519F480E090E039C08B01EC010C
:1019A0006EE070E081E090E037D0FC01892B99F384
:1019B00080E883830115110571F01387028781E8A0
:1019C00083838091C6059091C705892B21F4F093FC
:1019D000C705E093C6052097C9F0D187C0878381EA
:1019E000826083838091C8059091C905892B71F429
:1019F000F093C905E093C8058091CA059091CB0585
:101A0000892B21F4F093CB05E093CA05CF01DF9138
:101A1000CF911F910F9108950F931F93CF93DF9351
:101A2000869F8001879F100D969F100D1124C8017D
:101A30000DD0EC01009721F0A80160E070E033D1F7
:101A4000CE01DF91CF911F910F910895CF93DF9336
:101A50008230910510F482E090E0E091CE05F091A3
:101A6000CF0520E030E0C0E0D0E0309711F14081B8
:101A7000518148175907C0F04817590761F482810E
:101A80009381209719F09B838A832BC09093CF0575
:101A90008093CE0526C02115310519F04217530752
:101AA00018F49A01BE01DF01EF010280F381E02DFD
:101AB000DCCF2115310509F1281B390B2430310504
:101AC00090F412968D919C9113976115710521F0F8
:101AD000FB019383828304C09093CF058093CE054E
:101AE000FD01329644C0FD01E20FF31F81939193F3
:101AF000225031092D933C933AC02091CC0530916E
:101B0000CD05232B41F42091020230910302309342
:101B1000CD052093CC0520910002309101022115C2
:101B2000310541F42DB73EB74091040250910502B2
:101B3000241B350BE091CC05F091CD05E217F3079E
:101B4000A0F42E1B3F0B2817390778F0AC014E5F2D
:101B50005F4F2417350748F04E0F5F1F5093CD0598
:101B60004093CC058193919302C0E0E0F0E0CF0177
:101B7000DF91CF9108950F931F93CF93DF93009739
:101B800009F48CC0FC013297138212820091CE05B9
:101B90001091CF050115110581F420813181820F4B
:101BA000931F2091CC053091CD052817390779F581
:101BB000F093CD05E093CC0571C0D80140E050E032
:101BC000AE17BF0750F412962D913C911397AD01BB
:101BD0002115310509F1D901F3CF9D01DA013383D4
:101BE000228360817181860F971F8217930769F4A2
:101BF000EC0128813981260F371F2E5F3F4F31833B
:101C000020838A819B8193838283452B29F4F093DF
:101C1000CF05E093CE0542C01396FC93EE93129746
:101C2000ED01499159919E01240F351FE217F307E9
:101C300071F480819181840F951F029611969C9377
:101C40008E938281938113969C938E931297E0E0FA
:101C5000F0E0D80112968D919C911397009719F09E
:101C6000F8018C01F6CF8D919C9198012E5F3F4F2A
:101C7000820F931F2091CC053091CD05281739078D
:101C800069F4309729F41092CF051092CE0502C066
:101C9000138212821093CD050093CC05DF91CF9172
:101CA0001F910F910895DC0101C06D934150504088
:101CB000E0F7089511E0C8E0D1E000E005C0802F12
:101CC000FE0154DE2196011DC930D10780E00807CE
:061CD000B1F7F894FFCF0C
:101CD6000000D0058000000000003B01F004CA04AB
:101CE60018000000000000000000E8FFE8FF000008
:101CF6000000000014000000000000000000ECFFDF
:101D0600ECFF000000000000000000000202540189
:101D1600BA019801AC0148020600000000009205D5
:101D26009405FAFFFAFF00009305960518000000D7
:101D36000000B205C705E8FFE8FF0000BE05CF05B5
:101D46006202160220026C0200000000D207900513
:101D56001704140411040E040B0412030E030B03E0
:101D6600F502850399029702020000000000D905DA
:101D7600DB05FEFFFEFF0000DA05DC0500000000C3
:101D8600D4071E0600000000D307D8051704140464
:101D960011040E040B04FF03B903A0038703850394
:101DA60034031503140000000000F8050D06ECFFCF
:101DB600ECFF000004061506DA022A023402E402E9
:0A1DC600000000003B01F00455048A
:00000001FF
