:1000000008C1000037C1000035C1000033C1000045
:1000100031C100002FC100002DC100002BC1000024
:1000200029C1000027C1000025C1000023C1000034
:1000300021C100001FC100001DC100001BC1000044
:1000400019C1000017C1000015C1000013C1000054
:1000500011C100000FC100000DC10000ADC70000BC
:1000600009C100001FC70000F4C6000003C1000062
:1000700001C10000FFC00000FDC00000FBC0000087
:10008000F9C00000F7C00000F5C00000F3C0000098
:10009000B7C600008CC60000EDC00000EBC0000039
:1000A000E9C00000E7C00000E5C00000E3C00000B8
:1000B000E1C00000DFC00000DDC00000DBC00000C8
:1000C000D9C00000D7C00000D5C0000047C600005E
:1000D0001CC60000CFC00000CDC00000CBC0000097
:1000E000C9C00000BA08BD08AC08B008B408F408DC
:1000F000C108C508CB08CF08D308D908DD08E10836
:10010000F408E708EB08EF080000210024002700AE
:100110002A002D0030003300010100000401070116
:100120000A0100000A0B02090C0D0E080703040166
:1001300000000000000000000000000000000000BF
:10014000000000000000000000000000000012118C
:10015000100000000000000000000000000000008F
:10016000000000000000000001021020200808101C
:100170002040102040800201020108040201010217
:1001800004081020408080402010080402018004F0
:10019000020180402010080402010804020101024B
:1001A0000408102040800102040810204080000054
:1001B0002200250028002B002E003100340002010F
:1001C0000000050108010B010505050507050808E4
:1001D0000808020202020A0A0808040404040101D1
:1001E00001010101010103030303030303030407E6
:1001F00007070C0C0C0C0C0C0C0C0202020206067D
:100200000606060606060B0B0B0B0B0B0B0B200C46
:10021000110C11241FBECFEFD1E2DEBFCDBF00E035
:100220000CBF13E0A0E0B2E0E4EBF2E200E00BBFB1
:1002300002C007900D92A030B107D9F725E0A0E0E9
:10024000B3E001C01D92A63DB207E1F711E0C8E09E
:10025000D1E000E006C021970109802FFE010E9435
:10026000A30EC730D10780E00807A9F70E94F20962
:100270000C944911C5CEFC0142835383648375837A
:1002800086819781A085B185480F591F6A1F7B1F02
:1002900042875387648775870895DC01ED91FC914F
:1002A0000190F081E02D1994CF92DF92EF92FF92AE
:1002B0000F931F93CF93DF936C017A018B01C0E002
:1002C000D0E0CE15DF0589F0D8016D918D01D60102
:1002D000ED91FC910190F081E02DC6011995892BDB
:1002E00011F47E0102C02196ECCFC701DF91CF91BE
:1002F0001F910F91FF90EF90DF90CF900895FC0138
:10030000A089B1898C91A689B78982FD0FC09C9183
:10031000818D8F5F8F73228D821749F0218DDF01D0
:10032000A20FB11D5D969C93818F08958C910895C5
:10033000FC01918D828D981761F0828DDF01A80FED
:10034000B11D5D968C91928D9F5F9F73928F90E00F
:1003500008958FEF9FEF0895FC01918D828D98177E
:1003600031F0828DE80FF11D858D90E008958FEFBB
:100370009FEF0895FC01918D228D892F90E0805C84
:100380009F4F821B91098F739927089589E093E00D
:10039000F1DF21E0892B09F420E0822F089586EA1D
:1003A00093E0E8DF21E0892B09F420E0822F089513
:1003B00087ED94E0DFDF21E0892B09F420E0822F34
:1003C0000895FC01848DDF01A80FB11DA35ABF4F12
:1003D0002C91848D90E001968F739927848FA68944
:1003E000B7892C93A089B1898C9180648C93938D6B
:1003F000848D981306C00288F389E02D80818F7D5B
:1004000080830895EF92FF920F931F93CF93DF9312
:10041000EC0181E0888F9B8D8C8D981305C0E88955
:10042000F989808185FD23C0F62E0B8D10E00F5FCA
:100430001F4F0F731127E02E8C8DE8120BC00FB6E3
:1004400007FCFACFE889F989808185FFF5CFCE01D5
:10045000B8DFF2CF8B8DFE01E80FF11DE35AFF4F9D
:10046000F0820B8FEA89FB898081806207C0EE8968
:10047000FF896083E889F98980818064808381E0D5
:1004800090E0DF91CF911F910F91FF90EF90089531
:10049000CF93DF93EC01888D8823C1F0EA89FB8933
:1004A000808185FD05C0A889B9898C9186FD0EC023
:1004B0000FB607FCF5CF808185FFF2CFA889B989F7
:1004C0008C9185FFEDCFCE017CDFE8CFDF91CF911E
:1004D000089580E090E0892B19F06ADF81111BC03C
:1004E00080E090E0892B19F05ADF811117C080E07D
:1004F00090E0892B19F04ADF811113C080E090E071
:10050000892BA1F080E090E0892B81F00E9400000F
:1005100081110AC008950E940000E2CF0E940000ED
:10052000E6CF0E940000EACF0C9400000895CB01B2
:1005300008957F928F929F92AF92BF92CF92DF9257
:10054000EF92FF920F931F93CF93DF93EC0149013A
:100550005A018B01C12CD12C7601C814D904EA04AC
:10056000FB0484F5F80171908F018F8580FF0BC02B
:10057000E881F9810084F185E02D20E144E060E02C
:1005800070E0CE011995EB85FC858D859E85E81779
:10059000F90738F470828B859C8501969C878B8740
:1005A0000BC0E881F981672D70E0028CF38DE02D9E
:1005B000CE011995019649F02FEFC21AD20AE20A2C
:1005C000F20ACBCFB401C50102C0B601C701DF9169
:1005D000CF911F910F91FF90EF90DF90CF90BF9040
:1005E000AF909F908F907F900895CF93DF93EC0111
:1005F000E881F9810288F389E02D19958F3F2FEF6B
:10060000920731F02D813E812F5F3F4F3E832D8336
:10061000DF91CF9108958FEF9FEF089560E070E034
:10062000CB01089580E090E008950F931F93CF933E
:10063000DF938C01EB016F3F8FEF780719F480E0B7
:1006400090E00DC06A3029F46DE0F801808991894D
:1006500024DE6C2FF801808991891FDECE01DF91A5
:10066000CF911F910F9108958F929F92BF92CF9239
:10067000DF92EF92FF920F931F93CF93DF9300D0FF
:100680001F92CDB7DEB78C014B01C12CD12C760166
:10069000C216D306E406F50634F5F401B1904F0115
:1006A000FAE0BF120DC06DE0F801808991892983BD
:1006B0003A834B835C83F1DD5C814B813A812981F4
:1006C0006B2DF8018089918929833A834B835C8360
:1006D000E4DDFFEFCF1ADF0AEF0AFF0A5C814B81EE
:1006E0003A812981D5CFCA01B9010F900F900F909F
:1006F0000F90DF91CF911F910F91FF90EF90DF90BE
:10070000CF90BF909F908F900895CB010895CF9385
:10071000DF93EC0188899989DC01ED91FC910480DB
:10072000F581E02D1995892BA9F388899989DC0138
:10073000ED91FC910680F781E02DDF91CF91199426
:10074000CF93DF93EC0188899989DC01ED91FC91CD
:100750000480F581E02D1995892BA9F38889998961
:10076000DC01ED91FC910084F185E02DDF91CF91CA
:100770001994AF92BF92CF92DF92EF92FF920F93B4
:100780001F93CF93DF9300D01F92CDB7DEB78C01BC
:100790005B01C12CD12C7601F80180899189DC01A3
:1007A000ED91FC910680F781E02D29833A834B83FC
:1007B0005C83199529813A814B815C818F3F71F06F
:1007C000C216D306E406F5064CF4D5018D935D01FF
:1007D000BFEFCB1ADB0AEB0AFB0ADECFC701B6017B
:1007E0000F900F900F900F90DF91CF911F910F916D
:1007F000FF90EF90DF90CF90BF90AF900895DC0115
:1008000050968D919C915197DC01ED91FC91048063
:10081000F581E02D199480E090E0089580E090E06B
:10082000089580E090E0089580E090E008950895B4
:10083000CF93DF93C091D504D091D604E881F9819C
:100840000480F581E02DCE011995892BB9F3E8815B
:10085000F9810680F781E02DCE01DF91CF911994C7
:100860001F93CF93DF93182FC091D504D091D60456
:100870008A3041F4E881F9810190F081E02D6DE04A
:10088000CE011995E881F9810190F081E02D612F69
:10089000CE01199521E030E0019711F420E030E01D
:1008A000C901DF91CF911F9108958F929F92AF92CE
:1008B000BF92CF92DF92EF92FF920F931F93CF934D
:1008C000DF93EC01EE85FF85309709F019958FB71E
:1008D000F8948090010390900203A0900303B090DD
:1008E00004038FBF8E016E012EE1C20ED11CE12CDC
:1008F000F12C89A99AA98E159F0524F1D801539648
:100900008D919C9154970097C1F0BFEFEB1AFB0AB1
:10091000DC01ED91FC910280F381E02DB501A40191
:100920001995882351F0F80183899489DC01ED91B0
:10093000FC910480F581E02D19950E5F1F4F0C1579
:100940001D05B9F62FB7F894809101039091020329
:10095000A0910303B09104032FBF8E839F83A887C8
:10096000B9874A815B816C817D81840F951FA61FA9
:10097000B71F8A879B87AC87BD87DF91CF911F9177
:100980000F91FF90EF90DF90CF90BF90AF909F902E
:100990008F900895CF93DF93EC01EE85FF8530971C
:1009A00009F019952FB7F8948091010390910203F3
:1009B000A0910303B09104032FBF8E839F83A88768
:1009C000B9874A815B816C817D81840F951FA61F49
:1009D000B71F8A879B87AC87BD87DF91CF9108952A
:1009E0000F931F93FC010285138524853585401BD9
:1009F000510B620B730B77FD02C0808901C080E050
:100A00001F910F9108950C94AA10089508950C94C5
:100A1000AA10DC01ED91FC91369720813181820F83
:100A2000931FF5CFFB0120813181FC0131832083AD
:100A3000FB0142815381F901369720813181FC010C
:100A4000E20FF31F51834083089522E632E0FC0158
:100A5000318320832CE632E0318F208F62E772E011
:100A6000E1CFDC01ED91FC91369720813181820F3D
:100A7000931FEBCFCF93DF93EC01E7DFCE01DF9144
:100A8000CF910C94AA10DC01ED91FC913697208156
:100A90003181820F931FEECF0C94AA100895089510
:100AA0000C94AA10DC01ED91FC91369720813181E4
:100AB000820F931FF5CFFB0120813181FC0131832F
:100AC0002083FB0142815381F901369720813181D6
:100AD000FC01E20FF31F5183408308952AED32E0B9
:100AE000FC013183208324EE32E0358B248B6AEEC7
:100AF00072E0E1CFDC01ED91FC91369720813181EC
:100B0000820F931FEBCFCF93DF93EC01E7DFCE0192
:100B1000DF91CF910C94AA10DC01ED91FC913697F6
:100B200020813181820F931FEECF0C94AA104F9237
:100B30005F926F927F928F929F92AF92BF92EF924D
:100B4000FF920F931F93CF93DF9300E010E0E12C0F
:100B5000F12CC0E0D0E08091B1049091B204C817AC
:100B6000D90708F061C02091C4048091C50490E0C9
:100B7000A0E0B0E0BA2FA92F982F8827A22B2091B0
:100B8000C604822B2D0166247724892E9A2EAB2E43
:100B9000BB24482D382F2091B604222391F0622FD8
:100BA00070E0649DA001659D500D749D500D112451
:100BB000452E829E40011124492D829FC00111249F
:100BC000392F2091BC045091B9048091B7049091C1
:100BD000B804251303C08E0D9F1D06C0800F911F02
:100BE000FC01E20FF11D10822091B904FC01E20F1B
:100BF000F11D40822091BA04FC01E20FF11D4083F7
:100C00002091BB04FC01E20FF11D30838091B704F9
:100C10009091B804892B09F0F7D2219683E0E80E71
:100C2000F11C0C5F1F4F97CFDF91CF911F910F9158
:100C3000FF90EF90BF90AF909F908F907F906F90BC
:100C40005F904F9008950E948F0FEF92FF920F9345
:100C50001F93CF93DF93EC017B018A0188819981F7
:100C6000009729F02A813B8124173507F8F4B80151
:100C70006F5F7F4F0E94AB0E009759F09983888376
:100C80001B830A832C813D81232B81F4FC0110827C
:100C90000DC088819981009711F00E94AA101982D5
:100CA00018821D821C821B821A8207C01D830C833E
:100CB000B701888199810E949C0FCE01DF91CF916D
:100CC0001F910F91FF90EF900895CF93DF93EC0168
:100CD000FB0186179707A9F0608171816115710585
:100CE00021F044815581B1DF0CC088819981009742
:100CF00011F00E94AA10198218821D821C821B8288
:100D00001A82CE01DF91CF9108951F920F920FB6F4
:100D10000F9211240BB60F922F933F934F935F9333
:100D20006F937F938F939F93AF93BF93EF93FF93B3
:100D300089E093E046DBFF91EF91BF91AF919F91E6
:100D40008F917F916F915F914F913F912F910F9074
:100D50000BBE0F900FBE0F901F9018951F920F9211
:100D60000FB60F9211240BB60F922F933F934F9310
:100D70005F936F937F938F939F93AF93BF93EF9303
:100D8000FF9389E093E0BBDAFF91EF91BF91AF91C0
:100D90009F918F917F916F915F914F913F912F9193
:100DA0000F900BBE0F900FBE0F901F9018951F92C3
:100DB0000F920FB60F9211240BB60F922F933F9301
:100DC0004F935F936F937F938F939F93AF93BF9353
:100DD000EF93FF9386EA93E0F4DAFF91EF91BF91EE
:100DE000AF919F918F917F916F915F914F913F91C3
:100DF0002F910F900BBE0F900FBE0F901F90189564
:100E00001F920F920FB60F9211240BB60F922F93D1
:100E10003F934F935F936F937F938F939F93AF9382
:100E2000BF93EF93FF9386EA93E069DAFF91EF9126
:100E3000BF91AF919F918F917F916F915F914F91F2
:100E40003F912F910F900BBE0F900FBE0F901F90F0
:100E500018951F920F920FB60F9211240BB60F9296
:100E60002F933F934F935F936F937F938F939F93B2
:100E7000AF93BF93EF93FF9387ED94E0A2DAFF91D6
:100E8000EF91BF91AF919F918F917F916F915F9102
:100E90004F913F912F910F900BBE0F900FBE0F906F
:100EA0001F9018951F920F920FB60F9211240BB638
:100EB0000F922F933F934F935F936F937F938F93F3
:100EC0009F93AF93BF93EF93FF9387ED94E017DA6F
:100ED000FF91EF91BF91AF919F918F917F916F9112
:100EE0005F914F913F912F910F900BBE0F900FBECE
:100EF0000F901F901895CF93DF9390E0FC01E85975
:100F0000FE4F2491FC01E853FE4F8491882361F148
:100F100090E0880F991FFC01E85FFE4FC591D491C6
:100F2000FC01E255FE4FA591B491611109C09FB734
:100F3000F8948881209582238883EC912E230BC01E
:100F4000623061F49FB7F8943881822F80958323B3
:100F50008883EC912E2B2C939FBF06C08FB7F894FB
:100F6000E8812E2B28838FBFDF91CF9108953FB763
:100F7000F8948091050390910603A0910703B09126
:100F8000080326B5A89B05C02F3F19F00196A11DA7
:100F9000B11D3FBFBA2FA92F982F8827820F911D0F
:100FA000A11DB11DBC01CD0142E0660F771F881F56
:100FB000991F4A95D1F708951F920F920FB60F927D
:100FC00011242F933F938F939F93AF93BF9380915F
:100FD000010390910203A0910303B09104033091A7
:100FE000000323E0230F2D3720F40196A11DB11D2E
:100FF00005C026E8230F0296A11DB11D2093000312
:101000008093010390930203A0930303B09304031E
:101010008091050390910603A0910703B091080306
:101020000196A11DB11D8093050390930603A09323
:101030000703B0930803BF91AF919F918F913F91A8
:101040002F910F900FBE0F901F901895CF93DF93A5
:10105000EC0188859985009711F00E94AA108E8175
:1010600087FD04C060E0DF91CF9145CFDF91CF9144
:101070000895089508950895FC018AE092E091830F
:10108000808381E0808B778766871286138614863B
:1010900015866FB7F8948091010390910203A09197
:1010A0000303B09104036FBF86839783A087B18742
:1010B000F28BE18B2283338344835583820F931F0A
:1010C000A41FB51F82879387A487B5870895EF92E1
:1010D000FF920F931F93CF93DF937C0100E010E00A
:1010E000C0E0D0E0F7012481358180819181C21771
:1010F000D30758F4FC01E00FF11F808191810E9419
:10110000AA1021960A5F1F4FEDCFDF91CF911F915B
:101110000F91FF90EF900C94AA1090E0FC01EE5D0F
:10112000FE4F4491FC01E859FE4F2491FC01E85325
:10113000FE4F9491992309F466C0442309F454C0E6
:1011400050E0FA013197E231F10508F04DC08827EF
:10115000EE58FF4F8F4FF7C5809180008F7707C003
:10116000809180008F7D03C080918000877F809375
:1011700080003AC084B58F7702C084B58F7D84BD6E
:1011800033C08091B0008F7703C08091B0008F7D15
:101190008093B00029C0809190008F7707C0809124
:1011A00090008F7D03C080919000877F8093900096
:1011B0001BC08091A0008F7707C08091A0008F7D19
:1011C00003C08091A000877F8093A0000DC0809114
:1011D00020018F7707C0809120018F7D03C080910F
:1011E0002001877F80932001E92FF0E0EE0FFF1FA1
:1011F000E255FE4FA591B4918FB7F894EC912095EC
:101200002E232C938FBF08950F931F93CF93DF93BB
:10121000CDB7DEB729970FB6F894DEBF0FBECDBFAE
:10122000A6DE0091BD041091BE042091BF04309150
:10123000C004DC01CB01801B910BA20BB30B8C32E1
:101240009140A105B10560F3F8948091B3049091A9
:10125000B4049A838983E091B704F091B804DF0164
:101260001196808189879091AF04E091C104F0913B
:10127000C2048091C304992309F42EC09081982B55
:1012800098879081809589238F838F818C8388E0D4
:101290008B8358856F8149853B812C8189819A8117
:1012A000508347FD252F3A952083262F39F0441F80
:1012B00000C000006083000000C0F2CF38E04D9114
:1012C00060830000019761F7F093C204E093C104CA
:1012D00049873B832C8338C09081982B98879081D5
:1012E000809589238F838F818E8388E08D835885B5
:1012F0006F8149853D812E8189819A81508347FD87
:10130000252F00C000C0208300C000C000C000C066
:1013100000C060830000262F3A9541F0441F000072
:1013200000C000C000C000C000C0E8CF38E04D9150
:1013300000C0608300C0019709F7F093C204E093F6
:10134000C10449873D832E839A83898378940FDE75
:101350006093BD047093BE048093BF049093C00457
:1013600029960FB6F894DEBF0FBECDBFDF91CF91A7
:101370001F910F910895CF93DF93A6E5B4E0FD018F
:10138000C191D191209741F049895A89EC0129896D
:101390003A894217530711F1D4E0E437FD0781F78A
:1013A00020E030E04D915D91452B89F4220F331FF1
:1013B000F901ED5BFB4F948B838B809174049091CA
:1013C00075040196909375048093740407C02F5F91
:1013D0003F4F2F30310531F780E001C081E0DF91D0
:1013E000CF910895CF93DF93CDB7DEB72D970FB68A
:1013F000F894DEBF0FBECDBF789484B5826084BD03
:1014000084B5816084BD85B5826085BD85B5816008
:1014100085BD80916E00816080936E001092810086
:101420008091810082608093810080918100816041
:101430008093810080918000816080938000809102
:10144000B10084608093B1008091B000816080938E
:10145000B000809191008260809391008091910012
:1014600081608093910080919000816080939000D2
:101470008091A10082608093A1008091A100816091
:101480008093A1008091A00081608093A000809152
:1014900021018260809321018091210181608093EC
:1014A00021018091200181608093200180917A0048
:1014B000846080937A0080917A00826080937A00C1
:1014C00080917A00816080937A0080917A008068B0
:1014D00080937A001092C1008091B50487FD05C009
:1014E00061E009DD8091B50418DE81E08093B004ED
:1014F0008091B7049091B804892B09F085DE81E0D2
:101500008093AC048AE090E0A0E0B0E080939E0479
:1015100090939F04A093A004B093A1048091A2048F
:101520009091A304A091A404B091A5040A96A11DD2
:10153000B11D8093A6049093A704A093A804B09330
:10154000A90487E995E09093AB048093AA048CE901
:1015500094E011DF89E894E00EDF86E794E00BDF8A
:1015600086E0F82EEE24EA9483E494E09ED91A8271
:1015700019821C821B821E821D8244E050E06AEFA9
:1015800072E0CE01019661DB8091D2049091D30488
:101590008C010F5F1F4F8017910708F077C04091B3
:1015A000D0045091D1044017510708F043C0099668
:1015B0004817590708F03EC0C090CE04D090CF0421
:1015C0009093D1048093D0049C01F29EC001F39EBD
:1015D000900D11242AD59093CF048093CE04560108
:1015E000812C912C8091D2049091D3048816990675
:1015F000F8F4E091CE04F091CF04C5018C199D0957
:10160000E80FF91F309749F011821082138212827D
:1016100015821482B501CF0158DBF50180819181DB
:1016200099D5FFEF8F1A9F0A26E0A20EB11CDACFE0
:10163000C60190D5C090D204D090D304FC9C400148
:10164000FD9C900C1124A12CB12CC016D10608F0E1
:1016500041C0E091CE04F091CF04C501880D991DE1
:10166000E80FF91F309759F011821082138212820D
:1016700015821482BE016F5F7F4FCF0126DB3FEFE3
:10168000C31AD30A86E0A80EB11CDFCF08171907CA
:1016900028F5F89E6001F99ED00C11245801812C88
:1016A000912C8091D2049091D304A816B90690F49D
:1016B000E091CE04F091CF04E80DF91DEC0DFD1D75
:1016C0008681978147D5EFEFAE1ABE0AF6E08F0EFE
:1016D000911CE7CF1093D3040093D20489819A819F
:1016E00039D58091CB049091CC049E838D8308964C
:1016F0009C838B839C01F29EC001F39E900D11246C
:1017000094D49A83898300E010E0C12CD12C8D8180
:101710009E81C816D906D0F46091C7047091C804A0
:10172000600F711FE981FA81E00FF11F309741F0DE
:10173000118210821382128215821482CF01C5DABF
:101740003FEFC31AD30A0A5F1F4FE1CF8091CB044A
:101750009091CC04892BF1F0C12CD12C00E010E049
:101760008091CB049091CC040817190778F4E0918C
:10177000C704F091C804EC0DFD1D80819181EAD46D
:101780000F5F1F4F86E0C80ED11CEACF1092CC0429
:101790001092CB04A12CB12CC12CD12C8D819E8117
:1017A000C816D906C0F5198618861B861A861D86A6
:1017B0001C8644E050E06AEF72E0CE01089645DAFC
:1017C000E981FA81EA0DFB1D4C855D858481958157
:1017D000888499848417950760F0808191810097AF
:1017E00041F08114910429F0B401ADD311E0892BAB
:1017F00009F010E0C401AED4112331F01092C404FA
:101800001092C504E092C604EFEFCE1ADE0AF6E0AD
:10181000AF0EB11CC3CFCE01019659DC0E94690204
:10182000A3CE8FEA94E012DC8EEC94E050DC87ECDF
:1018300094E04DDC84E795E008D982EA95E04EC952
:10184000CF92DF92EF92FF920F931F93CF93DF938C
:10185000CDB7DEB765970FB6F894DEBF0FBECDBF2C
:1018600010920C0310920B0348EE53E060E070E01E
:1018700040930D0350930E0360930F037093100376
:101880002CE332E030930A032093090385ED90E0C6
:10189000909316038093150384ED90E090931803C2
:1018A0008093170380ED90E090931A0380931903BF
:1018B00081ED90E090931C0380931B0382ED90E0F8
:1018C00090931E0380931D0386ED90E09093200378
:1018D00080931F031092220310922303109224037B
:1018E000109225031092A9031092A8034093AA0313
:1018F0005093AB036093AC037093AD033093A70395
:101900002093A6038DEC90E09093B3038093B203F1
:101910008CEC90E09093B5038093B40388EC90E056
:101920009093B7038093B60389EC90E09093B9034A
:101930008093B8038AEC90E09093BB038093BA0342
:101940008EEC90E09093BD038093BC031092BF0394
:101950001092C0031092C1031092C20387ED94E06D
:101960001092DA041092D9044093DB045093DC0403
:101970006093DD047093DE043093D8042093D70481
:1019800025EC30E03093E4042093E30424EC30E0D1
:101990003093E6042093E50420EC30E03093E80433
:1019A0002093E70421EC30E03093EA042093E9042B
:1019B00022EC30E03093EC042093EB0426EC30E092
:1019C0003093EE042093ED041092F0041092F10491
:1019D0001092F2041092F30461E270E07093BA0581
:1019E0006093B9051092BB051092BC051092BD051D
:1019F00026E0C22ED12CE12CF12CC092BE05D09253
:101A0000BF05E092C005F092C1051092C205109288
:101A1000C3051092C4051092C50540E24093C60567
:101A20001092C8051092C7051092CB0524EA35E044
:101A30003093CA052093C9052AED32E03093A305FF
:101A40002093A20524EE32E03093B7052093B6052B
:101A50001092A8051092A7051092AA051092A90548
:101A60001092AC051092AB051092AE051092AD0528
:101A70001092B0051092AF051092B2051092B10508
:101A800028EB32E03093A5052093A4059093B5058B
:101A90008093B40550E15093B30570939005609323
:101AA0008F05109291051092920510929305C092A5
:101AB0009405D0929505E0929605F09297051092C4
:101AC00098051092990510929A0510929B054093E3
:101AD0009C0510929E0510929D051092A1051092F2
:101AE00076051092770510927805109279054AE7ED
:101AF00055E05093A00540939F0542E652E0509375
:101B00007505409374054CE652E050938D05409363
:101B10008C0510927E0510927D0510928005109222
:101B20007F05109282051092810510928405109213
:101B300083051092860510928505109288051092F3
:101B4000870530937B0520937A0590938B058093CE
:101B50008A0528E0209389059093D6048093D504C4
:101B600068E174E080E394E0FCD1E7ECF4E08EE01F
:101B7000DF011D928A95E9F708E010E01093CA048E
:101B80000093C90480E390E050D29093C8048093FE
:101B9000C7041093D1040093D00480E390E045D2B1
:101BA0009093CF048093CE0481E08093AF04109291
:101BB000B0041092B2041092B1041092B4041092C6
:101BC000B3049FEF9093B5041092B6041092B8043A
:101BD0001092B7048093B9041092BA0492E09093E3
:101BE000BB048093BC041092BD041092BE041092FA
:101BF000BF041092C0041A8218861F86188A198A98
:101C00001A8A8E878B871C869D87898389E690E058
:101C10009E838D830AD29A878987009751F029E69F
:101C2000FC0111922A95E9F783E290E09C838B8373
:101C300004C01E821D821C821B828DE08F838A81DC
:101C4000882329F061E08DE056D98DE066DAE5ED74
:101C5000F1E0E491F0E0EE0FFF1FE255FE4F8591B9
:101C600094919C8B8B8BE5E7F1E0E491ED8B85E122
:101C7000FE013196AFEAB4E001900D928A95E1F74A
:101C8000CE010196E3D98FEF8093C4048093C504FD
:101C90008093C60420E030E0A90160E070E08CE9A8
:101CA00094E0EAD920E030E0A90160E070E089E842
:101CB00094E0E2D920E030E0A90160E070E086E73E
:101CC00094E0DAD920E030E0A90160E070E083E43C
:101CD00094E0D2D984EF92E090934404809343043B
:101CE0001092750410927404E6E5F4E011921192DA
:101CF00084E0E437F807D1F71092450410924604C7
:101D000010924704109248048091490490914A042B
:101D1000A0914B04B0914C0480934D0490934E04D9
:101D2000A0934F04B093500465960FB6F894DEBFAD
:101D30000FBECDBFDF91CF911F910F91FF90EF901C
:101D4000DF90CF900895EE0FFF1F881F8BBF079085
:101D5000F691E02D19946F927F928F929F92AF929D
:101D6000BF92CF92DF92EF92FF920F931F93CF9388
:101D7000DF93EC01009781F4CB01DF91CF911F91AC
:101D80000F91FF90EF90DF90CF90BF90AF909F901A
:101D90008F907F906F9049C1FC01E60FF71F9C0167
:101DA00022503109E217F30708F4A8C0D9010D91B8
:101DB0001C91119706171707A8F00530110508F4B4
:101DC0009BC0C80104978617970708F495C0025076
:101DD0001109061B170B019311936D937C93CF018F
:101DE000B9D18AC05B01A01AB10A4C01800E911EC4
:101DF000A091D405B091D50540E050E0E12CF12C44
:101E0000109709F44AC0A815B905D1F56D907C90DA
:101E10001197630182E0C80ED11CCA14DB0480F163
:101E2000A3014A195B096A0182E0C80ED11C12960F
:101E3000BC9012971396AC91B5E0CB16D10440F04C
:101E4000B282A38351834083D9016D937C930AC0EE
:101E50000E5F1F4FC301800F911FF9019183808393
:101E6000EB2DFA2FE114F10431F0D7011396FC9316
:101E7000EE93129741C0F093D505E093D4053CC092
:101E80008D919C9111974817590708F4AC017D0179
:101E900012960D90BC91A02DB3CF8091D205909158
:101EA000D30588159905E1F446175707C8F48091C2
:101EB000000290910102009741F48DB79EB74091C6
:101EC000040250910502841B950BE817F907B0F442
:101ED000F093D305E093D205F901718360830CC0C0
:101EE000CB01A3D07C01009749F0A801BE011BD013
:101EF000CE0130D1C70104C0CE0102C080E090E025
:101F0000DF91CF911F910F91FF90EF90DF90CF90D5
:101F1000BF90AF909F908F907F906F90089581E0D9
:101F200090E0F894B6C1FB01DC0102C001900D9273
:101F300041505040D8F70895FB01DC0101900D920B
:101F40000020E1F70895FB01DC014150504030F0E2
:101F50008D910190801919F40020B9F7881B990B15
:101F600008950F931F93CF93DF93009731F461157A
:101F7000710519F480E090E039C08B01EC016EE04E
:101F800070E081E090E037D0FC01892B99F380E884
:101F900083830115110571F01387028781E883831C
:101FA0008091CC059091CD05892B21F4F093CD053E
:101FB000E093CC052097C9F0D187C08783818260E8
:101FC00083838091CE059091CF05892B71F4F09396
:101FD000CF05E093CE058091D0059091D105892B56
:101FE00021F4F093D105E093D005CF01DF91CF919B
:101FF0001F910F9108950F931F93CF93DF93869FA7
:102000008001879F100D969F100D1124C8010DD0DF
:10201000EC01009721F0A80160E070E033D1CE011F
:10202000DF91CF911F910F910895CF93DF9382306D
:10203000910510F482E090E0E091D405F091D5058F
:1020400020E030E0C0E0D0E0309711F140815181D4
:1020500048175907C0F04817590761F482819381E6
:10206000209719F09B838A832BC09093D50580938A
:10207000D40526C02115310519F04217530718F46D
:102080009A01BE01DF01EF010280F381E02DDCCF78
:102090002115310509F1281B390B2430310590F445
:1020A00012968D919C9113976115710521F0FB019A
:1020B0009383828304C09093D5058093D405FD015A
:1020C000329644C0FD01E20FF31F81939193225099
:1020D00031092D933C933AC02091D2053091D3051C
:1020E000232B41F420910202309103023093D30557
:1020F0002093D20520910002309101022115310573
:1021000041F42DB73EB74091040250910502241BC3
:10211000350BE091D205F091D305E217F307A0F457
:102120002E1B3F0B2817390778F0AC014E5F5F4F2D
:102130002417350748F04E0F5F1F5093D305409387
:10214000D2058193919302C0E0E0F0E0CF01DF91EE
:10215000CF9108950F931F93CF93DF93009709F4C6
:102160008CC0FC013297138212820091D405109129
:10217000D5050115110581F420813181820F931F4E
:102180002091D2053091D3052817390779F5F093BE
:10219000D305E093D20571C0D80140E050E0AE17FE
:1021A000BF0750F412962D913C911397AD01211564
:1021B000310509F1D901F3CF9D01DA01338322837F
:1021C00060817181860F971F8217930769F4EC0174
:1021D00028813981260F371F2E5F3F4F318320839F
:1021E0008A819B8193838283452B29F4F093D505C3
:1021F000E093D40542C01396FC93EE931297ED0141
:10220000499159919E01240F351FE217F30771F48C
:1022100080819181840F951F029611969C938E93D5
:102220008281938113969C938E931297E0E0F0E065
:10223000D80112968D919C911397009719F0F8018F
:102240008C01F6CF8D919C9198012E5F3F4F820FAC
:10225000931F2091D2053091D3052817390769F4CF
:10226000309729F41092D5051092D40502C013823C
:1022700012821093D3050093D205DF91CF911F9165
:102280000F910895DC0101C06D9341505040E0F77B
:10229000089511E0C8E0D1E000E005C0802FFE0104
:1022A00052DD2196011DC930D10780E00807B1F742
:0422B000F894FFCFD0
:1022B4000000D6058000000000003B01F004CA04C1
:1022C40018000000000000000000E8FFE8FF000024
:1022D4000000000014000000000000000000ECFFFB
:1022E400ECFF0000000000000000000002025401A6
:1022F400BA019801AC01480206000000000005057F
:102304000705FAFFFAFF000006050905180000009A
:10231400000025053A05E8FFE8FF00003105430504
:102324006202160220026C02000000003908030554
:102334001704140411040E040B0412030E030B03FC
:10234400F5028503990297020200000000004E0581
:102354005005FEFFFEFF00004F055205000000007F
:102364003B089505000000003A084C0517041404C6
:1023740011040E040B04FF03B903A00387038503B0
:10238400340315031400000000006E058305ECFF00
:10239400ECFF00007A058C05DA022A023402E4021A
:1023A400000000003B01F0045504424C5545000078
:00000001FF
