:1000000008C1000037C1000035C1000033C1000045
:1000100031C100002FC100002DC100002BC1000024
:1000200029C1000027C1000025C1000023C1000034
:1000300021C100001FC100001DC100001BC1000044
:1000400019C1000017C1000015C1000013C1000054
:1000500011C100000FC100000DC10000FFC400006D
:1000600009C1000071C4000046C4000003C10000C3
:1000700001C10000FFC00000FDC00000FBC0000087
:10008000F9C00000F7C00000F5C00000F3C0000098
:1000900009C40000DEC30000EDC00000EBC000009A
:1000A000E9C00000E7C00000E5C00000E3C00000B8
:1000B000E1C00000DFC00000DDC00000DBC00000C8
:1000C000D9C00000D7C00000D5C0000099C300000F
:1000D0006EC30000CFC00000CDC00000CBC0000048
:1000E000C9C00000B905BC05AB05AF05B305F305F4
:1000F000C005C405CA05CE05D205D805DC05E00556
:10010000F305E605EA05EE050000210024002700BE
:100110002A002D0030003300010100000401070116
:100120000A0100000A0B02090C0D0E080703040166
:1001300000000000000000000000000000000000BF
:10014000000000000000000000000000000012118C
:10015000100000000000000000000000000000008F
:10016000000000000000000001021020200808101C
:100170002040102040800201020108040201010217
:1001800004081020408080402010080402018004F0
:10019000020180402010080402010804020101024B
:1001A0000408102040800102040810204080000054
:1001B0002200250028002B002E003100340002010F
:1001C0000000050108010B010505050507050808E4
:1001D0000808020202020A0A0808040404040101D1
:1001E00001010101010103030303030303030407E6
:1001F00007070C0C0C0C0C0C0C0C0202020206067D
:100200000606060606060B0B0B0B0B0B0B0B640C02
:10021000550C11241FBECFEFD1E2DEBFCDBF00E0F1
:100220000CBF13E0A0E0B2E0E2E4F3E200E00BBFB9
:1002300002C007900D92AC30B107D9F725E0ACE0D1
:10024000B3E001C01D92A23EB207E1F711E0C8E0A1
:10025000D1E000E006C021970109802FFE010E9435
:10026000EA0EC730D10780E00807A9F70E94EF091E
:100270000C949011C5CEDC01ED91FC910190F081C0
:10028000E02D1994CF92DF92EF92FF920F931F937C
:10029000CF93DF936C017A018B01C0E0D0E0CE15E3
:1002A000DF0589F0D8016D918D01D601ED91FC91AA
:1002B0000190F081E02DC6011995892B11F47E0182
:1002C00002C02196ECCFC701DF91CF911F910F9112
:1002D000FF90EF90DF90CF900895FC01A089B18945
:1002E0008C91A689B78982FD0FC09C91818D8F5F0B
:1002F0008F73228D821749F0218DDF01A20FB11D6E
:100300005D969C93818F08958C910895FC01918D49
:10031000828D981761F0828DDF01A80FB11D5D9667
:100320008C91928D9F5F9F73928F90E008958FEFD5
:100330009FEF0895FC01918D828D981731F0828D89
:10034000E80FF11D858D90E008958FEF9FEF0895E0
:10035000FC01918D228D892F90E0805C9F4F821B44
:1003600091098F739927089585E193E0F1DF21E0EA
:10037000892B09F420E0822F089582EB93E0E8DFD7
:1003800021E0892B09F420E0822F089583EE94E088
:10039000DFDF21E0892B09F420E0822F0895FC01A2
:1003A000848DDF01A80FB11DA35ABF4F2C91848DFE
:1003B00090E001968F739927848FA689B7892C9333
:1003C000A089B1898C9180648C93938D848D9813CE
:1003D00006C00288F389E02D80818F7D8083089597
:1003E000EF92FF920F931F93CF93DF93EC0181E085
:1003F000888F9B8D8C8D981305C0E889F989808141
:1004000085FD23C0F62E0B8D10E00F5F1F4F0F737D
:100410001127E02E8C8DE8120BC00FB607FCFACF27
:10042000E889F989808185FFF5CFCE01B8DFF2CF69
:100430008B8DFE01E80FF11DE35AFF4FF0820B8F09
:10044000EA89FB898081806207C0EE89FF89608329
:10045000E889F98980818064808381E090E0DF9180
:10046000CF911F910F91FF90EF900895CF93DF935D
:10047000EC01888D8823C1F0EA89FB89808185FDA4
:1004800005C0A889B9898C9186FD0EC00FB607FCFE
:10049000F5CF808185FFF2CFA889B9898C9185FF3E
:1004A000EDCFCE017CDFE8CFDF91CF91089580E0E2
:1004B00090E0892B19F06ADF81111BC080E090E089
:1004C000892B19F05ADF811117C080E090E0892B49
:1004D00019F04ADF811113C080E090E0892BA1F070
:1004E00080E090E0892B81F00E94000081110AC019
:1004F00008950E940000E2CF0E940000E6CF0E9413
:100500000000EACF0C9400000895CB0108957F927B
:100510008F929F92AF92BF92CF92DF92EF92FF9213
:100520000F931F93CF93DF93EC0149015A018B0185
:10053000C12CD12C7601C814D904EA04FB0484F53B
:10054000F80171908F018F8580FF0BC0E881F981E0
:100550000084F185E02D20E144E060E070E0CE0110
:100560001995EB85FC858D859E85E817F90738F48C
:1005700070828B859C8501969C878B870BC0E88158
:10058000F981672D70E0028CF38DE02DCE01199575
:10059000019649F02FEFC21AD20AE20AF20ACBCF33
:1005A000B401C50102C0B601C701DF91CF911F910F
:1005B0000F91FF90EF90DF90CF90BF90AF909F9002
:1005C0008F907F900895CF93DF93EC01E881F981BC
:1005D0000288F389E02D19958F3F2FEF920731F0B4
:1005E0002D813E812F5F3F4F3E832D83DF91CF9141
:1005F00008958FEF9FEF089560E070E0CB010895BC
:1006000080E090E008950F931F93CF93DF938C01C8
:10061000EB016F3F8FEF780719F480E090E00DC099
:100620006A3029F46DE0F8018089918924DE6C2F0D
:10063000F801808991891FDECE01DF91CF911F9152
:100640000F9108958F929F92BF92CF92DF92EF9277
:10065000FF920F931F93CF93DF9300D01F92CDB7DC
:10066000DEB78C014B01C12CD12C7601C216D3060A
:10067000E406F50634F5F401B1904F01FAE0BF123B
:100680000DC06DE0F8018089918929833A834B83FD
:100690005C83F1DD5C814B813A8129816B2DF8010E
:1006A0008089918929833A834B835C83E4DDFFEF62
:1006B000CF1ADF0AEF0AFF0A5C814B813A81298158
:1006C000D5CFCA01B9010F900F900F900F90DF9115
:1006D000CF911F910F91FF90EF90DF90CF90BF903F
:1006E0009F908F900895CB0108950E94D60FEF92AE
:1006F000FF920F931F93CF93DF93EC017B018A014D
:1007000088819981009729F02A813B812417350738
:10071000F8F4B8016F5F7F4F0E94F20E009759F016
:10072000998388831B830A832C813D81232B81F449
:10073000FC0110820DC088819981009711F00E9400
:10074000F110198218821D821C821B821A8207C036
:100750001D830C83B701888199810E94E30FCE012C
:10076000DF91CF911F910F91FF90EF900895CF935C
:10077000DF93EC01FB0186179707A9F06081718177
:100780006115710521F044815581B1DF0CC088816C
:100790009981009711F00E94F110198218821D8230
:1007A0001C821B821A82CE01DF91CF9108951F9285
:1007B0000F920FB60F9211240BB60F922F933F9307
:1007C0004F935F936F937F938F939F93AF93BF9359
:1007D000EF93FF9385E193E0E2DDFF91EF91BF910D
:1007E000AF919F918F917F916F915F914F913F91C9
:1007F0002F910F900BBE0F900FBE0F901F9018956A
:100800001F920F920FB60F9211240BB60F922F93D7
:100810003F934F935F936F937F938F939F93AF9388
:10082000BF93EF93FF9385E193E057DDFF91EF9145
:10083000BF91AF919F918F917F916F915F914F91F8
:100840003F912F910F900BBE0F900FBE0F901F90F6
:1008500018951F920F920FB60F9211240BB60F929C
:100860002F933F934F935F936F937F938F939F93B8
:10087000AF93BF93EF93FF9382EB93E090DDFF91F3
:10088000EF91BF91AF919F918F917F916F915F9108
:100890004F913F912F910F900BBE0F900FBE0F9075
:1008A0001F9018951F920F920FB60F9211240BB63E
:1008B0000F922F933F934F935F936F937F938F93F9
:1008C0009F93AF93BF93EF93FF9382EB93E005DD8C
:1008D000FF91EF91BF91AF919F918F917F916F9118
:1008E0005F914F913F912F910F900BBE0F900FBED4
:1008F0000F901F9018951F920F920FB60F92112410
:100900000BB60F922F933F934F935F936F937F9309
:100910008F939F93AF93BF93EF93FF9383EE94E0F6
:100920003EDDFF91EF91BF91AF919F918F917F91AC
:100930006F915F914F913F912F910F900BBE0F9050
:100940000FBE0F901F9018951F920F920FB60F9227
:1009500011240BB60F922F933F934F935F936F9396
:100960007F938F939F93AF93BF93EF93FF9383EE08
:1009700094E0B3DCFF91EF91BF91AF919F918F9184
:100980007F916F915F914F913F912F910F900BBE8F
:100990000F900FBE0F901F901895CF93DF9390E0AC
:1009A000FC01E859FE4F2491FC01E853FE4F84916D
:1009B000882361F190E0880F991FFC01E85FFE4FEA
:1009C000C591D491FC01E255FE4FA591B4916111FE
:1009D00009C09FB7F8948881209582238883EC9181
:1009E0002E230BC0623061F49FB7F8943881822FB8
:1009F000809583238883EC912E2B2C939FBF06C078
:100A00008FB7F894E8812E2B28838FBFDF91CF9189
:100A100008953FB7F8948091110390911203A0912B
:100A20001303B091140326B5A89B05C02F3F19F0FE
:100A30000196A11DB11D3FBFBA2FA92F982F88275E
:100A4000820F911DA11DB11DBC01CD0142E0660FB9
:100A5000771F881F991F4A95D1F708951F920F920B
:100A60000FB60F9211242F933F938F939F93AF93C1
:100A7000BF9380910C0390910D03A0910E03B09150
:100A80000F033091100323E0230F2D3720F401963C
:100A9000A11DB11D05C026E8230F0296A11DB11DA1
:100AA0002093100380930C0390930D03A0930E03E7
:100AB000B0930F038091110390911203A09113033F
:100AC000B09114030196A11DB11D80931103909361
:100AD0001203A0931303B0931403BF91AF919F919E
:100AE0008F913F912F910F900FBE0F901F901895EF
:100AF000CF93DF93EC0188859985009711F00E94D0
:100B0000F1108E8187FD04C060E0DF91CF9145CF69
:100B1000DF91CF91089590E0FC01EE5DFE4F44918E
:100B2000FC01E859FE4F2491FC01E853FE4F9491DB
:100B3000992309F467C0442309F455C050E0FA0131
:100B40003197E231F10508F04EC08827EE58FF4F8B
:100B50008F4F0C94EA0E809180008F7707C08091B0
:100B600080008F7D03C080918000877F809380000C
:100B70003AC084B58F7702C084B58F7D84BD33C001
:100B80008091B0008F7703C08091B0008F7D8093FB
:100B9000B00029C0809190008F7707C080919000AD
:100BA0008F7D03C080919000877F809390001BC051
:100BB0008091A0008F7707C08091A0008F7D03C037
:100BC0008091A000877F8093A0000DC080912001BC
:100BD0008F7707C0809120018F7D03C08091200115
:100BE000877F80932001E92FF0E0EE0FFF1FE25591
:100BF000FE4FA591B4918FB7F894EC9120952E23D8
:100C00002C938FBF08950F931F93CF93DF93CDB78E
:100C1000DEB729970FB6F894DEBF0FBECDBFF9DE61
:100C20000091C9041091CA042091CB043091CC04E6
:100C3000DC01CB01801B910BA20BB30B8C329140DA
:100C4000A105B10560F3F8948091BF049091C004B0
:100C50009A838983E091C304F091C404DF01119663
:100C6000808189879091BB04E091CD04F091CE04FE
:100C70008091CF04992309F42EC09081982B9887F6
:100C80009081809589238F838F818C8388E08B83EB
:100C900058856F8149853B812C8189819A81508358
:100CA00047FD252F3A952083262F39F0441F00C099
:100CB00000006083000000C0F2CF38E04D916083F7
:100CC0000000019761F7F093CE04E093CD044987CB
:100CD0003B832C8338C09081982B98879081809596
:100CE00089238F838F818E8388E08D8358856F81E0
:100CF00049853D812E8189819A81508347FD252F29
:100D000000C000C0208300C000C000C000C000C000
:100D100060830000262F3A9541F0441F000000C078
:100D200000C000C000C000C0E8CF38E04D9100C056
:100D3000608300C0019709F7F093CE04E093CD04DF
:100D400049873D832E839A838983789462DE6093FA
:100D5000C9047093CA048093CB049093CC04299661
:100D60000FB6F894DEBF0FBECDBFDF91CF911F91BC
:100D70000F910895CF93DF93A2E6B4E0FD01C191F6
:100D8000D191209741F049895A89EC0129893A8902
:100D90004217530711F1D4E0E038FD0781F720E056
:100DA00030E04D915D91452B89F4220F331FF901FD
:100DB000E15BFB4F948B838B809180049091810445
:100DC0000196909381048093800407C02F5F3F4F6A
:100DD0002F30310531F780E001C081E0DF91CF9104
:100DE0000895CF93DF93EC0188899989DC01ED9117
:100DF000FC910480F581E02D1995892BA9F3888950
:100E00009989DC01ED91FC910680F781E02DDF915D
:100E1000CF911994CF93DF93EC0188899989DC01F4
:100E2000ED91FC910480F581E02D1995892BA9F3B2
:100E300088899989DC01ED91FC910084F185E02D90
:100E4000DF91CF911994AF92BF92CF92DF92EF9240
:100E5000FF920F931F93CF93DF9300D01F92CDB7D4
:100E6000DEB78C015B01C12CD12C7601F8018089A1
:100E70009189DC01ED91FC910680F781E02D2983B9
:100E80003A834B835C83199529813A814B815C813C
:100E90008F3F71F0C216D306E406F5064CF4D50177
:100EA0008D935D01BFEFCB1ADB0AEB0AFB0ADECFA5
:100EB000C701B6010F900F900F900F90DF91CF9167
:100EC0001F910F91FF90EF90DF90CF90BF90AF9068
:100ED0000895DC0150968D919C915197DC01ED9124
:100EE000FC910480F581E02D199480E090E0089554
:100EF00080E090E0089580E090E0089580E090E048
:100F000008950895CF93DF93C091E104D091E20456
:100F1000E881F9810480F581E02DCE011995892BB6
:100F2000B9F3E881F9810680F781E02DCE01DF91E8
:100F3000CF9119941F93CF93DF93182FC091E104A1
:100F4000D091E2048A3041F4E881F9810190F08186
:100F5000E02D6DE0CE011995E881F9810190F081D5
:100F6000E02D612FCE01199521E030E0019711F4B9
:100F700020E030E0C901DF91CF911F9108958F9259
:100F80009F92AF92BF92CF92DF92EF92FF920F9318
:100F90001F93CF93DF93EC01EE85FF85309709F027
:100FA00019958FB7F89480900C0390900D03A09042
:100FB0000E03B0900F038FBF8E016E012EE1C20EA3
:100FC000D11CE12CF12C89A99AA98E159F0524F139
:100FD000D80153968D919C9154970097C1F0BFEF23
:100FE000EB1AFB0ADC01ED91FC910280F381E02D0C
:100FF000B501A4011995882351F0F80183899489DA
:10100000DC01ED91FC910480F581E02D19950E5FD6
:101010001F4F0C151D05B9F62FB7F89480910C03DE
:1010200090910D03A0910E03B0910F032FBF8E83FB
:101030009F83A887B9874A815B816C817D81840FFA
:10104000951FA61FB71F8A879B87AC87BD87DF9137
:10105000CF911F910F91FF90EF90DF90CF90BF90B5
:10106000AF909F908F900895CF93DF93EC01EE8522
:10107000FF85309709F019952FB7F89480910C03EC
:1010800090910D03A0910E03B0910F032FBF8E839B
:101090009F83A887B9874A815B816C817D81840F9A
:1010A000951FA61FB71F8A879B87AC87BD87DF91D7
:1010B000CF9108950F931F93FC010285138524851A
:1010C0003585401B510B620B730B77FD02C0808985
:1010D00001C080E01F910F910895FC01428353836A
:1010E0006483758386819781A085B185480F591FD8
:1010F0006A1F7B1F428753876487758708950C9406
:10110000F110089508950C94F110DC01ED91FC911B
:10111000369720813181820F931FF5CFFB0120810B
:101120003181FC0131832083FB0142815381F9012C
:10113000369720813181FC01E20FF31F51834083F8
:10114000089528E532E0FC013183208322E632E075
:10115000318F208F68E672E0E1CFDC01ED91FC91E8
:10116000369720813181820F931FEBCFCF93DF938E
:10117000EC01E7DFCE01DF91CF910C94F110DC019F
:10118000ED91FC91369720813181820F931FEECF34
:101190000C94F110089508950C94F110DC01ED9178
:1011A000FC91369720813181820F931FF5CFFB018F
:1011B00020813181FC0131832083FB0142815381F5
:1011C000F901369720813181FC01E20FF31F518331
:1011D0004083089520ED32E0FC01318320832AED25
:1011E00032E0358B248B60EE72E0E1CFDC01ED91D3
:1011F000FC91369720813181820F931FEBCFCF93E3
:10120000DF93EC01E7DFCE01DF91CF91EAC7DC018C
:10121000ED91FC91369720813181820F931FEFCFA2
:10122000E0C74F925F926F927F928F929F92AF92A0
:10123000BF92EF92FF920F931F93CF93DF9300E043
:1012400010E0E12CF12CC0E0D0E08091BD04909141
:10125000BE04C817D90708F061C02091D00480915E
:10126000D10490E0A0E0B0E0BA2FA92F982F8827F2
:10127000A22B2091D204822B2D0166247724892E63
:101280009A2EAB2EBB24482D382F2091C204222346
:1012900091F0622F70E0649DA001659D500D749DDA
:1012A000500D1124452E829E40011124492D829F0C
:1012B000C0011124392F2091C8045091C504809198
:1012C000C3049091C404251303C08E0D9F1D06C056
:1012D000800F911FFC01E20FF11D10822091C504C7
:1012E000FC01E20FF11D40822091C604FC01E20FD7
:1012F000F11D40832091C704FC01E20FF11D3083F2
:101300008091C3049091C404892B09F07CDC219660
:1013100083E0E80EF11C0C5F1F4F97CFDF91CF9158
:101320001F910F91FF90EF90BF90AF909F908F9083
:101330007F906F905F904F9008950895089508955D
:10134000FC0184EF92E09183808381E0808B77873A
:10135000668712861386148615866FB7F894809177
:101360000C0390910D03A0910E03B0910F036FBF7A
:1013700086839783A087B187F28BE18B22833383A7
:1013800044835583820F931FA41FB51F82879387C1
:10139000A487B5870895EF92FF920F931F93CF9381
:1013A000DF937C0100E010E0C0E0D0E0F701248191
:1013B000358180819181C217D30750F4FC01E00F81
:1013C000F11F808191810DD721960A5F1F4FEECFCB
:1013D000DF91CF911F910F91FF90EF9002C7CF93B4
:1013E000DF93CDB7DEB72D970FB6F894DEBF0FBEF3
:1013F000CDBF789484B5826084BD84B5816084BD9E
:1014000085B5826085BD85B5816085BD80916E00A2
:10141000816080936E0010928100809181008260D3
:101420008093810080918100816080938100809110
:1014300080008160809380008091B10084608093FF
:10144000B1008091B00081608093B00080919100E4
:1014500082608093910080919100816080939100DF
:10146000809190008160809390008091A1008260C3
:101470008093A1008091A10081608093A100809160
:10148000A00081608093A000809121018260809300
:1014900021018091210181608093210180912001AF
:1014A00081608093200180917A00846080937A002B
:1014B00080917A00826080937A0080917A008160C6
:1014C00080937A0080917A00806880937A001092ED
:1014D000C1008091C10487FD05C061E05EDA8091A2
:1014E000C10419DB81E08093BC048091C304909116
:1014F000C404892B09F087DB81E08093B8048AE07B
:1015000090E0A0E0B0E08093AA049093AB04A09395
:10151000AC04B093AD048091AE049091AF04A0915F
:10152000B004B091B1040A96A11DB11D8093B2041C
:101530009093B304A093B404B093B50481E199E00F
:101540009093B7048093B60488EA94E013DC85E9AD
:1015500094E010DC82E894E00DDCE091F304F0917B
:10156000F40482E08083E091EF04F091F0041082B3
:10157000E091F104F091F2048FEC80831092FB046F
:10158000E091F704F091F80486E08083E091F5049F
:10159000F091F604808180618083E091F504F09100
:1015A000F604808188608083E091F504F091F60470
:1015B000808180688083E091F504F091F604808159
:1015C0008F7D808386E0F82EEE24EA9449E050E097
:1015D0006AEF72E083EE94E00E94420142E050E044
:1015E00064E073E083EE94E00E9442018FE494E0B3
:1015F000C6DC1A8219821C821B821E821D8244E074
:1016000050E067E073E0CE01019671D88091DE046E
:101610009091DF048C010F5F1F4F8017910708F036
:1016200077C04091DC045091DD044017510708F069
:1016300043C009964817590708F03EC0C090DA0425
:10164000D090DB049093DD048093DC049C01F29E37
:10165000C001F39E900D11242FD59093DB0480934D
:10166000DA045601812C912C8091DE049091DF04E4
:1016700088169906F8F4E091DA04F091DB04C501CC
:101680008C199D09E80FF91F309749F011821082DB
:101690001382128215821482B501CF0168D8F50138
:1016A000808191819ED5FFEF8F1A9F0A26E0A20EBE
:1016B000B11CDACFC60195D5C090DE04D090DF040E
:1016C000FC9C4001FD9C900C1124A12CB12CC01657
:1016D000D10608F041C0E091DA04F091DB04C501C5
:1016E000880D991DE80FF91F309759F0118210826B
:1016F0001382128215821482BE016F5F7F4FCF0169
:1017000036D83FEFC31AD30A86E0A80EB11CDFCF4C
:101710000817190728F5F89E6001F99ED00C1124CE
:101720005801812C912C8091DE049091DF04A81641
:10173000B90690F4E091DA04F091DB04EC0DFD1DA4
:10174000E80DF91D868197814CD5EFEFAE1ABE0AE0
:10175000F6E08F0E911CE7CF1093DF040093DE04B8
:1017600089819A813ED58091D7049091D8049E8337
:101770008D8308969C838B839C01F29EC001F39E0F
:10178000900D112499D49A83898300E010E0C12C34
:10179000D12C8D819E81C816D906D8F46091D304CE
:1017A0007091D404600F711FE981FA81E00FF11F7D
:1017B000309749F0118210821382128215821482AE
:1017C000CF010E94B7033FEFC31AD30A0A5F1F4F2E
:1017D000E0CF8091D7049091D804892BF1F0C12CEF
:1017E000D12C00E010E08091D7049091D804081724
:1017F000190778F4E091D304F091D404EC0DFD1DA9
:1018000080819181EED40F5F1F4F86E0C80ED11CFE
:10181000EACF1092D8041092D704A12CB12CC12C7D
:10182000D12C8D819E81C816D906C8F519861886D7
:101830001B861A861D861C8644E050E067E073E034
:10184000CE0108960E947703E981FA81EA0DFB1D1B
:101850004C855D858481958188849984841795075A
:1018600060F080819181009741F08114910429F00A
:10187000B401B0D311E0892B09F010E0C401B1D458
:10188000112331F01092D0041092D104E092D204CE
:10189000EFEFCE1ADE0AF6E0AF0EB11CC2CFCE01DA
:1018A000019679DD0E94570291CE8BEB94E020D90E
:1018B0008AED94E070DD83ED94E06DDD80E895E0E5
:1018C00040DC8EEA95E086CCCF92DF92EF92FF92D9
:1018D0000F931F93CF93DF93CDB7DEB765970FB606
:1018E000F894DEBF0FBECDBF1092180310921703FD
:1018F00048EE53E060E070E04093190350931A0300
:1019000060931B0370931C0322E332E030931603B1
:101910002093150385ED90E090932203809321039B
:1019200084ED90E0909324038093230380ED90E076
:10193000909326038093250381ED90E090932803F4
:101940008093270382ED90E090932A0380932903EC
:1019500086ED90E090932C0380932B0310922E033E
:1019600010922F0310923003109231031092B5039E
:101970001092B4034093B6035093B7036093B80337
:101980007093B9033093B3032093B2038DEC90E0CE
:101990009093BF038093BE038CEC90E09093C103BF
:1019A0008093C00388EC90E09093C3038093C203BC
:1019B00089EC90E09093C5038093C4038AEC90E097
:1019C0009093C7038093C6038EEC90E09093C90375
:1019D0008093C8031092CB031092CC031092CD03D6
:1019E0001092CE0383EE94E01092E6041092E50488
:1019F0004093E7045093E8046093E9047093EA0489
:101A00003093E4042093E30425EC30E03093F004B9
:101A10002093EF0424EC30E03093F2042093F1049F
:101A200020EC30E03093F4042093F30421EC30E018
:101A30003093F6042093F50422EC30E03093F80460
:101A40002093F70426EC30E03093FA042093F90455
:101A50001092FC041092FD041092FE041092FF04F8
:101A600061E270E07093C6056093C5051092C705EA
:101A70001092C8051092C90526E0C22ED12CE12C87
:101A8000F12CC092CA05D092CB05E092CC05F09221
:101A9000CD051092CE051092CF051092D005109270
:101AA000D10540E24093D2051092D4051092D3059F
:101AB0001092D70520EB35E03093D6052093D5055D
:101AC00020ED32E03093AF052093AE052AED32E0F1
:101AD0003093C3052093C2051092B4051092B3054C
:101AE0001092B6051092B5051092B8051092B70580
:101AF0001092BA051092B9051092BC051092BB0560
:101B00001092BE051092BD052EEA32E03093B10569
:101B10002093B0059093C1058093C00550E1509388
:101B2000BF0570939C0560939B0510929D051092D4
:101B30009E0510929F05C092A005D092A105E0924B
:101B4000A205F092A3051092A4051092A50510928B
:101B5000A6051092A7054093A8051092AA05109219
:101B6000A9051092AD05109282051092830510927E
:101B700084051092850546E855E05093AC054093E6
:101B8000AB0548E552E0509381054093800542E65D
:101B900052E0509399054093980510928A0510924F
:101BA000890510928C0510928B0510928E0510926B
:101BB0008D051092900510928F051092920510924B
:101BC0009105109294051092930530938705209308
:101BD0008605909397058093960528E020939505B8
:101BE0009093E2048093E10462E877E08AE997E069
:101BF000FFD1E3EDF4E08EE0DF011D928A95E9F775
:101C000008E010E01093D6040093D50480E390E040
:101C100053D29093D4048093D3041093DD040093A3
:101C2000DC0480E390E048D29093DB048093DA04F4
:101C300081E08093BB041092BC041092BE04109209
:101C4000BD041092C0041092BF049FEF9093C10492
:101C50001092C2041092C4041092C3048093C5046D
:101C60001092C60492E09093C7048093C804109227
:101C7000C9041092CA041092CB041092CC041A82A8
:101C800018861F86188A198A1A8A8E878B871C865F
:101C90009D87898389E690E09E838D830DD29A8704
:101CA0008987009751F029E6FC0111922A95E9F7FE
:101CB00083E290E09C838B8304C01E821D821C8281
:101CC0001B828DE08F838A81882339F061E08DE06B
:101CD0000E94CD048DE00E948B05E5EDF1E0E491DA
:101CE000F0E0EE0FFF1FE255FE4F859194919C8B23
:101CF0008B8BE5E7F1E0E491ED8B85E1FE01319618
:101D0000ABEBB4E001900D928A95E1F7CE0101961C
:101D10000E9478058FEF8093D0048093D104809344
:101D2000D20420E030E0A90160E070E088EA94E0AD
:101D300007DB20E030E0A90160E070E085E994E095
:101D4000FFDA20E030E0A90160E070E082E894E092
:101D5000F7DA20E030E0A90160E070E08FE494E081
:101D6000EFDA8AEE92E09093500480934F04109241
:101D7000810410928004E2E6F4E01192119284E072
:101D8000E038F807D1F710925104109252041092E3
:101D90005304109254048091550490915604A091DC
:101DA0005704B09158048093590490935A04A09317
:101DB0005B04B0935C0465960FB6F894DEBF0FBE6B
:101DC000CDBFDF91CF911F910F91FF90EF90DF90EA
:101DD000CF900895EE0FFF1F881F8BBF0790F691DD
:101DE000E02D19946F927F928F929F92AF92BF9243
:101DF000CF92DF92EF92FF920F931F93CF93DF93D7
:101E0000EC01009781F4CB01DF91CF911F910F91ED
:101E1000FF90EF90DF90CF90BF90AF909F908F900A
:101E20007F906F9049C1FC01E60FF71F9C01225083
:101E30003109E217F30708F4A8C0D9010D911C91EC
:101E4000119706171707A8F00530110508F49BC075
:101E5000C80104978617970708F495C00250110926
:101E6000061B170B019311936D937C93CF01B9D18E
:101E70008AC05B01A01AB10A4C01800E911EA0918C
:101E8000E005B091E10540E050E0E12CF12C109725
:101E900009F44AC0A815B905D1F56D907C90119749
:101EA000630182E0C80ED11CCA14DB0480F1A301D7
:101EB0004A195B096A0182E0C80ED11C1296BC90D7
:101EC00012971396AC91B5E0CB16D10440F0B282D4
:101ED000A38351834083D9016D937C930AC00E5F25
:101EE0001F4FC301800F911FF90191838083EB2D58
:101EF000FA2FE114F10431F0D7011396FC93EE931D
:101F0000129741C0F093E105E093E0053CC08D914C
:101F10009C9111974817590708F4AC017D0112965E
:101F20000D90BC91A02DB3CF8091DE059091DF057F
:101F300088159905E1F446175707C8F48091000207
:101F400090910102009741F48DB79EB74091040231
:101F500050910502841B950BE817F907B0F4F09334
:101F6000DF05E093DE05F901718360830CC0CB01CE
:101F7000A3D07C01009749F0A801BE011BD0CE017F
:101F800030D1C70104C0CE0102C080E090E0DF91F3
:101F9000CF911F910F91FF90EF90DF90CF90BF9066
:101FA000AF909F908F907F906F90089581E090E028
:101FB000F894B6C1FB01DC0102C001900D924150C2
:101FC0005040D8F70895FB01DC0101900D920020EC
:101FD000E1F70895FB01DC014150504030F08D9154
:101FE0000190801919F40020B9F7881B990B089506
:101FF0000F931F93CF93DF93009731F46115710511
:1020000019F480E090E039C08B01EC016EE070E0E3
:1020100081E090E037D0FC01892B99F380E883833D
:102020000115110571F01387028781E88383809180
:10203000D8059091D905892B21F4F093D905E09327
:10204000D8052097C9F0D187C087838182608383B8
:102050008091DA059091DB05892B71F4F093DB0513
:10206000E093DA058091DC059091DD05892B21F460
:10207000F093DD05E093DC05CF01DF91CF911F9157
:102080000F9108950F931F93CF93DF93869F800145
:10209000879F100D969F100D1124C8010DD0EC01E3
:1020A000009721F0A80160E070E033D1CE01DF910C
:1020B000CF911F910F910895CF93DF9382309105B7
:1020C00010F482E090E0E091E005F091E10520E07D
:1020D00030E0C0E0D0E0309711F1408151814817E5
:1020E0005907C0F04817590761F4828193812097FE
:1020F00019F09B838A832BC09093E1058093E005C0
:1021000026C02115310519F04217530718F49A011A
:10211000BE01DF01EF010280F381E02DDCCF21154C
:10212000310509F1281B390B2430310590F4129642
:102130008D919C9113976115710521F0FB0193839B
:10214000828304C09093E1058093E005FD013296FF
:1021500044C0FD01E20FF31F819391932250310996
:102160002D933C933AC02091DE053091DF05232B5F
:1021700041F420910202309103023093DF05209355
:10218000DE0520910002309101022115310541F454
:102190002DB73EB74091040250910502241B350B28
:1021A000E091DE05F091DF05E217F307A0F42E1BA6
:1021B0003F0B2817390778F0AC014E5F5F4F2417AB
:1021C000350748F04E0F5F1F5093DF054093DE0543
:1021D0008193919302C0E0E0F0E0CF01DF91CF91D5
:1021E00008950F931F93CF93DF93009709F48CC04A
:1021F000FC013297138212820091E0051091E105F3
:102200000115110581F420813181820F931F2091E6
:10221000DE053091DF052817390779F5F093DF05E2
:10222000E093DE0571C0D80140E050E0AE17BF0773
:1022300050F412962D913C911397AD012115310563
:1022400009F1D901F3CF9D01DA0133832283608143
:102250007181860F971F8217930769F4EC0128811B
:102260003981260F371F2E5F3F4F318320838A81AC
:102270009B8193838283452B29F4F093E105E093BE
:10228000E00542C01396FC93EE931297ED0149913D
:1022900059919E01240F351FE217F30771F48081D5
:1022A0009181840F951F029611969C938E93828143
:1022B000938113969C938E931297E0E0F0E0D801FF
:1022C00012968D919C911397009719F0F8018C014B
:1022D000F6CF8D919C9198012E5F3F4F820F931FF7
:1022E0002091DE053091DF052817390769F4309712
:1022F00029F41092E1051092E00502C013821282C7
:102300001093DF050093DE05DF91CF911F910F91B0
:102310000895DC0101C06D9341505040E0F70895ED
:1023200011E0C8E0D1E000E005C0802FFE0152DDE1
:102330002196011DC930D10780E00807B1F7F89454
:02234000FFCFCD
:102342000000E2058000180000000000000000000C
:10235200E8FFE8FF00000000000014000000000099
:1023620000000000ECFFECFF000000000000000095
:102372000000F0014201A80186019A01360206001E
:102382000000000081088308FAFFFAFF00008208BB
:102392008508180000000000A108B608E8FFE8FF61
:1023A2000000AD08BF0858020C02160262020000CB
:1023B20000009D097F0881077E077B077807750764
:1023C2000003FC02F902E3027303870285020200A2
:1023D20000000000CA08CC08FEFFFEFF0000CB0888
:1023E200CE08000000009F091009000000009E09AD
:1023F200C80881077E077B077807750769072307E7
:102402000A07F1067303220303031400000000000D
:10241200EA08FF08ECFFECFF0000F6080709D0020B
:1024220020022A02DA02000000006D085A08BF07E3
:10243200000000006D085A083408484948494849D4
:0C244200484948000D0A00424C55450076
:00000001FF
