:1000000008C1000037C1000035C1000033C1000045
:1000100031C100002FC100002DC100002BC1000024
:1000200029C1000027C1000025C1000023C1000034
:1000300021C100001FC100001DC100001BC1000044
:1000400019C1000017C1000015C1000013C1000054
:1000500011C100000FC100000DC100000C94420846
:1000600009C10000F2C60000C7C6000003C10000BD
:1000700001C10000FFC00000FDC00000FBC0000087
:10008000F9C00000F7C00000F5C00000F3C0000098
:100090008AC600005FC60000EDC00000EBC0000093
:1000A000E9C00000E7C00000E5C00000E3C00000B8
:1000B000E1C00000DFC00000DDC00000DBC00000C8
:1000C000D9C00000D7C00000D5C000001AC600008B
:1000D000EFC50000CFC00000CDC00000CBC00000C5
:1000E000C9C00000240A270A160A1A0A1E0A5E0A54
:1000F0002B0A2F0A350A390A3D0A430A470A4B0AD6
:100100005E0A510A550A590A0000210024002700FE
:100110002A002D0030003300010100000401070116
:100120000A0100000A0B02090C0D0E080703040166
:1001300000000000000000000000000000000000BF
:10014000000000000000000000000000000012118C
:10015000100000000000000000000000000000008F
:10016000000000000000000001021020200808101C
:100170002040102040800201020108040201010217
:1001800004081020408080402010080402018004F0
:10019000020180402010080402010804020101024B
:1001A0000408102040800102040810204080000054
:1001B0002200250028002B002E003100340002010F
:1001C0000000050108010B010505050507050808E4
:1001D0000808020202020A0A0808040404040101D1
:1001E00001010101010103030303030303030407E6
:1001F00007070C0C0C0C0C0C0C0C0202020206067D
:100200000606060606060B0B0B0B0B0B0B0BA60EBE
:10021000980E11241FBECFEFD1E2DEBFCDBF00E0AC
:100220000CBF13E0A0E0B2E0ECE8F9E200E00BBFA5
:1002300002C007900D92A636B107D9F726E0A6E6D0
:10024000B3E001C01D92A533B207E1F711E0C8E0A9
:10025000D1E000E006C021970109802FFE010E9435
:10026000D211C730D10780E00807A9F70E94A80C77
:100270000C94B514C5CEDC01ED91FC910190F08198
:10028000E02D1994CF92DF92EF92FF920F931F937C
:10029000CF93DF936C017A018B01C0E0D0E0CE15E3
:1002A000DF0589F0D8016D918D01D601ED91FC91AA
:1002B0000190F081E02DC6011995892B11F47E0182
:1002C00002C02196ECCFC701DF91CF911F910F9112
:1002D000FF90EF90DF90CF900895FC01A089B18945
:1002E0008C91A689B78982FD0FC09C91818D8F5F0B
:1002F0008F73228D821749F0218DDF01A20FB11D6E
:100300005D969C93818F08958C910895FC01918D49
:10031000828D981761F0828DDF01A80FB11D5D9667
:100320008C91928D9F5F9F73928F90E008958FEFD5
:100330009FEF0895FC01918D828D981731F0828D89
:10034000E80FF11D858D90E008958FEF9FEF0895E0
:10035000FC01918D228D892F90E0805C9F4F821B44
:1003600091098F73992708958FE693E0F1DF21E0DB
:10037000892B09F420E0822F08958CE094E0E8DFD7
:1003800021E0892B09F420E0822F089586E395E08F
:10039000DFDF21E0892B09F420E0822F0895FC01A2
:1003A000848DDF01A80FB11DA35ABF4F2C91848DFE
:1003B00090E001968F739927848FA689B7892C9333
:1003C000A089B1898C9180648C93938D848D9813CE
:1003D00006C00288F389E02D80818F7D8083089597
:1003E000EF92FF920F931F93CF93DF93EC0181E085
:1003F000888F9B8D8C8D981305C0E889F989808141
:1004000085FD23C0F62E0B8D10E00F5F1F4F0F737D
:100410001127E02E8C8DE8120BC00FB607FCFACF27
:10042000E889F989808185FFF5CFCE01B8DFF2CF69
:100430008B8DFE01E80FF11DE35AFF4FF0820B8F09
:10044000EA89FB898081806207C0EE89FF89608329
:10045000E889F98980818064808381E090E0DF9180
:10046000CF911F910F91FF90EF900895CF93DF935D
:10047000EC01888D8823C1F0EA89FB89808185FDA4
:1004800005C0A889B9898C9186FD0EC00FB607FCFE
:10049000F5CF808185FFF2CFA889B9898C9185FF3E
:1004A000EDCFCE017CDFE8CFDF91CF91089580E0E2
:1004B00090E0892B19F06ADF81111BC080E090E089
:1004C000892B19F05ADF811117C080E090E0892B49
:1004D00019F04ADF811113C080E090E0892BA1F070
:1004E00080E090E0892B81F00E94000081110AC019
:1004F00008950E940000E2CF0E940000E6CF0E9413
:100500000000EACF0C9400000895CB0108957F927B
:100510008F929F92AF92BF92CF92DF92EF92FF9213
:100520000F931F93CF93DF93EC0149015A018B0185
:10053000C12CD12C7601C814D904EA04FB0484F53B
:10054000F80171908F018F8580FF0BC0E881F981E0
:100550000084F185E02D20E144E060E070E0CE0110
:100560001995EB85FC858D859E85E817F90738F48C
:1005700070828B859C8501969C878B870BC0E88158
:10058000F981672D70E0028CF38DE02DCE01199575
:10059000019649F02FEFC21AD20AE20AF20ACBCF33
:1005A000B401C50102C0B601C701DF91CF911F910F
:1005B0000F91FF90EF90DF90CF90BF90AF909F9002
:1005C0008F907F900895CF93DF93EC01E881F981BC
:1005D0000288F389E02D19958F3F2FEF920731F0B4
:1005E0002D813E812F5F3F4F3E832D83DF91CF9141
:1005F00008958FEF9FEF089560E070E0CB010895BC
:1006000080E090E008950F931F93CF93DF938C01C8
:10061000EB016F3F8FEF780719F480E090E00DC099
:100620006A3029F46DE0F8018089918924DE6C2F0D
:10063000F801808991891FDECE01DF91CF911F9152
:100640000F9108958F929F92BF92CF92DF92EF9277
:10065000FF920F931F93CF93DF9300D01F92CDB7DC
:10066000DEB78C014B01C12CD12C7601C216D3060A
:10067000E406F50634F5F401B1904F01FAE0BF123B
:100680000DC06DE0F8018089918929833A834B83FD
:100690005C83F1DD5C814B813A8129816B2DF8010E
:1006A0008089918929833A834B835C83E4DDFFEF62
:1006B000CF1ADF0AEF0AFF0A5C814B813A81298158
:1006C000D5CFCA01B9010F900F900F900F90DF9115
:1006D000CF911F910F91FF90EF90DF90CF90BF903F
:1006E0009F908F900895CB010895CF93DF93EC01F5
:1006F00088899989DC01ED91FC910480F581E02DD8
:100700001995892BA9F388899989DC01ED91FC91D0
:100710000680F781E02DDF91CF911994CF93DF937D
:10072000EC0188899989DC01ED91FC910480F581C7
:10073000E02D1995892BA9F388899989DC01ED9120
:10074000FC910084F185E02DDF91CF911994AF9257
:10075000BF92CF92DF92EF92FF920F931F93CF93AE
:10076000DF9300D01F92CDB7DEB78C015B01C12CA7
:10077000D12C7601F80180899189DC01ED91FC9101
:100780000680F781E02D29833A834B835C8319959A
:1007900029813A814B815C818F3F71F0C216D3066B
:1007A000E406F5064CF4D5018D935D01BFEFCB1A3D
:1007B000DB0AEB0AFB0ADECFC701B6010F900F90F0
:1007C0000F900F90DF91CF911F910F91FF90EF90BD
:1007D000DF90CF90BF90AF900895DC0150968D913F
:1007E0009C915197DC01ED91FC910480F581E02D05
:1007F000199480E090E0089580E090E0089580E012
:1008000090E0089580E090E008950895CF93DF93FD
:10081000C0913405D0913505E881F9810480F581D6
:10082000E02DCE011995892BB9F3E881F981068075
:10083000F781E02DCE01DF91CF9119941F93CF93D3
:10084000DF93182FC0913405D09135058A3041F4DB
:10085000E881F9810190F081E02D6DE0CE011995DC
:10086000E881F9810190F081E02D612FCE01199589
:1008700021E030E0019711F420E030E0C901DF9180
:10088000CF911F9108950F931F93FC01028513854B
:1008900024853585401B510B620B730B77FD02C01D
:1008A000808901C080E01F910F910895FC0142836F
:1008B00053836483758386819781A085B185480FB2
:1008C000591F6A1F7B1F4287538764877587089566
:1008D0000C940614089508950C940614DC01ED910F
:1008E000FC91369720813181820F931FF5CFFB0158
:1008F00020813181FC0131832083FB0142815381BE
:10090000F901369720813181FC01E20FF31F5183F9
:100910004083089528E532E0FC013183208322E6FC
:1009200032E0318F208F68E672E0E1CFDC01ED919B
:10093000FC91369720813181820F931FEBCFCF93AB
:10094000DF93EC01E7DFCE01DF91CF910C94061429
:10095000DC01ED91FC91369720813181820F931F4C
:10096000EECF0C940614089508950C940614DC013F
:10097000ED91FC91369720813181820F931FF5CF45
:10098000FB0120813181FC0131832083FB01428105
:100990005381F901369720813181FC01E20FF31F69
:1009A00051834083089520ED32E0FC0131832083A0
:1009B0002AED32E0358B248B60EE72E0E1CFDC0172
:1009C000ED91FC91369720813181820F931FEBCFFF
:1009D000CF93DF93EC01E7DFCE01DF91CF910C9451
:1009E0000614DC01ED91FC91369720813181820F54
:1009F000931FEECF0C9406144F925F926F927F92EA
:100A00008F929F92AF92BF92EF92FF920F931F939C
:100A1000CF93DF9300E010E0E12CF12CC0E0D0E0B8
:100A20008091170590911805C817D90708F061C083
:100A300020912A0580912C0590E0A0E0B0E0BA2F2B
:100A4000A92F982F8827A22B20912B05822B2D01CF
:100A500066247724892E9A2EAB2EBB24482D382F5E
:100A600020911C05222391F0622F70E0649DA0016B
:100A7000659D500D749D500D1124452E829E4001A0
:100A80001124492D829FC0011124392F2091220564
:100A900050911F0580911D0590911E05251303C0DF
:100AA0008E0D9F1D06C0800F911FFC01E20FF11DEE
:100AB000108220911F05FC01E20FF11D4082209160
:100AC0002005FC01E20FF11D408320912105FC016E
:100AD000E20FF11D308380911D0590911E05892B39
:100AE00009F0FCD4219683E0E80EF11C0C5F1F4F47
:100AF00097CFDF91CF911F910F91FF90EF90BF9013
:100B0000AF909F908F907F906F905F904F900895DF
:100B1000CF93DF93CDB7DEB768970FB6F894DEBFFB
:100B20000FBECDBF8AEF92E090D58CE094E010DC50
:100B3000892B09F457C080E193E087D56CE074E01D
:100B4000CE010196A5D64AE061E070E0CE010D9697
:100B50009ED5BE016F5F7F4FCE010796CED5CE01E9
:100B6000079626D4BE01635F7F4F7BD5BC01CE01C3
:100B70004396C3D5CE01439607D4CE01439682D582
:100B8000CE0107967FD5CE010D967CD54AE061E077
:100B900070E0CE010D967BD5BE016F5F7F4FCE0119
:100BA0000796ABD5CE01079603D4BE01635F7F4F96
:100BB00058D5BC01CE014396A0D5809131059091C6
:100BC0003205BE016D5E7F4F0196B0D5CE014396D2
:100BD00059D5CE01079656D5CE010D9653D5CE01E7
:100BE000019650D58FE693E0B3DB892B09F457C00B
:100BF00087E393E02AD56FE673E0CE01019648D6ED
:100C00004AE062E070E0CE010D9641D5BE016F5F13
:100C10007F4FCE01079671D5CE010796C9D3BE018D
:100C2000635F7F4F1ED5BC01CE01439666D5CE01D2
:100C30004396AAD3CE01439625D5CE01079622D559
:100C4000CE010D961FD54AE062E070E0CE010D9610
:100C50001ED5BE016F5F7F4FCE0107964ED5CE01E8
:100C60000796A6D3BE01635F7F4FFBD4BC01CE01C4
:100C7000439643D58091310590913205BE016D5E5A
:100C80007F4F019653D5CE014396FCD4CE010796F3
:100C9000F9D4CE010D96F6D4CE010196F3D4689620
:100CA0000FB6F894DEBF0FBECDBFDF91CF91089590
:100CB0001F920F920FB60F9211240BB60F922F9323
:100CC0003F934F935F936F937F938F939F93AF93D4
:100CD000BF93EF93FF938FE693E061DBFF91EF917A
:100CE000BF91AF919F918F917F916F915F914F9144
:100CF0003F912F910F900BBE0F900FBE0F901F9042
:100D000018951F920F920FB60F9211240BB60F92E7
:100D10002F933F934F935F936F937F938F939F9303
:100D2000AF93BF93EF93FF938FE693E0D6DAFF91F3
:100D3000EF91BF91AF919F918F917F916F915F9153
:100D40004F913F912F910F900BBE0F900FBE0F90C0
:100D50001F9018951F920F920FB60F9211240BB689
:100D60000F922F933F934F935F936F937F938F9344
:100D70009F93AF93BF93EF93FF938CE094E00FDBCF
:100D8000FF91EF91BF91AF919F918F917F916F9163
:100D90005F914F913F912F910F900BBE0F900FBE1F
:100DA0000F901F9018951F920F920FB60F9211245B
:100DB0000BB60F922F933F934F935F936F937F9355
:100DC0008F939F93AF93BF93EF93FF938CE094E047
:100DD00084DAFF91EF91BF91AF919F918F917F91B5
:100DE0006F915F914F913F912F910F900BBE0F909C
:100DF0000FBE0F901F9018951F920F920FB60F9273
:100E000011240BB60F922F933F934F935F936F93E1
:100E10007F938F939F93AF93BF93EF93FF9386E35B
:100E200095E0BDDAFF91EF91BF91AF919F918F91C6
:100E30007F916F915F914F913F912F910F900BBEDA
:100E40000F900FBE0F901F9018951F920F920FB624
:100E50000F9211240BB60F922F933F934F935F93F2
:100E60006F937F938F939F93AF93BF93EF93FF9372
:100E700086E395E032DAFF91EF91BF91AF919F91B8
:100E80008F917F916F915F914F913F912F910F9033
:100E90000BBE0F900FBE0F901F901895CF93DF934E
:100EA00090E0FC01E859FE4F2491FC01E853FE4F0D
:100EB0008491882361F190E0880F991FFC01E85F1D
:100EC000FE4FC591D491FC01E255FE4FA591B4911E
:100ED000611109C09FB7F894888120958223888387
:100EE000EC912E230BC0623061F49FB7F8943881E7
:100EF000822F809583238883EC912E2B2C939FBF88
:100F000006C08FB7F894E8812E2B28838FBFDF911E
:100F1000CF9108953FB7F89480916B0390916C0343
:100F2000A0916D03B0916E0326B5A89B05C02F3F1D
:100F300019F00196A11DB11D3FBFBA2FA92F982FFF
:100F40008827820F911DA11DB11DBC01CD0142E07A
:100F5000660F771F881F991F4A95D1F708952FB7FD
:100F6000F894609167037091680380916903909190
:100F70006A032FBF08950F931F93CF93DF93EC0164
:100F8000EE85FF85309709F01995E9DF6E837F8341
:100F9000888799870A811B812C813D81DC01CB01E7
:100FA000800F911FA21FB31F8A879B87AC87BD87C5
:100FB000DF91CF911F910F9108958F929F92AF92E1
:100FC000BF92CF92DF92EF92FF920F931F93CF9336
:100FD000DF93EC01EE85FF85309709F01995BFDFAF
:100FE0004B015C018E016E012EE1C20ED11CE12C81
:100FF000F12C89A99AA98E159F0524F1D801539641
:101000008D919C9154970097C1F0BFEFEB1AFB0AAA
:10101000DC01ED91FC910280F381E02DB501A4018A
:101020001995882351F0F80183899489DC01ED91A9
:10103000FC910480F581E02D19950E5F1F4F0C1572
:101040001D05B9F68CDF6E837F83888799870A81B7
:101050001B812C813D81DC01CB01800F911FA21FE0
:10106000B31F8A879B87AC87BD87DF91CF911F9184
:101070000F91FF90EF90DF90CF90BF90AF909F9037
:101080008F9008951F920F920FB60F9211242F93F5
:101090003F938F939F93AF93BF93809167039091FA
:1010A0006803A0916903B0916A033091660323E05D
:1010B000230F2D3720F40196A11DB11D05C026E890
:1010C000230F0296A11DB11D209366038093670331
:1010D00090936803A0936903B0936A0380916B03B4
:1010E00090916C03A0916D03B0916E030196A11DC8
:1010F000B11D80936B0390936C03A0936D03B09329
:101100006E03BF91AF919F918F913F912F910F905F
:101110000FBE0F901F901895CF93DF93EC01888539
:101120009985009711F00E9406148E8187FD04C0F6
:1011300060E0DF91CF91B2CEDF91CF910895089515
:1011400008950895EF92FF920F931F93CF93DF932B
:101150007C0100E010E0C0E0D0E0F701248135819F
:1011600080819181C217D30738F4800F911F8AD2F2
:1011700021960A5F1F4FF1CFDF91CF911F910F9101
:10118000FF90EF900C940614CF93DF93ACEBB4E098
:10119000FD01C191D191209741F049895A89EC0113
:1011A00029893A894217530711F1D4E0EA3DFD0736
:1011B00081F720E030E04D915D91452B89F4220FBD
:1011C000331FF901E755FB4F948B838B8091DA0431
:1011D0009091DB0401969093DB048093DA0407C0BE
:1011E0002F5F3F4F2F30310531F780E001C081E0A4
:1011F000DF91CF910895CF93DF93EC01888199819E
:10120000009711F00E940614198218821D821C8218
:101210001B821A82DF91CF9108950E94BE120F9314
:101220001F93CF93DF93EC0188819981009729F078
:101230002A813B812617370788F48B016F5F7F4F28
:101240000E94DA11009761F0998388831B830A83D7
:101250002C813D81232B11F4FC01108281E001C01F
:1012600080E0DF91CF911F910F910895EF92FF924F
:101270000F931F93CF93DF93FC0124813581611578
:10128000710511F480E018C041155105A1F07B01F2
:10129000EC018A01020F131FB801C1DF882391F30B
:1012A000288139818C819D81B701820F931F0E9413
:1012B000CB121D830C8381E0DF91CF911F910F91A1
:1012C000FF90EF900895EF92FF920F931F93CF93AB
:1012D000DF93EC017B018A01BA01A1DF811103C018
:1012E000CE0189DF07C01D830C83B70188819981F6
:1012F0000E94CB12CE01DF91CF911F910F91FF90F1
:10130000EF900895FC0111821082138212821582DF
:1013100014826115710549F0FB0101900020E9F785
:101320003197AF01461B570BCECF08950F931F93F4
:10133000CF93DF93EC0113DE688779878A879B87D9
:10134000E881F9810680F781E02DCE01199597FF9C
:1013500016C005DE088519852A853B85DC01CB0191
:10136000801B910BA20BB30B0C811D812E813F8141
:1013700080179107A207B30718F38FEF9FEFDF9154
:10138000CF911F910F910895CF93DF93FC0144817A
:1013900055816081718186E395E00E944201EC01F4
:1013A0008EE593E0C3D28C0F9D1FDF91CF910895FE
:1013B0000F931F93CF93DF931F921F92CDB7DEB78A
:1013C0008C018BE389831A8241E050E0BE016F5F9C
:1013D0007F4FC8014BDF811102C0C8010CDFC8017B
:1013E0000F900F90DF91CF911F910F91089590E092
:1013F000FC01EE5DFE4F4491FC01E859FE4F249143
:10140000FC01E853FE4F9491992309F466C04423EC
:1014100009F454C050E0FA013197E231F10508F0C7
:101420004DC08827EE58FF4F8F4FBCC7809180007A
:101430008F7707C0809180008F7D03C080918000EE
:10144000877F809380003AC084B58F7702C084B5CF
:101450008F7D84BD33C08091B0008F7703C08091B1
:10146000B0008F7D8093B00029C0809190008F776D
:1014700007C0809190008F7D03C080919000877F8E
:10148000809390001BC08091A0008F7707C080914F
:10149000A0008F7D03C08091A000877F8093A00073
:1014A0000DC0809120018F7707C0809120018F7D32
:1014B00003C080912001877F80932001E92FF0E015
:1014C000EE0FFF1FE255FE4FA591B4918FB7F89430
:1014D000EC9120952E232C938FBF08950F931F938B
:1014E000CF93DF93CDB7DEB729970FB6F894DEBF61
:1014F0000FBECDBF0FDD0091230510912405209173
:10150000250530912605DC01CB01801B910BA20B38
:10151000B30B8C329140A105B10560F3F894809132
:10152000190590911A059A838983E0911D05F09120
:101530001E05DF0111968081898790911505E09144
:101540002705F091280580912905992309F42EC0DB
:101550009081982B98879081809589238F838F81A4
:101560008C8388E08B8358856F8149853B812C81F2
:1015700089819A81508347FD252F3A952083262F14
:1015800039F0441F00C000006083000000C0F2CFAB
:1015900038E04D9160830000019761F7F0932805D2
:1015A000E093270549873B832C8338C09081982B93
:1015B00098879081809589238F838F818E8388E09F
:1015C0008D8358856F8149853D812E8189819A81DE
:1015D000508347FD252F00C000C0208300C000C0FD
:1015E00000C000C000C060830000262F3A9541F083
:1015F000441F000000C000C000C000C000C0E8CF11
:1016000038E04D9100C0608300C0019709F7F09366
:101610002805E093270549873D832E839A83898394
:10162000789478DC609323057093240580932505D6
:101630009093260529960FB6F894DEBF0FBECDBF56
:10164000DF91CF911F910F910895CF93DF936ED1CA
:10165000EC018EE593E06AD18C0F9D1FDF91CF9155
:101660000895CF93DF93EC01FB01448155816081A4
:101670007181FCDD811102C0CE01BDDDCE01DF91A3
:10168000CF910895FC01808191810C940614EF9212
:10169000FF920F931F93CF93DF93CDB7DEB762977F
:1016A0000FB6F894DEBF0FBECDBF8C01CB01F801A1
:1016B00011821082138212821582148250E09E01E0
:1016C0002F5F3F4F7901B9017BD7F70101900020CF
:1016D000E9F73197AF014E195F09B701C801F3DD92
:1016E00062960FB6F894DEBF0FBECDBFDF91CF91EB
:1016F0001F910F91FF90EF900895FB01DC0111966F
:101700001C921E9213961C921E92129715961C9272
:101710001E9214978617970741F0608171816115B9
:10172000710519F044815581CECD08958F929F9215
:10173000AF92BF92CF92DF92EF92FF920F931F93DF
:10174000CF93DF93EC017B018091310590913205BD
:101750008C179D0708F06CC020912F053091300543
:101760002C173D0708F03DC0CE0108962817390711
:10177000C0F5A0902D05B0902E0590933005809374
:101780002F0526E0AC01249FC001259F900D112458
:10179000A8D790932E0580932D0500E010E0C12C72
:1017A000D12C8091310590913205C816D906B0F43C
:1017B0004501800E911E20912D0530912E05C90105
:1017C000800F911F009711F0B40197DFC4015ADF19
:1017D0005FEFC51AD50A0A5F1F4FE3CFC5010E940C
:1017E0000614009131051091320586E0809F60015A
:1017F000819FD00C1124A12CB12C0C171D0798F43B
:1018000020912D0530912E05C5018C0D9D1D820F57
:10181000931F009711F0B70170DF0F5F1F4F86E035
:10182000A80EB11CEACFD0933205C093310523C076
:10183000C817D90700F586E08C9F60018D9FD00CFA
:1018400011248E01E12CF12C80913105909132050B
:101850000817190740F7C7018C0D9D1D20912D0514
:1018600030912E05820F931F0DDF0F5F1F4F46E053
:10187000E40EF11CE9CFDF91CF911F910F91FF9002
:10188000EF90DF90CF90BF90AF909F908F90089592
:10189000EF92FF920F931F93CF93DF931F921F92AC
:1018A000CDB7DEB78C017B0160E673E02BDDC701AD
:1018B0003DDD97FD0AC089831A8241E050E0BE01F8
:1018C0006F5F7F4FC801D2DCF2CFC8010F900F903D
:1018D000DF91CF911F910F91FF90EF900895FC0140
:1018E000A089B18982E08C93A485B5851C92A685D8
:1018F000B7858FEC8C93108EA489B58986E08C9384
:10190000A289B3898C9180618C93A289B3898C91CF
:1019100088608C93A289B3898C9180688C930288AB
:10192000F389E02D80818F7D80830895009769F091
:10193000FC0101900020E9F73197AF01481B590BDA
:10194000BC0186E395E00C94420180E090E00895AC
:10195000CF93DF93CDB7DEB7EA970FB6F894DEBF2B
:101960000FBECDBF789484B5826084BD84B581609C
:1019700084BD85B5826085BD85B5816085BD80915A
:101980006E00816080936E001092810080918100D2
:1019900082608093810080918100816080938100CA
:1019A000809180008160809380008091B10084608C
:1019B0008093B1008091B00081608093B0008091ED
:1019C000910082608093910080919100816080936A
:1019D0009100809190008160809390008091A1009F
:1019E00082608093A1008091A10081608093A1001A
:1019F0008091A00081608093A0008091210182608D
:101A00008093210180912101816080932101809147
:101A1000200181608093200180917A00846080930E
:101A20007A0080917A00826080937A0080917A00B7
:101A3000816080937A0080917A00806880937A0038
:101A40001092C10080911B0587FD05C061E026DA78
:101A500080911B05CCDC81E08093160580911D05EB
:101A600090911E05892B09F039DD11E010931205C4
:101A70008AE0C82ED12CE12CF12CC0920405D09222
:101A80000505E0920605F092070580910805909102
:101A90000905A0910A05B0910B050A96A11DB11D7B
:101AA00080930C0590930D05A0930E05B0930F0540
:101AB0008CEF94E0909311058093100586E395E0F8
:101AC0000EDF8CE094E00BDF8FE693E008DF1093ED
:101AD000FF04C092F104D092F204E092F304F09279
:101AE000F4048091F5049091F604A091F704B0916C
:101AF000F8040A96A11DB11D8093F9049093FA048D
:101B0000A093FB04B093FC0488E895E09093FE0456
:101B10008093FD0482E095E037DB8FEE94E034DBC8
:101B20008CED94E031DB86E395E0D9DE06E09AE0C7
:101B3000892E912CA12CB12C77247A9489EA94E0F7
:101B40003CDA61E673E0CE01C596DCDBBE016B5C7E
:101B50007F4FCE018F96D1DD4AE060E070E0CE018C
:101B6000829695DDBE01615D7F4FCE018996C5DD10
:101B7000CE0189961DDCBE016E5D7F4F72DDBC011A
:101B8000CE010196BADDCE010196FEDBCE010196B3
:101B900079DDCE01899676DDCE01829673DD4BA983
:101BA0005CA96FA578A98CE094E00E9442014BA942
:101BB0005CA96FA578A98FE693E00E944201CE014F
:101BC0008F9660DDCE01C5965DDD809131059091E7
:101BD00032059FA38EA308969DA38CA39C01029F10
:101BE000C001039F900D11247CD59BA38AA3E12CF7
:101BF000F12CC12CD12C8EA19FA1C816D906A0F41E
:101C000060912D0570912E056E0D7F1D8AA19BA1FF
:101C10008E0D9F1D009709F070DD3FEFC31AD30AA8
:101C200086E0E80EF11CE7CF8091310590913205F6
:101C3000892BE9F0C12CD12CE12CF12C80913105BC
:101C400090913205E816F90670F480912D05909177
:101C50002E058C0D9D1D16DD9FEFE91AF90AE6E0B1
:101C6000CE0ED11CEBCF109232051092310520918F
:101C700031053091320540E050E019A2CE01819645
:101C80007C01CA01B901A50194016AD3605DF70125
:101C900062937F01211531054105510591F7CF016F
:101CA00045DE8EE593E042DEE12CF12CC12CD12CF7
:101CB0008EA19FA1C816D906A8F58AA19BA18E0D59
:101CC0009F1D62DB61E673E0CE0101961BDBEAA19A
:101CD000FBA1EE0DFF1D4D815E81848195818417EE
:101CE000950768F080819181009749F069817A8138
:101CF0006115710521F056D411E0892B09F010E02F
:101D0000CE010196BFDC112331F010922A0510920A
:101D10002B0570922C05FFEFCF1ADF0A26E0E20EAA
:101D2000F11CC6CFCE0182960DDA0E94570206CF73
:101D300085E195E0F1D98DE295E004DA83ED95E057
:101D40000E948A0481E096E00C94D304CF92DF9243
:101D5000EF92FF921F93CF93DF93CDB7DEB76597D6
:101D60000FB6F894DEBF0FBECDBF10927203109273
:101D7000710348EE53E060E070E0409373035093CA
:101D80007403609375037093760322E332E030931B
:101D9000700320936F0385ED90E090937C03809314
:101DA0007B0384ED90E090937E0380937D0380ED30
:101DB00090E09093800380937F0381ED90E0909377
:101DC00082038093810382ED90E09093840380935B
:101DD000830386ED90E090938603809385031092B1
:101DE00088031092890310928A0310928B03109239
:101DF0000F0410920E04409310045093110460934A
:101E000012047093130430930D0420930C048DEC92
:101E100090E090931904809318048CEC90E09093D8
:101E20001B0480931A0488EC90E090931D04809327
:101E30001C0489EC90E090931F0480931E048AECAC
:101E400090E090932104809320048EEC90E0909396
:101E500023048093220410922504109226041092E9
:101E600027041092280486E395E010923905109219
:101E7000380540933A0550933B0560933C057093B9
:101E80003D05309337052093360525EC30E030933F
:101E900043052093420524EC30E030934505209320
:101EA000440520EC30E0309347052093460521ECB3
:101EB00030E0309349052093480522EC30E0309320
:101EC0004B0520934A0526EC30E030934D052093D6
:101ED0004C0510924F05109250051092510510922A
:101EE000520561E270E07093190660931806109233
:101EF0001A0610921B0610921C0626E0C22ED12C48
:101F0000E12CF12CC0921D06D0921E06E0921F0615
:101F1000F0922006109221061092220610922306BB
:101F20001092240640E24093250610922706109254
:101F3000260610922A0623E036E0309329062093E5
:101F4000280620ED32E030930206209301062AEDA8
:101F500032E0309316062093150610920706109271
:101F60000606109209061092080610920B061092AF
:101F70000A0610920D0610920C0610920F0610928F
:101F80000E0610921106109210062EEA32E03093DF
:101F9000040620930306909314068093130650E1E1
:101FA000509312067093EF056093EE051092F005C2
:101FB0001092F1051092F205C092F305D092F4054B
:101FC000E092F505F092F6051092F7051092F805EB
:101FD0001092F9051092FA054093FB051092FD0549
:101FE0001092FC05109200061092D5051092D605AD
:101FF0001092D7051092D80549ED55E05093FF0592
:102000004093FE0548E552E05093D4054093D30534
:1020100042E652E05093EC054093EB051092DD054B
:102020001092DC051092DF051092DE051092E1059A
:102030001092E0051092E3051092E2051092E5057A
:102040001092E4051092E7051092E6053093DA0548
:102050002093D9059093EA058093E90528E0209321
:10206000E805909335058093340566E074E08EE1D1
:1020700094E0D3D2109232051092310588E090E0BE
:102080009093300580932F0580E390E02AD39093BE
:102090002E0580932D0581E080931505109216057D
:1020A000109218051092170510921A051092190532
:1020B0009FEF90931B0510921C0510921E05109225
:1020C0001D0580931F051092200592E09093210535
:1020D0008093220510922305109224051092250565
:1020E000109226051A8218861F86188A198A1A8A5B
:1020F0008E878B871C869D87898389E690E09E83E7
:102100008D83EFD29A878987009751F029E6FC01E9
:1021100011922A95E9F783E290E09C838B8304C0B7
:102120001E821D821C821B828DE08F838A81882300
:1021300031F061E08DE00E944E078DE058D9E5ED69
:10214000F1E0E491F0E0EE0FFF1FE255FE4F8591C4
:1021500094919C8B8B8BE5E7F1E0E491ED8B85E12D
:10216000FE013196A5E1B5E001900D928A95E1F767
:10217000CE0101960E948C088FEF80932A058093F0
:102180002B0580932C0594EFE92E92E0F92EF09226
:102190000305E092020511E010931205109211055B
:1021A0001092100510920C0510920D0510920E055C
:1021B00010920F050E94AF07609308057093090500
:1021C00080930A0590930B0522E035E030931405C7
:1021D0002093130510920405109205051092060530
:1021E0001092070560930C0570930D0580930E0502
:1021F00090930F05F092F004E092EF041093FF0427
:102200001092FE041092FD041092F9041092FA0448
:102210001092FB041092FC040E94AF076093F50437
:102220007093F6048093F7049093F8042FEE34E053
:1022300030930105209300051092F1041092F204EE
:102240001092F3041092F4046093F9047093FA046A
:102250008093FB049093FC04F092DD04E092DC0494
:102260001093EC041092EB041092EA041092E6042E
:102270001092E7041092E8041092E9040E94AF075C
:102280006093E2047093E3048093E4049093E50484
:102290002CED34E03093EE042093ED041092DE0434
:1022A0001092DF041092E0041092E1046093E604BF
:1022B0007093E7048093E8049093E904F092AA04F1
:1022C000E092A9041093B9041092B8041092B704D4
:1022D0001092B3041092B4041092B5041092B60494
:1022E0000E94AF076093AF047093B0048093B10471
:1022F0009093B20429EA34E03093BB042093BA04EB
:102300001092AB041092AC041092AD041092AE0483
:102310006093B3047093B4048093B5049093B604AF
:102320008AEE92E09093AA048093A9041092DB04B1
:102330001092DA04ECEBF4E01192119284E0EA3DA1
:10234000F807D1F765960FB6F894DEBF0FBECDBF84
:10235000DF91CF911F91FF90EF90DF90CF90089584
:10236000A1E21A2EAA1BBB1BFD010DC0AA1FBB1F99
:10237000EE1FFF1FA217B307E407F50720F0A21B0B
:10238000B30BE40BF50B661F771F881F991F1A9478
:1023900069F760957095809590959B01AC01BD01A2
:1023A000CF010895EE0FFF1F881F8BBF0790F69196
:1023B000E02D19946F927F928F929F92AF92BF926D
:1023C000CF92DF92EF92FF920F931F93CF93DF9301
:1023D000EC01009781F4CB01DF91CF911F910F9118
:1023E000FF90EF90DF90CF90BF90AF909F908F9035
:1023F0007F906F9076C1FC01E60FF71F9C01225081
:102400003109E217F30708F4A8C0D9010D911C9116
:10241000119706171707A8F00530110508F49BC09F
:10242000C80104978617970708F495C00250110950
:10243000061B170B019311936D937C93CF01E6D18B
:102440008AC05B01A01AB10A4C01800E911EA091B6
:102450003306B091340640E050E0E12CF12C1097A7
:1024600009F44AC0A815B905D1F56D907C90119773
:10247000630182E0C80ED11CCA14DB0480F1A30101
:102480004A195B096A0182E0C80ED11C1296BC9001
:1024900012971396AC91B5E0CB16D10440F0B282FE
:1024A000A38351834083D9016D937C930AC00E5F4F
:1024B0001F4FC301800F911FF90191838083EB2D82
:1024C000FA2FE114F10431F0D7011396FC93EE9347
:1024D000129741C0F0933406E09333063CC08D91CF
:1024E0009C9111974817590708F4AC017D01129689
:1024F0000D90BC91A02DB3CF809131069091320602
:1025000088159905E1F446175707C8F48091000231
:1025100090910102009741F48DB79EB7409104025B
:1025200050910502841B950BE817F907B0F4F0935E
:102530003206E0933106F901718360830CC0CB0150
:10254000D0D07C01009749F0A801BE011BD0CE017C
:102550005DD1C70104C0CE0102C080E090E0DF91F0
:10256000CF911F910F91FF90EF90DF90CF90BF9090
:10257000AF909F908F907F906F90089581E090E052
:10258000F894F3C1FB01DC0102C001900D924150AF
:102590005040D8F70895FB01DC0101900D92002016
:1025A000E1F70895FB01DC014150504030F08D917E
:1025B0000190801919F40020B9F7881B990B089530
:1025C0004532510518F4423008F004C0FB01108276
:1025D000CB010895BB274A3031F4992322F4BDE2A0
:1025E000909581959F4F01C0BB27FB015527AA27D6
:1025F000880F991FAA1FA41710F0A41B8395505190
:10260000B9F7A05DAA3308F0A95DA193009779F707
:10261000B111B1931192CB0198C10F931F93CF9336
:10262000DF93009731F46115710519F480E090E0B3
:1026300039C08B01EC016EE070E081E090E037D0B2
:10264000FC01892B99F380E883830115110571F052
:102650001387028781E8838380912B0690912C0653
:10266000892B21F4F0932C06E0932B062097C9F0D8
:10267000D187C08783818260838380912D0690916A
:102680002E06892B71F4F0932E06E0932D0680918F
:102690002F0690913006892B21F4F0933006E093B9
:1026A0002F06CF01DF91CF911F910F9108950F93C6
:1026B0001F93CF93DF93869F8001879F100D969F76
:1026C000100D1124C8010DD0EC01009721F0A801D4
:1026D00060E070E033D1CE01DF91CF911F910F9177
:1026E0000895CF93DF938230910510F482E090E05B
:1026F000E0913306F091340620E030E0C0E0D0E015
:10270000309711F14081518148175907C0F048179F
:10271000590761F482819381209719F09B838A8302
:102720002BC0909334068093330626C021153105C3
:1027300019F04217530718F49A01BE01DF01EF01A7
:102740000280F381E02DDCCF2115310509F1281B32
:10275000390B2430310590F412968D919C9113978A
:102760006115710521F0FB019383828304C090936E
:10277000340680933306FD01329644C0FD01E20F1A
:10278000F31F81939193225031092D933C933AC0CA
:102790002091310630913206232B41F42091020220
:1027A00030910302309332062093310620910002CB
:1027B000309101022115310541F42DB73EB740910A
:1027C000040250910502241B350BE0913106F09173
:1027D0003206E217F307A0F42E1B3F0B2817390728
:1027E00078F0AC014E5F5F4F2417350748F04E0F6D
:1027F0005F1F50933206409331068193919302C03C
:10280000E0E0F0E0CF01DF91CF9108950F931F93A7
:10281000CF93DF93009709F48CC0FC0132971382A9
:10282000128200913306109134060115110581F4CE
:1028300020813181820F931F209131063091320621
:102840002817390779F5F0933206E093310671C005
:10285000D80140E050E0AE17BF0750F412962D911A
:102860003C911397AD012115310509F1D901F3CF41
:102870009D01DA013383228360817181860F971F66
:102880008217930769F4EC0128813981260F371FDD
:102890002E5F3F4F318320838A819B819383828384
:1028A000452B29F4F0933406E093330642C0139687
:1028B000FC93EE931297ED01499159919E01240FDB
:1028C000351FE217F30771F480819181840F951F02
:1028D000029611969C938E938281938113969C937A
:1028E0008E931297E0E0F0E0D80112968D919C91C2
:1028F0001397009719F0F8018C01F6CF8D919C91F8
:1029000098012E5F3F4F820F931F20913106309127
:1029100032062817390769F4309729F410923406E3
:102920001092330602C01382128210933206009373
:102930003106DF91CF911F910F910895DC0101C005
:102940006D9341505040E0F70895DC01FC01672F82
:1029500071917723E1F7329704C07C916D93708376
:102960006291AE17BF07C8F3089511E0C8E0D1E047
:1029700000E005C0802FFE0115DD2196011DC93044
:0C298000D10780E00807B1F7F894FFCF02
:10298C000000350680001800000000000000000068
:10299C00E8FFE8FF00000000000014000000000049
:1029AC0000000000ECFFECFF000000000000000045
:1029BC000000F0014201A80186019A0136020600CE
:1029CC00000000006A046C04FAFFFAFF00006B04BC
:1029DC006E041800000000008A049F04E8FFE8FF62
:1029EC0000009604A80458020C02160262020000B1
:1029FC0000009F08680405040204FF03FC03F903AC
:102A0C000003FC02F902E302730387028502020051
:102A1C0000000000B304B504FEFFFEFF0000B40488
:102A2C00B70400000000A108FA0400000000A00890
:102A3C00B10405040204FF03FC03F903ED03A7032F
:102A4C008E037503730322030303140000000000BC
:102A5C00D304E804ECFFECFF0000DF04F104D00227
:102A6C0020022A02DA020000000056044304DD07AB
:102A7C000000000056044304BB07436865636B69A0
:102A8C006E6720666F72206D657373616765730086
:102A9C004C6F6F6B696E6720746F20526561642098
:102AAC0066726F6D204E4F525448424F554E442023
:102ABC0053657269616C004C6F6F6B696E67207443
:102ACC006F20526561642066726F6D20534F5554B0
:102ADC0048424F554E442053657269616C000D0A93
:062AEC0000424C554500BC
:00000001FF
