:1000000008C1000037C1000035C1000033C1000045
:1000100031C100002FC100002DC100002BC1000024
:1000200029C1000027C1000025C1000023C1000034
:1000300021C100001FC100001DC100001BC1000044
:1000400019C1000017C1000015C1000013C1000054
:1000500011C100000FC100000DC100000C94330C51
:1000600009C1000081C5000056C5000003C10000A1
:1000700001C10000FFC00000FDC00000FBC0000087
:10008000F9C00000F7C00000F5C00000F3C0000098
:1000900019C50000EEC40000EDC00000EBC0000078
:1000A000E9C00000E7C00000E5C00000E3C00000B8
:1000B000E1C00000DFC00000DDC00000DBC00000C8
:1000C000D9C00000D7C00000D5C00000A9C40000FE
:1000D0007EC40000CFC00000CDC00000CBC0000037
:1000E000C9C00000A406A70696069A069E06DE066C
:1000F000AB06AF06B506B906BD06C306C706CB06F6
:10010000DE06D106D506D90600002100240027000E
:100110002A002D0030003300010100000401070116
:100120000A0100000A0B02090C0D0E080703040166
:1001300000000000000000000000000000000000BF
:10014000000000000000000000000000000012118C
:10015000100000000000000000000000000000008F
:10016000000000000000000001021020200808101C
:100170002040102040800201020108040201010217
:1001800004081020408080402010080402018004F0
:10019000020180402010080402010804020101024B
:1001A0000408102040800102040810204080000054
:1001B0002200250028002B002E003100340002010F
:1001C0000000050108010B010505050507050808E4
:1001D0000808020202020A0A0808040404040101D1
:1001E00001010101010103030303030303030407E6
:1001F00007070C0C0C0C0C0C0C0C0202020206067D
:100200000606060606060B0B0B0B0B0B0B0BA10EC3
:10021000950E11241FBECFEFD1E2DEBFCDBF00E0AF
:100220000CBF13E0A0E0B2E0E6E3F9E200E00BBFB0
:1002300002C007900D92A636B107D9F726E0A6E6D0
:10024000B3E001C01D92A533B207E1F711E0C8E0A9
:10025000D1E000E006C021970109802FFE010E9435
:10026000A711C730D10780E00807A9F70E94B40C96
:100270000C948A14C5CECF93DF93A3EBB4E0FD01B9
:10028000C191D191209741F049895A89EC0129897E
:100290003A894217530711F1D4E0E13DFD0781F798
:1002A00020E030E04D915D91452B89F4220F331F02
:1002B000F901E056FB4F948B838B8091D104909190
:1002C000D20401969093D2048093D10407C02F5F8B
:1002D0003F4F2F30310531F780E001C081E0DF91E1
:1002E000CF910895CF92DF92EF92FF920F931F93D9
:1002F000CF93DF936C017A018B01C0E0D0E0CE1583
:10030000DF0589F0D8016D918D01D601ED91FC9149
:100310000190F081E02DC6011995892B11F47E0121
:1003200002C02196ECCFC701DF91CF911F910F91B1
:10033000FF90EF90DF90CF900895FC01A089B189E4
:100340008C91A689B78982FD0FC09C91818D8F5FAA
:100350008F73228D821749F0218DDF01A20FB11D0D
:100360005D969C93818F08958C910895FC01918DE9
:10037000828D981761F0828DDF01A80FB11D5D9607
:100380008C91928D9F5F9F73928F90E008958FEF75
:100390009FEF0895FC01918D828D981731F0828D29
:1003A000E80FF11D858D90E008958FEF9FEF089580
:1003B000FC01918D228D892F90E0805C9F4F821BE4
:1003C00091098F739927089586E693E0F1DF21E084
:1003D000892B09F420E0822F089583E094E0E8DF80
:1003E00021E0892B09F420E0822F08958DE295E029
:1003F000DFDF21E0892B09F420E0822F0895FC0142
:10040000848DDF01A80FB11DA35ABF4F2C91848D9D
:1004100090E001968F739927848FA689B7892C93D2
:10042000A089B1898C9180648C93938D848D98136D
:1004300006C00288F389E02D80818F7D8083089536
:10044000EF92FF920F931F93CF93DF93EC0181E024
:10045000888F9B8D8C8D981305C0E889F9898081E0
:1004600085FD23C0F62E0B8D10E00F5F1F4F0F731D
:100470001127E02E8C8DE8120BC00FB607FCFACFC7
:10048000E889F989808185FFF5CFCE01B8DFF2CF09
:100490008B8DFE01E80FF11DE35AFF4FF0820B8FA9
:1004A000EA89FB898081806207C0EE89FF896083C9
:1004B000E889F98980818064808381E090E0DF9120
:1004C000CF911F910F91FF90EF900895CF93DF93FD
:1004D000EC01888D8823C1F0EA89FB89808185FD44
:1004E00005C0A889B9898C9186FD0EC00FB607FC9E
:1004F000F5CF808185FFF2CFA889B9898C9185FFDE
:10050000EDCFCE017CDFE8CFDF91CF91089580E081
:1005100090E0892B19F06ADF81111BC080E090E028
:10052000892B19F05ADF811117C080E090E0892BE8
:1005300019F04ADF811113C080E090E0892BA1F00F
:1005400080E090E0892B81F00E94000081110AC0B8
:1005500008950E940000E2CF0E940000E6CF0E94B2
:100560000000EACF0C94000008950E9493120F93AC
:100570001F93CF93DF93EC0188819981009729F035
:100580002A813B812617370788F48B016F5F7F4FE5
:100590000E94AF11009761F0998388831B830A83BF
:1005A0002C813D81232B11F4FC01108281E001C0DC
:1005B00080E0DF91CF911F910F9108950F931F93CA
:1005C000CF93DF93EC010E94A00B688779878A871D
:1005D0009B87E881F9810680F781E02DCE0119958E
:1005E00097FF17C00E94A00B088519852A853B85B7
:1005F000DC01CB01801B910BA20BB30B0C811D8185
:100600002E813F8180179107A207B30710F38FEF68
:100610009FEFDF91CF911F910F910895CF93DF93BB
:10062000009771F0FC0101900020E9F73197AF01CC
:10063000481B590BBC018DE295E054DEEC0102C071
:10064000C0E0D0E042E050E06AEF72E08DE295E079
:1006500049DE8C0F9D1FDF91CF910895EF92FF929D
:100660000F931F93CF93DF93FC0124813581611594
:10067000710511F480E018C041155105A1F07B010E
:10068000EC018A01020F131FB80171DF882391F377
:10069000288139818C819D81B701820F931F0E942F
:1006A000A0121D830C8381E0DF91CF911F910F91E8
:1006B000FF90EF900895CF93DF93EC0188819981AB
:1006C000009711F00E94DB13198218821D821C8290
:1006D0001B821A82DF91CF910895CF93DF93EC01B3
:1006E000FB014481558160817181B8DF811102C0B5
:1006F000CE01E1DFCE01DF91CF910895EF92FF921D
:100700000F931F93CF93DF93EC017B018A01BA0112
:100710002EDF811103C0CE01CEDF07C01D830C8305
:10072000B701888199810E94A012CE01DF91CF91FB
:100730001F910F91FF90EF900895FC01118210829C
:1007400013821282158214826115710549F0FB0132
:1007500001900020E9F73197AF01461B570BCECF30
:100760000895FC01808191810C94DB13EF92FF923C
:100770000F931F93CF93DF93CDB7DEB762970FB67A
:10078000F894DEBF0FBECDBF8C01CB01F801118202
:100790001082138212821582148250E09E012F5F14
:1007A0003F4F7901B9010E94B512F7010190002075
:1007B000E9F73197AF014E195F09B701C8019EDF14
:1007C00062960FB6F894DEBF0FBECDBFDF91CF911A
:1007D0001F910F91FF90EF900895FB01DC0111969E
:1007E0001C921E9213961C921E92129715961C92A2
:1007F0001E9214978617970741F0608171816115E9
:10080000710519F04481558179CF08958F929F9297
:10081000AF92BF92CF92DF92EF92FF920F931F930E
:10082000CF93DF93EC017B018091280590912905FE
:100830008C179D0708F06DC0209126053091270583
:100840002C173D0708F03EC0CE010896281739073F
:10085000C8F5A0902405B0902505909327058093B6
:10086000260526E0AC01249FC001259F900D112490
:100870000E944613909325058093240500E010E024
:10088000C12CD12C8091280590912905C816D90634
:10089000B0F44501800E911E20912405309125056C
:1008A000C901800F911F009711F0B40196DFC401B8
:1008B00058DF5FEFC51AD50A0A5F1F4FE3CFC501A6
:1008C0000E94DB13009128051091290586E0809F86
:1008D0006001819FD00C1124A12CB12C0C171D0795
:1008E00098F42091240530912505C5018C0D9D1D9E
:1008F000820F931F009711F0B7016FDF0F5F1F4F3B
:1009000086E0A80EB11CEACFD0932905C093280534
:1009100023C0C817D90700F586E08C9F60018D9F22
:10092000D00C11248E01E12CF12C8091280590919E
:1009300029050817190740F7C7018C0D9D1D209147
:10094000240530912505820F931F0BDF0F5F1F4F8A
:1009500046E0E40EF11CE9CFDF91CF911F910F919A
:10096000FF90EF90DF90CF90BF90AF909F908F90CF
:100970000895EF92FF920F931F93CF93DF931F92EF
:100980001F92CDB7DEB78C017B016CEF72E0D5DE34
:10099000C70114DE97FD0AC089831A8241E050E046
:1009A000BE016F5F7F4FC80159DEF2CFC8010F90C3
:1009B0000F90DF91CF911F910F91FF90EF900895CD
:1009C000DC01ED91FC910190F081E02D19941F92D2
:1009D0000F920FB60F9211240BB60F922F933F93E5
:1009E0004F935F936F937F938F939F93AF93BF9337
:1009F000EF93FF9386E693E002DDFF91EF91BF91C5
:100A0000AF919F918F917F916F915F914F913F91A6
:100A10002F910F900BBE0F900FBE0F901F90189547
:100A20001F920F920FB60F9211240BB60F922F93B5
:100A30003F934F935F936F937F938F939F93AF9366
:100A4000BF93EF93FF9386E693E077DCFF91EF91FE
:100A5000BF91AF919F918F917F916F915F914F91D6
:100A60003F912F910F900BBE0F900FBE0F901F90D4
:100A700018951F920F920FB60F9211240BB60F927A
:100A80002F933F934F935F936F937F938F939F9396
:100A9000AF93BF93EF93FF9383E094E0B0DCFF91BB
:100AA000EF91BF91AF919F918F917F916F915F91E6
:100AB0004F913F912F910F900BBE0F900FBE0F9053
:100AC0001F9018951F920F920FB60F9211240BB61C
:100AD0000F922F933F934F935F936F937F938F93D7
:100AE0009F93AF93BF93EF93FF9383E094E025DC54
:100AF000FF91EF91BF91AF919F918F917F916F91F6
:100B00005F914F913F912F910F900BBE0F900FBEB1
:100B10000F901F9018951F920F920FB60F921124ED
:100B20000BB60F922F933F934F935F936F937F93E7
:100B30008F939F93AF93BF93EF93FF938DE295E0D5
:100B40005EDCFF91EF91BF91AF919F918F917F916B
:100B50006F915F914F913F912F910F900BBE0F902E
:100B60000FBE0F901F9018951F920F920FB60F9205
:100B700011240BB60F922F933F934F935F936F9374
:100B80007F938F939F93AF93BF93EF93FF938DE2E8
:100B900095E0D3DBFF91EF91BF91AF919F918F9142
:100BA0007F916F915F914F913F912F910F900BBE6D
:100BB0000F900FBE0F901F901895CF93DF9390E08A
:100BC000FC01E859FE4F2491FC01E853FE4F84914B
:100BD000882361F190E0880F991FFC01E85FFE4FC8
:100BE000C591D491FC01E255FE4FA591B4916111DC
:100BF00009C09FB7F8948881209582238883EC915F
:100C00002E230BC0623061F49FB7F8943881822F95
:100C1000809583238883EC912E2B2C939FBF06C055
:100C20008FB7F894E8812E2B28838FBFDF91CF9167
:100C30000895FC01A089B18982E08C93A485B585D3
:100C40001C92A685B7858FEC8C93108EA489B589EC
:100C500086E08C93A289B3898C9180618C93A28960
:100C6000B3898C9188608C93A289B3898C918068B8
:100C70008C930288F389E02D80818F7D8083089595
:100C8000CF93DF93FC0144815581608171818DE2B6
:100C900095E028DBEC0142E050E06AEF72E08DE283
:100CA00095E020DB8C0F9D1FDF91CF9108950F936E
:100CB0001F93CF93DF931F921F92CDB7DEB78C01A6
:100CC0008BE389831A8241E050E0BE016F5F7F4F62
:100CD000C801C4DC811102C0C801EDDCC8010F905D
:100CE0000F90DF91CF911F910F91089590E0FC013B
:100CF000EE5DFE4F4491FC01E859FE4F2491FC014A
:100D0000E853FE4F9491992309F467C0442309F4F2
:100D100055C050E0FA013197E231F10508F04EC0BC
:100D20008827EE58FF4F8F4F0C94A71180918000B9
:100D30008F7707C0809180008F7D03C080918000F5
:100D4000877F809380003AC084B58F7702C084B5D6
:100D50008F7D84BD33C08091B0008F7703C08091B8
:100D6000B0008F7D8093B00029C0809190008F7774
:100D700007C0809190008F7D03C080919000877F95
:100D8000809390001BC08091A0008F7707C0809156
:100D9000A0008F7D03C08091A000877F8093A0007A
:100DA0000DC0809120018F7707C0809120018F7D39
:100DB00003C080912001877F80932001E92FF0E01C
:100DC000EE0FFF1FE255FE4FA591B4918FB7F89437
:100DD000EC9120952E232C938FBF08950F931F9392
:100DE000CF93DF93CDB7DEB729970FB6F894DEBF68
:100DF0000FBECDBF80D400911A0510911B05209124
:100E00001C0530911D05DC01CB01801B910BA20B51
:100E1000B30B8C329140A105B10560F3F894809139
:100E20001005909111059A838983E0911405F09142
:100E30001505DF0111968081898790910C05E0915D
:100E40001E05F0911F0580912005992309F42EC0FD
:100E50009081982B98879081809589238F838F81AB
:100E60008C8388E08B8358856F8149853B812C81F9
:100E700089819A81508347FD252F3A952083262F1B
:100E800039F0441F00C000006083000000C0F2CFB2
:100E900038E04D9160830000019761F7F0931F05E2
:100EA000E0931E0549873B832C8338C09081982BA3
:100EB00098879081809589238F838F818E8388E0A6
:100EC0008D8358856F8149853D812E8189819A81E5
:100ED000508347FD252F00C000C0208300C000C004
:100EE00000C000C000C060830000262F3A9541F08A
:100EF000441F000000C000C000C000C000C0E8CF18
:100F000038E04D9100C0608300C0019709F7F0936D
:100F10001F05E0931E0549873D832E839A838983AD
:100F20007894E9D360931A0570931B0580931C0590
:100F300090931D0529960FB6F894DEBF0FBECDBF66
:100F4000DF91CF911F910F910895CB0108957F926A
:100F50008F929F92AF92BF92CF92DF92EF92FF92C9
:100F60000F931F93CF93DF93EC0149015A018B013B
:100F7000C12CD12C7601C814D904EA04FB0484F5F1
:100F8000F80171908F018F8580FF0BC0E881F98196
:100F90000084F185E02D20E144E060E070E0CE01C6
:100FA0001995EB85FC858D859E85E817F90738F442
:100FB00070828B859C8501969C878B870BC0E8810E
:100FC000F981672D70E0028CF38DE02DCE0119952B
:100FD000019649F02FEFC21AD20AE20AF20ACBCFE9
:100FE000B401C50102C0B601C701DF91CF911F91C5
:100FF0000F91FF90EF90DF90CF90BF90AF909F90B8
:101000008F907F900895CF93DF93EC01E881F98171
:101010000288F389E02D19958F3F2FEF920731F069
:101020002D813E812F5F3F4F3E832D83DF91CF91F6
:1010300008958FEF9FEF089560E070E0CB01089571
:1010400080E090E00895CB010895CF93DF93EC0109
:1010500088899989DC01ED91FC910480F581E02D6E
:101060001995892BA9F388899989DC01ED91FC9167
:101070000680F781E02DDF91CF911994CF93DF9314
:10108000EC0188899989DC01ED91FC910480F5815E
:10109000E02D1995892BA9F388899989DC01ED91B7
:1010A000FC910084F185E02DDF91CF911994AF92EE
:1010B000BF92CF92DF92EF92FF920F931F93CF9345
:1010C000DF9300D01F92CDB7DEB78C015B01C12C3E
:1010D000D12C7601F80180899189DC01ED91FC9198
:1010E0000680F781E02D29833A834B835C83199531
:1010F00029813A814B815C818F3F71F0C216D30602
:10110000E406F5064CF4D5018D935D01BFEFCB1AD3
:10111000DB0AEB0AFB0ADECFC701B6010F900F9086
:101120000F900F90DF91CF911F910F91FF90EF9053
:10113000DF90CF90BF90AF900895DC0150968D91D5
:101140009C915197DC01ED91FC910480F581E02D9B
:10115000199480E090E0089580E090E0089580E0A8
:1011600090E0089580E090E008950895CF93DF9394
:10117000C0912B05D0912C05E881F9810480F5817F
:10118000E02DCE011995892BB9F3E881F98106800C
:10119000F781E02DCE01DF91CF9119941F93CF936A
:1011A000DF93182FC0912B05D0912C058A3041F484
:1011B000E881F9810190F081E02D6DE0CE01199573
:1011C000E881F9810190F081E02D612FCE01199520
:1011D00021E030E0019711F420E030E0C901DF9117
:1011E000CF911F9108950F931F93FC0102851385E2
:1011F00024853585401B510B620B730B77FD02C0B4
:10120000808901C080E01F910F910895FC01428305
:1012100053836483758386819781A085B185480F48
:10122000591F6A1F7B1F42875387648775870895FC
:101230000C94DB13089508950C94DB13DC01ED91FD
:10124000FC91369720813181820F931FF5CFFB01EE
:1012500020813181FC0131832083FB014281538154
:10126000F901369720813181FC01E20FF31F518390
:101270004083089528E532E0FC013183208322E693
:1012800032E0318F208F68E672E0E1CFDC01ED9132
:10129000FC91369720813181820F931FEBCFCF9342
:1012A000DF93EC01E7DFCE01DF91CF910C94DB13EC
:1012B000DC01ED91FC91369720813181820F931FE3
:1012C000EECF0C94DB13089508950C94DB13DC012E
:1012D000ED91FC91369720813181820F931FF5CFDC
:1012E000FB0120813181FC0131832083FB0142819C
:1012F0005381F901369720813181FC01E20FF31F00
:1013000051834083089520ED32E0FC013183208336
:101310002AED32E0358B248B60EE72E0E1CFDC0108
:10132000ED91FC91369720813181820F931FEBCF95
:10133000CF93DF93EC01E7DFCE01DF91CF910C94E7
:10134000DB13DC01ED91FC91369720813181820F16
:10135000931FEECF0C94DB130F931F93CF93DF9368
:101360008C01EB016F3F8FEF780719F480E090E07C
:101370000DC06A3029F46DE0F8018089918920DB85
:101380006C2FF801808991891BDBCE01DF91CF9111
:101390001F910F9108958F929F92BF92CF92DF92EB
:1013A000EF92FF920F931F93CF93DF9300D01F9282
:1013B000CDB7DEB78C014B01C12CD12C7601C21602
:1013C000D306E406F50634F5F401B1904F01FAE0D6
:1013D000BF120DC06DE0F8018089918929833A839D
:1013E0004B835C83EDDA5C814B813A8129816B2DE3
:1013F000F8018089918929833A834B835C83E0DA01
:10140000FFEFCF1ADF0AEF0AFF0A5C814B813A81B6
:101410002981D5CFCA01B9010F900F900F900F907D
:10142000DF91CF911F910F91FF90EF90DF90CF90C0
:10143000BF909F908F9008954F925F926F927F928E
:101440008F929F92AF92BF92EF92FF920F931F9352
:10145000CF93DF9300E010E0E12CF12CC0E0D0E06E
:1014600080910E0590910F05C817D90708F061C04B
:10147000209121058091220590E0A0E0B0E0BA2FF4
:10148000A92F982F8827A22B20912305822B2D018D
:1014900066247724892E9A2EAB2EBB24482D382F14
:1014A00020911305222391F0622F70E0649DA0012A
:1014B000659D500D749D500D1124452E829E400156
:1014C0001124492D829FC0011124392F2091190523
:1014D000509116058091140590911505251303C0B0
:1014E0008E0D9F1D06C0800F911FFC01E20FF11DA4
:1014F000108220911605FC01E20FF11D408220911F
:101500001705FC01E20FF11D408320911805FC0135
:10151000E20FF11D30838091140590911505892B00
:1015200009F05CDC219683E0E80EF11C0C5F1F4F94
:1015300097CFDF91CF911F910F91FF90EF90BF90C8
:10154000AF909F908F907F906F905F904F90089595
:10155000CF93DF93CDB7DEB768970FB6F894DEBFB1
:101560000FBECDBF82E093E059D883E094E00E94A3
:10157000D801892B09F457C088E193E04FD863E084
:1015800074E0CE010196F5D94AE061E070E0CE0149
:101590000D96ECD8BE016F5F7F4FCE0107961DD927
:1015A000CE01079684DBBE01635F7F4F96D8BC01F6
:1015B000CE01439612D9CE01439662DBCE0143960B
:1015C000D0D8CE010796CDD8CE010D96CAD84AE024
:1015D00061E070E0CE010D96C9D8BE016F5F7F4F0C
:1015E000CE010796FAD8CE01079661DBBE01635F94
:1015F0007F4F73D8BC01CE014396EFD88091280568
:1016000090912905BE016D5E7F4F0196FFD8CE01F6
:101610004396A7D8CE010796A4D8CE010D96A1D89F
:10162000CE0101969ED886E693E00E94D801892BD0
:1016300009F458C08FE393E00E940E0366E673E05E
:10164000CE01019696D94AE062E070E0CE010D9697
:101650008DD8BE016F5F7F4FCE010796BED8CE01F9
:10166000079625DBBE01635F7F4F37D8BC01CE01F3
:101670004396B3D8CE01439603DBCE01439671D88F
:10168000CE0107966ED8CE010D966BD84AE062E087
:1016900070E0CE010D966AD8BE016F5F7F4FCE011C
:1016A00007969BD8CE01079602DBBE01635F7F4F92
:1016B00014D8BC01CE01439690D880912805909112
:1016C0002905BE016D5E7F4F0196A0D8CE014396DD
:1016D00048D8CE01079645D8CE010D9642D8CE0106
:1016E00001963FD868960FB6F894DEBF0FBECDBF07
:1016F000DF91CF9108953FB7F8948091270690919C
:101700002806A0912906B0912A0626B5A89B05C0F7
:101710002F3F19F00196A11DB11D3FBFBA2FA92F70
:10172000982F8827820F911DA11DB11DBC01CD01ED
:1017300042E0660F771F881F991F4A95D1F70895D9
:101740002FB7F894609123067091240680912506A6
:10175000909126062FBF08950F931F93CF93DF9389
:10176000EC01EE85FF85309709F01995E9DF6E836E
:101770007F83888799870A811B812C813D81DC01C9
:10178000CB01800F911FA21FB31F8A879B87AC8755
:10179000BD87DF91CF911F910F9108958F929F92F6
:1017A000AF92BF92CF92DF92EF92FF920F931F936F
:1017B000CF93DF93EC01EE85FF85309709F0199503
:1017C000BFDF4B015C018E016E012EE1C20ED11C08
:1017D000E12CF12C89A99AA98E159F0524F1D80135
:1017E00053968D919C9154970097C1F0BFEFEB1ADF
:1017F000FB0ADC01ED91FC910280F381E02DB50143
:10180000A4011995882351F0F80183899489DC019A
:10181000ED91FC910480F581E02D19950E5F1F4F2D
:101820000C151D05B9F68CDF6E837F838887998739
:101830000A811B812C813D81DC01CB01800F911F2E
:10184000A21FB31F8A879B87AC87BD87DF91CF918B
:101850001F910F91FF90EF90DF90CF90BF90AF90CE
:101860009F908F9008951F920F920FB60F921124A0
:101870002F933F938F939F93AF93BF9380912306B2
:1018800090912406A0912506B0912606309122065B
:1018900023E0230F2D3720F40196A11DB11D05C0B3
:1018A00026E8230F0296A11DB11D209322068093E6
:1018B000230690932406A0932506B09326068091D4
:1018C000270690912806A0912906B0912A06019634
:1018D000A11DB11D8093270690932806A093290689
:1018E000B0932A06BF91AF919F918F913F912F9115
:1018F0000F900FBE0F901F901895CF93DF93EC01C0
:1019000088859985009709F056D78E8187FD04C098
:1019100060E0DF91CF9151C9DF91CF910895089593
:1019200008950895EF92FF920F931F93CF93DF9343
:101930007C0100E010E0C0E0D0E0F70124813581B7
:1019400080819181C217D30740F4800F911F0E94BC
:10195000B10321960A5F1F4FF0CFDF91CF911F9106
:101960000F91FF90EF9027C7CF93DF93CDB7DEB7EE
:101970006F970FB6F894DEBF0FBECDBF789484B5D5
:10198000826084BD84B5816084BD85B5826085BD7B
:1019900085B5816085BD80916E00816080936E0009
:1019A00010928100809181008260809381008091FB
:1019B00081008160809381008091800081608093AC
:1019C00080008091B10084608093B1008091B0006C
:1019D00081608093B000809191008260809391003B
:1019E000809191008160809391008091900081604E
:1019F000809390008091A10082608093A1008091EB
:101A0000A10081608093A1008091A00081608093FB
:101A1000A0008091210182608093210180912101A9
:101A20008160809321018091200181608093200159
:101A300080917A00846080937A0080917A0082603D
:101A400080937A0080917A00816080937A008091FF
:101A50007A00806880937A001092C100809112050C
:101A600087FD05C061E0A9D8809112053FD981E0CA
:101A700080930D058091140590911505892B09F02F
:101A8000ADD911E0109309058AE0C82ED12CE12CC4
:101A9000F12CC092FB04D092FC04E092FD04F09281
:101AA000FE048091FF0490910005A0910105B09182
:101AB00002050A96A11DB11D8093030590930405AC
:101AC000A0930505B09306058CE19AE09093080574
:101AD000809307058DE295E0ACD883E094E0A9D827
:101AE00086E693E0A6D81093F604C092E804D0925C
:101AF000E904E092EA04F092EB048091EC04909106
:101B0000ED04A091EE04B091EF040A96A11DB11D61
:101B10008093F0049093F104A093F204B093F30443
:101B200088EA9AE09093F5048093F40489EF94E0B6
:101B30000E943B0186EE94E00E943B0183ED94E01D
:101B40000E943B018DE295E074D806E0BB24BA9474
:101B500080EA94E023DE6DEF72E0CE014A960E94A7
:101B60009D03BE01665E7F4FCE0144960E94ED0349
:101B70004AE060E070E0CE0108960E94B603BE0124
:101B80006C5E7F4FCE010E960E94ED03CE010E9645
:101B90008ED8BE01685F7F4F0E946D03BC01CE01ED
:101BA00001960E94ED03CE0101966AD8CE010196FE
:101BB0000E94B103CE010E960E94B103CE01089699
:101BC0000E94B103488D598D6C897D8983E094E032
:101BD0000E947201488D598D6C897D8986E693E05B
:101BE0000E947201CE0144960E94B103CE014A9632
:101BF0000E94B10380912805909129059E838D83D1
:101C000008969C838B839C01029FC001039F900DCB
:101C100011243CD59A838983E12CF12CC12CD12C41
:101C20008D819E81C816D906A8F460912405709113
:101C300025056E0D7F1D89819A818E0D9F1D009750
:101C400011F00E94ED033FEFC31AD30A86E0E80EBD
:101C5000F11CE6CF8091280590912905892BF1F0A0
:101C6000C12CD12CE12CF12C8091280590912905D3
:101C7000E816F90678F480912405909125058C0DDD
:101C80009D1D0E94B1032FEFE21AF20A36E0C30E47
:101C9000D11CEACF1092290510922805E12CF12CD5
:101CA000C12CD12C8D819E81C816D906C0F58981A1
:101CB0009A818E0D9F1D0E9440066DEF72E0CE014D
:101CC00008960E949D03E981FA81EE0DFF1D4C8567
:101CD0005D85848195818417950768F08081918165
:101CE000009749F0688579856115710521F02FD439
:101CF00011E0892B09F010E0CE0108960E94B10393
:101D0000112331F01092210510922205B092230583
:101D10008FEFC81AD80A26E0E20EF11CC3CFCE011D
:101D2000019600DE0E94870213CF8CE095E0E5DD8E
:101D300084E295E0F7DD8AEC95E09CDA88EF95E0A7
:101D4000E2CACF92DF92EF92FF921F93CF93DF937D
:101D5000CDB7DEB765970FB6F894DEBF0FBECDBF27
:101D6000109269031092680348EE53E060E070E05F
:101D700040936A0350936B0360936C0370936D03FD
:101D800022E332E0309367032093660385ED90E011
:101D9000909373038093720384ED90E090937503A6
:101DA0008093740380ED90E09093770380937603A3
:101DB00081ED90E0909379038093780382ED90E039
:101DC00090937B0380937A0386ED90E090937D035C
:101DD00080937C0310927F03109280031092810302
:101DE0001092820310920604109205044093070497
:101DF000509308046093090470930A043093040418
:101E0000209303048DEC90E09093100480930F04D2
:101E10008CEC90E0909312048093110488EC90E095
:101E2000909314048093130489EC90E0909316042B
:101E3000809315048AEC90E0909318048093170423
:101E40008EEC90E090931A048093190410921C0475
:101E500010921D0410921E0410921F048DE295E052
:101E60001092300510922F054093310550933205A2
:101E7000609333057093340530932E0520932D0520
:101E800025EC30E030933A052093390524EC30E01E
:101E900030933C0520933B0520EC30E030933E0529
:101EA00020933D0521EC30E03093400520933F0521
:101EB00022EC30E0309342052093410526EC30E0DF
:101EC0003093440520934305109246051092470530
:101ED000109248051092490561E270E07093100677
:101EE00060930F06109211061092120610921306BC
:101EF00026E0C22ED12CE12CF12CC0921406D092F7
:101F00001506E0921606F092170610921806109227
:101F1000190610921A0610921B0640E240931C0606
:101F200010921E0610921D06109221062AEF35E02F
:101F30003093200620931F0620ED32E03093F90500
:101F40002093F8052AED32E030930D0620930C061D
:101F50001092FE051092FD05109200061092FF05EA
:101F600010920206109201061092040610920306C7
:101F700010920606109205061092080610920706A7
:101F80002EEA32E03093FB052093FA0590930B067E
:101F900080930A0650E1509309067093E60560931A
:101FA000E5051092E7051092E8051092E905C09248
:101FB000EA05D092EB05E092EC05F092ED05109267
:101FC000EE051092EF051092F0051092F105409386
:101FD000F2051092F4051092F3051092F705109295
:101FE000CC051092CD051092CE051092CF0540ED94
:101FF00055E05093F6054093F50548E552E05093BF
:10200000CB054093CA0542E652E05093E305409366
:10201000E2051092D4051092D3051092D6051092C5
:10202000D5051092D8051092D7051092DA051092B6
:10203000D9051092DC051092DB051092DE05109296
:10204000DD053093D1052093D0059093E105809371
:10205000E00528E02093DF0590932C0580932B0565
:1020600066EB78E08EEC98E0ADD2109229051092E4
:10207000280588E090E0909327058093260580E36B
:1020800090E004D3909325058093240581E080930C
:102090000C0510920D0510920F0510920E0510926E
:1020A0001105109210059FEF9093120510921305E1
:1020B00010921505109214058093160510921705BD
:1020C00092E0909318058093190510921A051092CA
:1020D0001B0510921C0510921D051A8218861F867A
:1020E000188A198A1A8A8E878B871C869D8789830E
:1020F00089E690E09E838D83C9D29A87898700976D
:1021000051F029E6FC0111922A95E9F783E290E06B
:102110009C838B8304C01E821D821C821B828DE0E7
:102120008F838A81882339F061E08DE00E94DD058C
:102130008DE00E947606E5EDF1E0E491F0E0EE0F2F
:10214000FF1FE255FE4F859194919C8B8B8BE5E7A9
:10215000F1E0E491ED8B85E1FE013196ACE0B5E074
:1021600001900D928A95E1F7CE010196C6DB8FEFC3
:1021700080932105809322058093230594EFE92E17
:1021800092E0F92EF092FA04E092F90411E0109333
:102190000905109208051092070510920305109288
:1021A00004051092050510920605CADA6093FF0433
:1021B00070930005809301059093020529EF34E0A8
:1021C00030930B0520930A051092FB041092FC0437
:1021D0001092FD041092FE046093030570930405B1
:1021E0008093050590930605F092E704E092E604DB
:1021F0001093F6041092F5041092F4041092F00477
:102200001092F1041092F2041092F30499DA6093A0
:10221000EC047093ED048093EE049093EF0426EEAB
:1022200034E03093F8042093F7041092E8041092FD
:10223000E9041092EA041092EB046093F0047093A6
:10224000F1048093F2049093F304F092D404E092AA
:10225000D3041093E3041092E2041092E10410926C
:10226000DD041092DE041092DF041092E00468DABC
:102270006093D9047093DA048093DB049093DC04B8
:1022800023ED34E03093E5042093E4041092D50468
:102290001092D6041092D7041092D8046093DD04F3
:1022A0007093DE048093DF049093E004F092A10425
:1022B000E092A0041093B0041092AF041092AE0408
:1022C0001092AA041092AB041092AC041092AD04C8
:1022D00037DA6093A6047093A7048093A8049093C0
:1022E000A90420EA34E03093B2042093B1041092A0
:1022F000A2041092A3041092A4041092A504609367
:10230000AA047093AB048093AC049093AD048AEE5E
:1023100092E09093A1048093A0041092D2041092B2
:10232000D104E3EBF4E01192119284E0E13DF8076F
:10233000D1F765960FB6F894DEBF0FBECDBFDF9123
:10234000CF911F91FF90EF90DF90CF900895EE0F07
:10235000FF1F881F8BBF0790F691E02D19946F9295
:102360007F928F929F92AF92BF92CF92DF92EF9225
:10237000FF920F931F93CF93DF93EC01009781F4AB
:10238000CB01DF91CF911F910F91FF90EF90DF90E4
:10239000CF90BF90AF909F908F907F906F9076C1BD
:1023A000FC01E60FF71F9C0122503109E217F307E9
:1023B00008F4A8C0D9010D911C91119706171707B1
:1023C000A8F00530110508F49BC0C80104978617D2
:1023D000970708F495C002501109061B170B0193CB
:1023E00011936D937C93CF01E6D18AC05B01A01A53
:1023F000B10A4C01800E911EA0913306B0913406B3
:1024000040E050E0E12CF12C109709F44AC0A815E7
:10241000B905D1F56D907C901197630182E0C80EEB
:10242000D11CCA14DB0480F1A3014A195B096A01BB
:1024300082E0C80ED11C1296BC9012971396AC91F4
:10244000B5E0CB16D10440F0B282A3835183408320
:10245000D9016D937C930AC00E5F1F4FC301800F9B
:10246000911FF90191838083EB2DFA2FE114F10480
:1024700031F0D7011396FC93EE93129741C0F0937D
:102480003406E09333063CC08D919C911197481718
:10249000590708F4AC017D0112960D90BC91A02D56
:1024A000B3CF809131069091320688159905E1F4F9
:1024B00046175707C8F480910002909101020097D7
:1024C00041F48DB79EB74091040250910502841BE0
:1024D000950BE817F907B0F4F0933206E093310654
:1024E000F901718360830CC0CB01D0D07C010097CF
:1024F00049F0A801BE011BD0CE015DD1C70104C0C7
:10250000CE0102C080E090E0DF91CF911F910F914A
:10251000FF90EF90DF90CF90BF90AF909F908F9003
:102520007F906F90089581E090E0F894F3C1FB01F3
:10253000DC0102C001900D9241505040D8F708953F
:10254000FB01DC0101900D920020E1F70895FB01F1
:10255000DC014150504030F08D910190801919F408
:102560000020B9F7881B990B08954532510518F4DE
:10257000423008F004C0FB011082CB010895BB2754
:102580004A3031F4992322F4BDE2909581959F4F12
:1025900001C0BB27FB015527AA27880F991FAA1F37
:1025A000A41710F0A41B83955051B9F7A05DAA336E
:1025B00008F0A95DA193009779F7B111B193119239
:1025C000CB0198C10F931F93CF93DF93009731F402
:1025D0006115710519F480E090E039C08B01EC01C0
:1025E0006EE070E081E090E037D0FC01892B99F338
:1025F00080E883830115110571F01387028781E854
:10260000838380912B0690912C06892B21F4F093E3
:102610002C06E0932B062097C9F0D187C0878381D1
:102620008260838380912D0690912E06892B71F410
:10263000F0932E06E0932D0680912F0690913006A0
:10264000892B21F4F0933006E0932F06CF01DF9120
:10265000CF911F910F9108950F931F93CF93DF9305
:10266000869F8001879F100D969F100D1124C80131
:102670000DD0EC01009721F0A80160E070E033D1AB
:10268000CE01DF91CF911F910F910895CF93DF93EA
:102690008230910510F482E090E0E0913306F091F1
:1026A000340620E030E0C0E0D0E0309711F1408106
:1026B000518148175907C0F04817590761F48281C2
:1026C0009381209719F09B838A832BC090933406C3
:1026D0008093330626C02115310519F042175307A0
:1026E00018F49A01BE01DF01EF010280F381E02DB1
:1026F000DCCF2115310509F1281B390B24303105B8
:1027000090F412968D919C9113976115710521F0AB
:10271000FB019383828304C0909334068093330635
:10272000FD01329644C0FD01E20FF31F81939193A6
:10273000225031092D933C933AC0209131063091BB
:102740003206232B41F42091020230910302309390
:1027500032062093310620910002309101022115AA
:10276000310541F42DB73EB7409104025091050266
:10277000241B350BE0913106F0913206E217F30786
:10278000A0F42E1B3F0B2817390778F0AC014E5FE1
:102790005F4F2417350748F04E0F5F1F50933206E6
:1027A000409331068193919302C0E0E0F0E0CF01C5
:1027B000DF91CF9108950F931F93CF93DF930097ED
:1027C00009F48CC0FC013297138212820091330607
:1027D000109134060115110581F420813181820F99
:1027E000931F20913106309132062817390779F569
:1027F000F0933206E093310671C0D80140E050E01A
:10280000AE17BF0750F412962D913C911397AD016E
:102810002115310509F1D901F3CF9D01DA01338387
:10282000228360817181860F971F8217930769F455
:10283000EC0128813981260F371F2E5F3F4F3183EE
:1028400020838A819B8193838283452B29F4F09393
:102850003406E093330642C01396FC93EE9312972E
:10286000ED01499159919E01240F351FE217F3079D
:1028700071F480819181840F951F029611969C932B
:102880008E938281938113969C938E931297E0E0AE
:10289000F0E0D80112968D919C911397009719F052
:1028A000F8018C01F6CF8D919C9198012E5F3F4FDE
:1028B000820F931F20913106309132062817390775
:1028C00069F4309729F4109234061092330602C04E
:1028D000138212821093320600933106DF91CF915A
:1028E0001F910F910895DC0101C06D93415050403C
:1028F000E0F70895DC01FC01672F71917723E1F780
:10290000329704C07C916D9370836291AE17BF07BC
:10291000C8F3089511E0C8E0D1E000E005C0802FC1
:10292000FE0115DD2196011DC930D10780E00807A1
:06293000B1F7F894FFCF9F
:1029360000003506800018000000000000000000BE
:10294600E8FFE8FF0000000000001400000000009F
:1029560000000000ECFFECFF00000000000000009B
:10296600000020027201D801B601CA016602060003
:10297600000000001A091C09FAFFFAFF00001B09F3
:102986001E091800000000003A094F09E8FFE8FF99
:1029960000004609580958020C021602620200009D
:1029A60000008F0C1809B508B208AF08AC08A908D2
:1029B60020081C08190803082308A707A507020012
:1029C6000000000063096509FEFFFEFF00006409C0
:1029D600670900000000910CAA0900000000900C95
:1029E6006109B508B208AF08AC08A9089D085708E0
:1029F6003E0825082308CB09AC0914000000000096
:102A060083099809ECFFECFF00008F09A109D002A9
:102A160020022A02DA02000000000609F308CE0BA3
:102A2600000000000609F308AC0B0D0A00424C55E5
:102A36004500436865636B696E6720666F72206D3B
:102A460065737361676573004C6F6F6B696E6720A2
:102A5600746F20526561642066726F6D204E4F520E
:102A66005448424F554E442053657269616C004C80
:102A76006F6F6B696E6720746F20526561642066A4
:102A8600726F6D20534F555448424F554E44205354
:062A9600657269616C002D
:00000001FF
