:1000000008C1000037C1000035C1000033C1000045
:1000100031C100002FC100002DC100002BC1000024
:1000200029C1000027C1000025C1000023C1000034
:1000300021C100001FC100001DC100001BC1000044
:1000400019C1000017C1000015C1000013C1000054
:1000500011C100000FC100000DC100000C94540933
:1000600009C1000093C3000068C3000003C1000081
:1000700001C10000FFC00000FDC00000FBC0000087
:10008000F9C00000F7C00000F5C00000F3C0000098
:100090002BC3000000C30000EDC00000EBC0000057
:1000A000E9C00000E7C00000E5C00000E3C00000B8
:1000B000E1C00000DFC00000DDC00000DBC00000C8
:1000C000D9C00000D7C00000D5C00000BBC20000EE
:1000D00090C20000CFC00000CDC00000CBC0000027
:1000E000C9C000007E048104700474047804B8045C
:1000F000850489048F04930497049D04A104A50436
:10010000B804AB04AF04B3040000210024002700AE
:100110002A002D0030003300010100000401070116
:100120000A0100000A0B02090C0D0E080703040166
:1001300000000000000000000000000000000000BF
:10014000000000000000000000000000000012118C
:10015000100000000000000000000000000000008F
:10016000000000000000000001021020200808101C
:100170002040102040800201020108040201010217
:1001800004081020408080402010080402018004F0
:10019000020180402010080402010804020101024B
:1001A0000408102040800102040810204080000054
:1001B0002200250028002B002E003100340002010F
:1001C0000000050108010B010505050507050808E4
:1001D0000808020202020A0A0808040404040101D1
:1001E00001010101010103030303030303030407E6
:1001F00007070C0C0C0C0C0C0C0C0202020206067D
:100200000606060606060B0B0B0B0B0B0B0B710CF5
:10021000620C11241FBECFEFD1E2DEBFCDBF00E0E4
:100220000CBF13E0A0E0B2E0E0ECF3E200E00BBFB3
:1002300002C007900D92AC30B107D9F725E0ACE0D1
:10024000B3E001C01D92A23EB207E1F711E0C8E0A1
:10025000D1E000E006C021970109802FFE010E9435
:10026000F60EC730D10780E00807A9F70E94FF0902
:100270000C94CF11C5CECF92DF92EF92FF920F93E5
:100280001F93CF93DF936C017A018B01C0E0D0E024
:10029000CE15DF0589F0D8016D918D01D601ED9164
:1002A000FC910190F081E02DC6011995892B11F484
:1002B0007E0102C02196ECCFC701DF91CF911F9143
:1002C0000F91FF90EF90DF90CF900895FC01A089EF
:1002D000B1898C91A689B78982FD0FC09C91818DCF
:1002E0008F5F8F73228D821749F0218DDF01A20F5E
:1002F000B11D5D969C93818F08958C910895FC01AA
:10030000918D828D981761F0828DDF01A80FB11D4C
:100310005D968C91928D9F5F9F73928F90E0089570
:100320008FEF9FEF0895FC01918D828D981731F02A
:10033000828DE80FF11D858D90E008958FEF9FEF7E
:100340000895FC01918D228D892F90E0805C9F4F54
:10035000821B91098F739927089580E193E0F1DF63
:1003600021E0892B09F420E0822F08958DEA93E0A3
:10037000E8DF21E0892B09F420E0822F08958EED3B
:1003800094E0DFDF21E0892B09F420E0822F08953B
:10039000FC01848DDF01A80FB11DA35ABF4F2C9122
:1003A000848D90E001968F739927848FA689B789F1
:1003B0002C93A089B1898C9180648C93938D848DCA
:1003C000981306C00288F389E02D80818F7D808399
:1003D0000895EF92FF920F931F93CF93DF93EC0159
:1003E00081E0888F9B8D8C8D981305C0E889F989F1
:1003F000808185FD23C0F62E0B8D10E00F5F1F4F0F
:100400000F731127E02E8C8DE8120BC00FB607FC7E
:10041000FACFE889F989808185FFF5CFCE01B8DF71
:10042000F2CF8B8DFE01E80FF11DE35AFF4FF082F2
:100430000B8FEA89FB898081806207C0EE89FF8982
:100440006083E889F98980818064808381E090E01D
:10045000DF91CF911F910F91FF90EF900895CF936F
:10046000DF93EC01888D8823C1F0EA89FB898081C4
:1004700085FD05C0A889B9898C9186FD0EC00FB68F
:1004800007FCF5CF808185FFF2CFA889B9898C91CF
:1004900085FFEDCFCE017CDFE8CFDF91CF910895CE
:1004A00080E090E0892B19F06ADF81111BC080E0A9
:1004B00090E0892B19F05ADF811117C080E090E09D
:1004C000892B19F04ADF811113C080E090E0892B5D
:1004D000A1F080E090E0892B81F00E940000811162
:1004E0000AC008950E940000E2CF0E940000E6CFFB
:1004F0000E940000EACF0C94000008950E94E20FD1
:100500000F931F93CF93DF93EC018881998100971C
:1005100029F02A813B812617370788F48B016F5F0A
:100520007F4F0E94FE0E009761F0998388831B83A2
:100530000A832C813D81232B11F4FC01108281E080
:1005400001C080E0DF91CF911F910F910895CF936B
:10055000DF93EC0188819981009711F00E942011AE
:10056000198218821D821C821B821A82DF91CF9110
:100570000895EF92FF920F931F93CF93DF93EC01B7
:100580007B018A01BA01BCDF811103C0CE01DFDF2C
:1005900007C01D830C83B701888199810E94EF0FEA
:1005A000CE01DF91CF911F910F91FF90EF900895B1
:1005B000CF93DF93EC01FB018617970751F0608121
:1005C00071816115710521F044815581D2DF01C02F
:1005D000BEDFCE01DF91CF910895FC018081918132
:1005E0000C942011DC01ED91FC910190F081E02D43
:1005F00019941F920F920FB60F9211240BB60F92FF
:100600002F933F934F935F936F937F938F939F931A
:10061000AF93BF93EF93FF9380E193E0B9DEFF9137
:10062000EF91BF91AF919F918F917F916F915F916A
:100630004F913F912F910F900BBE0F900FBE0F90D7
:100640001F9018951F920F920FB60F9211240BB6A0
:100650000F922F933F934F935F936F937F938F935B
:100660009F93AF93BF93EF93FF9380E193E02EDED0
:10067000FF91EF91BF91AF919F918F917F916F917A
:100680005F914F913F912F910F900BBE0F900FBE36
:100690000F901F9018951F920F920FB60F92112472
:1006A0000BB60F922F933F934F935F936F937F936C
:1006B0008F939F93AF93BF93EF93FF938DEA93E054
:1006C00067DEFF91EF91BF91AF919F918F917F91E5
:1006D0006F915F914F913F912F910F900BBE0F90B3
:1006E0000FBE0F901F9018951F920F920FB60F928A
:1006F00011240BB60F922F933F934F935F936F93F9
:100700007F938F939F93AF93BF93EF93FF938DEA64
:1007100093E0DCDDFF91EF91BF91AF919F918F91BD
:100720007F916F915F914F913F912F910F900BBEF1
:100730000F900FBE0F901F9018951F920F920FB63B
:100740000F9211240BB60F922F933F934F935F9309
:100750006F937F938F939F93AF93BF93EF93FF9389
:100760008EED94E015DEFF91EF91BF91AF919F91D7
:100770008F917F916F915F914F913F912F910F904A
:100780000BBE0F900FBE0F901F9018951F920F92E7
:100790000FB60F9211240BB60F922F933F934F93E6
:1007A0005F936F937F938F939F93AF93BF93EF93D9
:1007B000FF938EED94E08ADDFF91EF91BF91AF91B1
:1007C0009F918F917F916F915F914F913F912F9169
:1007D0000F900BBE0F900FBE0F901F901895CF93E8
:1007E000DF9390E0FC01E859FE4F2491FC01E853AF
:1007F000FE4F8491882361F190E0880F991FFC01DE
:10080000E85FFE4FC591D491FC01E255FE4FA591E2
:10081000B491611109C09FB7F89488812095822313
:100820008883EC912E230BC0623061F49FB7F8945B
:100830003881822F809583238883EC912E2B2C93F3
:100840009FBF06C08FB7F894E8812E2B28838FBFF7
:10085000DF91CF9108953FB7F89480910C03909168
:100860000D03A0910E03B0910F0326B5A89B05C000
:100870002F3F19F00196A11DB11D3FBFBA2FA92F1F
:10088000982F8827820F911DA11DB11DBC01CD019C
:1008900042E0660F771F881F991F4A95D1F7089588
:1008A00090E0FC01EE5DFE4F4491FC01E859FE4FE3
:1008B0002491FC01E853FE4F9491992309F467C0F9
:1008C000442309F455C050E0FA013197E231F105B3
:1008D00008F04EC08827EE58FF4F8F4F0C94F60E4D
:1008E000809180008F7707C0809180008F7D03C04A
:1008F00080918000877F809380003AC084B58F7795
:1009000002C084B58F7D84BD33C08091B0008F77E5
:1009100003C08091B0008F7D8093B00029C080918A
:1009200090008F7707C0809190008F7D03C08091E9
:100930009000877F809390001BC08091A0008F77EC
:1009400007C08091A0008F7D03C08091A000877FA9
:100950008093A0000DC0809120018F7707C0809107
:1009600020018F7D03C080912001877F809320012B
:10097000E92FF0E0EE0FFF1FE255FE4FA591B49175
:100980008FB7F894EC9120952E232C938FBF089568
:100990000F931F93CF93DF93CDB7DEB729970FB691
:1009A000F894DEBF0FBECDBF56DF0091C404109196
:1009B000C5042091C6043091C704DC01CB01801B23
:1009C000910BA20BB30B8C329140A105B10560F3E2
:1009D000F8948091BA049091BB049A838983E09142
:1009E000BE04F091BF04DF01119680818987909148
:1009F000B604E091C804F091C9048091CA04992317
:100A000009F42EC09081982B988790818095892336
:100A10008F838F818C8388E08B8358856F81498594
:100A20003B812C8189819A81508347FD252F3A95FE
:100A30002083262F39F0441F00C00000608300008F
:100A400000C0F2CF38E04D9160830000019761F75C
:100A5000F093C904E093C80449873B832C8338C0D2
:100A60009081982B98879081809589238F838F819F
:100A70008E8388E08D8358856F8149853D812E81E5
:100A800089819A81508347FD252F00C000C02083B3
:100A900000C000C000C000C000C060830000262F5E
:100AA0003A9541F0441F000000C000C000C000C0E3
:100AB00000C0E8CF38E04D9100C0608300C00197CE
:100AC00009F7F093C904E093C80449873D832E8356
:100AD0009A8389837894BFDE6093C4047093C504BD
:100AE0008093C6049093C70429960FB6F894DEBF8E
:100AF0000FBECDBFDF91CF911F910F910895CF937E
:100B0000DF93ADE5B4E0FD01C191D191209741F0B3
:100B100049895A89EC0129893A894217530711F109
:100B2000D4E0EB37FD0781F720E030E04D915D9197
:100B3000452B89F4220F331FF901E65BFB4F948BA1
:100B4000838B80917B0490917C04019690937C042C
:100B500080937B0407C02F5F3F4F2F30310531F763
:100B600080E001C081E0DF91CF910895CB0108952D
:100B70007F928F929F92AF92BF92CF92DF92EF922D
:100B8000FF920F931F93CF93DF93EC0149015A011A
:100B90008B01C12CD12C7601C814D904EA04FB04C2
:100BA00084F5F80171908F018F8580FF0BC0E8817B
:100BB000F9810084F185E02D20E144E060E070E0FF
:100BC000CE011995EB85FC858D859E85E817F90783
:100BD00038F470828B859C8501969C878B870BC02F
:100BE000E881F981672D70E0028CF38DE02DCE0154
:100BF0001995019649F02FEFC21AD20AE20AF20AB9
:100C0000CBCFB401C50102C0B601C701DF91CF91BE
:100C10001F910F91FF90EF90DF90CF90BF90AF901A
:100C20009F908F907F900895CF93DF93EC01E881A0
:100C3000F9810288F389E02D19958F3F2FEF9207F4
:100C400031F02D813E812F5F3F4F3E832D83DF9119
:100C5000CF9108958FEF9FEF089560E070E0CB0192
:100C6000089580E090E00895CB010895CF93DF933D
:100C7000EC0188899989DC01ED91FC910480F58172
:100C8000E02D1995892BA9F388899989DC01ED91CB
:100C9000FC910680F781E02DDF91CF911994CF93DD
:100CA000DF93EC0188899989DC01ED91FC91048046
:100CB000F581E02D1995892BA9F388899989DC01A3
:100CC000ED91FC910084F185E02DDF91CF91199495
:100CD000AF92BF92CF92DF92EF92FF920F931F934A
:100CE000CF93DF9300D01F92CDB7DEB78C015B01AD
:100CF000C12CD12C7601F80180899189DC01ED911C
:100D0000FC910680F781E02D29833A834B835C8335
:100D1000199529813A814B815C818F3F71F0C21610
:100D2000D306E406F5064CF4D5018D935D01BFEFC3
:100D3000CB1ADB0AEB0AFB0ADECFC701B6010F9024
:100D40000F900F900F90DF91CF911F910F91FF9017
:100D5000EF90DF90CF90BF90AF900895DC01509658
:100D60008D919C915197DC01ED91FC910480F5816E
:100D7000E02D199480E090E0089580E090E00895DF
:100D800080E090E0089580E090E008950895CF938A
:100D9000DF93C091DC04D091DD04E881F981048007
:100DA000F581E02DCE011995892BB9F3E881F98100
:100DB0000680F781E02DCE01DF91CF9119941F932A
:100DC000CF93DF93182FC091DC04D091DD048A30DB
:100DD00041F4E881F9810190F081E02D6DE0CE01D0
:100DE0001995E881F9810190F081E02D612FCE0104
:100DF000199521E030E0019711F420E030E0C901BD
:100E0000DF91CF911F9108958F929F92AF92BF92E1
:100E1000CF92DF92EF92FF920F931F93CF93DF93C6
:100E2000EC01EE85FF85309709F019958FB7F8949E
:100E30008090D4059090D505A090D605B090D705A8
:100E40008FBF8E016E012EE1C20ED11CE12CF12C60
:100E500089A99AA98E159F0524F1D80153968D91E1
:100E60009C9154970097C1F0BFEFEB1AFB0ADC018D
:100E7000ED91FC910280F381E02DB501A40119955B
:100E8000882351F0F80183899489DC01ED91FC916C
:100E90000480F581E02D19950E5F1F4F0C151D057F
:100EA000B9F62FB7F8948091D4059091D505A0910B
:100EB000D605B091D7052FBF8E839F83A887B987AA
:100EC0004A815B816C817D81840F951FA61FB71FAE
:100ED0008A879B87AC87BD87DF91CF911F910F9148
:100EE000FF90EF90DF90CF90BF90AF909F908F904A
:100EF0000895CF93DF93EC01EE85FF85309709F0DD
:100F000019952FB7F8948091D4059091D505A091AB
:100F1000D605B091D7052FBF8E839F83A887B98749
:100F20004A815B816C817D81840F951FA61FB71F4D
:100F30008A879B87AC87BD87DF91CF9108950F93F8
:100F40001F93FC010285138524853585401B510BB9
:100F5000620B730B77FD02C0808901C080E01F9196
:100F60000F910895FC0142835383648375838681C6
:100F70009781A085B185480F591F6A1F7B1F428743
:100F800053876487758708950C94201108950895F8
:100F90000C942011DC01ED91FC9136972081318178
:100FA000820F931FF5CFFB0120813181FC0131833A
:100FB0002083FB0142815381F901369720813181E1
:100FC000FC01E20FF31F51834083089528E532E0CE
:100FD000FC013183208322E632E0318F208F68E6E6
:100FE00072E0E1CFDC01ED91FC91369720813181F7
:100FF000820F931FEBCFCF93DF93EC01E7DFCE019E
:10100000DF91CF910C942011DC01ED91FC9136978A
:1010100020813181820F931FEECF0C94201108950F
:1010200008950C942011DC01ED91FC9136972081FC
:101030003181820F931FF5CFFB0120813181FC01AB
:1010400031832083FB0142815381F901369720814E
:101050003181FC01E20FF31F51834083089520ED9D
:1010600032E0FC01318320832AED32E0358B248B82
:1010700060EE72E0E1CFDC01ED91FC9136972081CA
:101080003181820F931FEBCFCF93DF93EC01E7DF2A
:10109000CE01DF91CF910C942011DC01ED91FC91F8
:1010A000369720813181820F931FEECF0C9420114F
:1010B0000F931F93CF93DF938C01EB016F3F8FEF63
:1010C000780719F480E090E00DC06A3029F46DE0F3
:1010D000F8018089918986DA6C2FF80180899189DD
:1010E00081DACE01DF91CF911F910F9108958F92F8
:1010F0009F92BF92CF92DF92EF92FF920F931F9336
:10110000CF93DF9300D01F92CDB7DEB78C014B0198
:10111000C12CD12C7601C216D306E406F50634F5AF
:10112000F401B1904F01FAE0BF120DC06DE0F8017B
:101130008089918929833A834B835C8353DA5C816C
:101140004B813A8129816B2DF8018089918929830E
:101150003A834B835C8346DAFFEFCF1ADF0AEF0A4C
:10116000FF0A5C814B813A812981D5CFCA01B9013F
:101170000F900F900F900F90DF91CF911F910F91D3
:10118000FF90EF90DF90CF90BF909F908F90089549
:101190004F925F926F927F928F929F92AF92BF9287
:1011A000EF92FF920F931F93CF93DF9300E010E035
:1011B000E12CF12CC0E0D0E08091B8049091B9040A
:1011C000C817D90708F061C02091CB048091CC04E6
:1011D00090E0A0E0B0E0BA2FA92F982F8827A22B8B
:1011E0002091CD04822B2D0166247724892E9A2EFE
:1011F000AB2EBB24482D382F2091BD04222391F023
:10120000622F70E0649DA001659D500D749D500D8E
:101210001124452E829E40011124492D829FC00138
:101220001124392F2091C3045091C0048091BE0431
:101230009091BF04251303C08E0D9F1D06C0800F23
:10124000911FFC01E20FF11D10822091C004FC01EE
:10125000E20FF11D40822091C104FC01E20FF11D5B
:1012600040832091C204FC01E20FF11D3083809184
:10127000BE049091BF04892B09F08ADB219683E09C
:10128000E80EF11C0C5F1F4F97CFDF91CF911F919C
:101290000F91FF90EF90BF90AF909F908F907F90B5
:1012A0006F905F904F9008951F920F920FB60F921C
:1012B00011242F933F938F939F93AF93BF9380916C
:1012C000D4059091D505A091D605B091D705309160
:1012D000D30523E0230F2D3720F40196A11DB11D66
:1012E00005C026E8230F0296A11DB11D2093D3054A
:1012F0008093D4059093D505A093D605B093D705D8
:1013000080910C0390910D03A0910E03B0910F03F7
:101310000196A11DB11D80930C0390930D03A09322
:101320000E03B0930F03BF91AF919F918F913F91A7
:101330002F910F900FBE0F901F901895CF93DF93B2
:10134000EC0188859985009709F07AD78E8187FD11
:1013500004C060E0DF91CF9142CADF91CF91089540
:10136000089508950895FC0184EF92E091838083AD
:1013700081E0808B778766871286138614861586B0
:101380006FB7F8948091D4059091D505A091D605BA
:10139000B091D7056FBF86839783A087B187F28B03
:1013A000E18B2283338344835583820F931FA41FD1
:1013B000B51F82879387A487B5870895EF92FF9220
:1013C0000F931F93CF93DF937C0100E010E0C0E008
:1013D000D0E0F7012481358180819181C217D30744
:1013E00038F4800F911FF9D821960A5F1F4FF1CF73
:1013F000DF91CF911F910F91FF90EF9021C7CF9375
:10140000DF93CDB7DEB7A4970FB6F894DEBF0FBE5B
:10141000CDBF789484B5826084BD84B5816084BD7D
:1014200085B5826085BD85B5816085BD80916E0082
:10143000816080936E0010928100809181008260B3
:1014400080938100809181008160809381008091F0
:1014500080008160809380008091B10084608093DF
:10146000B1008091B00081608093B00080919100C4
:1014700082608093910080919100816080939100BF
:10148000809190008160809390008091A1008260A3
:101490008093A1008091A10081608093A100809140
:1014A000A00081608093A0008091210182608093E0
:1014B000210180912101816080932101809120018F
:1014C00081608093200180917A00846080937A000B
:1014D00080917A00826080937A0080917A008160A6
:1014E00080937A0080917A00806880937A001092CD
:1014F000C1008091BC0487FD05C061E070D9809176
:10150000BC04CED981E08093B7048091BE04909151
:10151000BF04892B09F03CDA81E08093B3048AE0B0
:1015200090E0A0E0B0E08093A5049093A604A0937F
:10153000A704B093A8048091A9049091AA04A09153
:10154000AB04B091AC040A96A11DB11D8093AD040B
:101550009093AE04A093AF04B093B00488EC98E0ED
:101560009093B2048093B10483EA94E0C8DA80E9EE
:1015700094E0C5DA8DE794E0C2DAE091EE04F091F0
:10158000EF0482E08083E091EA04F091EB041082A2
:10159000E091EC04F091ED048FEC80831092F6045E
:1015A000E091F204F091F30486E08083E091F0048E
:1015B000F091F104808180618083E091F004F091EA
:1015C000F104808188608083E091F004F091F1045F
:1015D000808180688083E091F004F091F104808143
:1015E0008F7D80838E010F5F1F4F8BE3D82E96E097
:1015F000C92EBB24BA9449E050E06AEF72E08EED48
:1016000094E00E943B0142E050E064E073E08EED24
:1016100094E00E943B018AE494E0F6DB18A21F8E5E
:101620001AA219A21CA21BA244E050E067E073E0DA
:10163000CE014F960E94B9021C8A1B8A1E8A1D8AFF
:10164000188E1F8A4AE0B80180E090E0DDD4F801EE
:1016500001900020E9F73197AF01401B510BB80111
:10166000CE0143960E94B9021A8E198E1C8E1B8ED3
:101670001E8E1D8EBE01615E7F4FCE0149960E9477
:10168000D802D9821A82ED8CFE8C2FEFE21AF20A70
:10169000B701CE0149960E948002882359F0298D16
:1016A0003A8D8D8D9E8DB801820F931F98D4FE8E3A
:1016B000ED8E04C0CE0149960E94A7028F89988DB5
:1016C0008B889C88ED8CFE8C8114910409F4F5C004
:1016D0000097A1F0E80EF91EB701CE0149960E94CD
:1016E0008002882309F4E9C0298D3A8D8D8D9E8D65
:1016F000B401820F931F73D4FE8EED8E1A8219826D
:101700001C821B821E821D82BE01675E7F4FC80144
:101710000E94D8024D815E8169817A818EED94E0CC
:101720000E943B0142E050E064E073E08EED94E003
:101730000E943B01C8010E94ED02CE0149960E9421
:10174000ED02CE0143960E94ED024BA15CA16F8D8C
:1017500078A18DEA93E00E943B014BA15CA16F8DC3
:1017600078A180E193E00E943B01CE014F960E9458
:10177000ED028091D2049091D3049E838D830896CC
:101780009C838B839C01C29EC001C39E900D11243B
:10179000C2D49A838983E12CF12C812C912C8D81E8
:1017A0009E8188169906E0F46091CE047091CF0472
:1017B0006E0D7F1DE981FA81EE0DFF1D309749F016
:1017C000118210821382128215821482CF010E942C
:1017D000D8023FEF831A930A86E0E80EF11CDFCFB0
:1017E0008091D2049091D304892BF1F0812C912C1B
:1017F000E12CF12C8091D2049091D304E816F906E3
:1018000078F48091CE049091CF04880D991D0E94A8
:10181000ED022FEFE21AF20A36E0830E911CEACFB6
:101820001092D3041092D204612C712C812C912C33
:101830008D819E8188169906D8F51C8A1B8A1E8A7E
:101840001D8A188E1F8A44E050E067E073E0CE01E5
:1018500043960E94B902E981FA81E60DF71D4F898E
:10186000588D848195818417950770F080819181CE
:10187000009751F06B897C896115710529F0B6D309
:10188000FF24F394892B09F0F12CCE0143960E949A
:10189000ED02FF2031F01092CB041092CC04B092F4
:1018A000CD048FEF881A980A26E0620E711CC0CF13
:1018B000C80184DD0E9450029ECECE0149960E944E
:1018C000A7021CCF86EB94E039DD85ED94E076DD50
:1018D0008EEC94E073DD8BE795E078DB89EA95E0A8
:1018E000BECBCF92DF92EF92FF920F931F93CF93D5
:1018F000DF93CDB7DEB765970FB6F894DEBF0FBEA6
:10190000CDBF109213031092120348EE53E060E033
:1019100070E0409314035093150360931603709383
:10192000170322E332E0309311032093100385ED77
:1019300090E090931D0380931C0384ED90E09093BE
:101940001F0380931E0380ED90E09093210380930A
:10195000200381ED90E0909323038093220382ED96
:1019600090E0909325038093240386ED90E090937C
:101970002703809326031092290310922A031092C2
:101980002B0310922C031092B0031092AF034093DC
:10199000B1035093B2036093B3037093B4033093D5
:1019A000AE032093AD038DEC90E09093BA03809347
:1019B000B9038CEC90E09093BC038093BB0388EC5C
:1019C00090E09093BE038093BD0389EC90E09093E8
:1019D000C0038093BF038AEC90E09093C20380938E
:1019E000C1038EEC90E09093C4038093C3031092E4
:1019F000C6031092C7031092C8031092C9038EED5C
:101A000094E01092E1041092E0044093E2045093B9
:101A1000E3046093E4047093E5043093DF042093BF
:101A2000DE0425EC30E03093EB042093EA0424EC50
:101A300030E03093ED042093EC0420EC30E0309360
:101A4000EF042093EE0421EC30E03093F104209376
:101A5000F00422EC30E03093F3042093F20426ECFF
:101A600030E03093F5042093F4041092F7041092C0
:101A7000F8041092F9041092FA0461E270E0709395
:101A8000C1056093C0051092C2051092C305109263
:101A9000C40526E0C22ED12CE12CF12CC092C50544
:101AA000D092C605E092C705F092C8051092C9050C
:101AB0001092CA051092CB051092CC0540E24093DB
:101AC000CD051092CF051092CE051092D2052BEACB
:101AD00035E03093D1052093D00520ED32E03093EE
:101AE000AA052093A9052AED32E03093BE05209384
:101AF000BD051092AF051092AE051092B10510927F
:101B0000B0051092B3051092B2051092B50510926F
:101B1000B4051092B7051092B6051092B90510924F
:101B2000B8052EEA32E03093AC052093AB059093D4
:101B3000BC058093BB0550E15093BA05709397059F
:101B400060939605109298051092990510929A0547
:101B5000C0929B05D0929C05E0929D05F0929E0557
:101B600010929F051092A0051092A1051092A20557
:101B70004093A3051092A5051092A4051092A80504
:101B800010927D0510927E0510927F0510928005BF
:101B900041E855E05093A7054093A60548E552E07B
:101BA00050937C0540937B0542E652E050939405A8
:101BB0004093930510928505109284051092870535
:101BC00010928605109289051092880510928B0557
:101BD00010928A0510928D0510928C0510928F0537
:101BE00010928E0530938205209381059093920583
:101BF0008093910528E0209390059093DD048093D5
:101C0000DC0467EC76E08FED96E021D2EEECF4E0B8
:101C10008EE0DF011D928A95E9F708E010E010934D
:101C2000D1040093D00480E390E075D29093CF0468
:101C30008093CE041093D8040093D70480E390E0FF
:101C40006AD29093D6048093D50481E08093B60441
:101C50001092B7041092B9041092B8041092BB0409
:101C60001092BA049FEF9093BC041092BD0410929E
:101C7000BF041092BE048093C0041092C10492E08D
:101C80009093C2048093C3041092C4041092C504BC
:101C90001092C6041092C7041A8218861F86188AEA
:101CA000198A1A8A8E878B871C869D87898389E685
:101CB00090E09E838D832FD29A878987009751F079
:101CC00029E6FC0111922A95E9F783E290E09C83D2
:101CD0008B8304C01E821D821C821B828DE08F8339
:101CE0008A81882339F061E08DE00E94EF038DE066
:101CF0000E945004E5EDF1E0E491F0E0EE0FFF1FEB
:101D0000E255FE4F859194919C8B8B8BE5E7F1E03A
:101D1000E491ED8B85E1FE013196A6EBB4E00190F4
:101D20000D928A95E1F7CE01019608DB8FEF809343
:101D3000CB048093CC048093CD0420E030E0A90153
:101D400060E070E083EA94E00EDB20E030E0A9017F
:101D500060E070E080E994E006DB20E030E0A9017B
:101D600060E070E08DE794E0FEDA20E030E0A90169
:101D700060E070E08AE494E0F6DA8AEE92E0909314
:101D80004B0480934A0410927C0410927B04EDE58E
:101D9000F4E01192119284E0EB37F807D1F710923A
:101DA0004C0410924D0410924E0410924F048091F6
:101DB000500490915104A0915204B0915304809327
:101DC000540490935504A0935604B0935704659619
:101DD0000FB6F894DEBF0FBECDBFDF91CF911F913C
:101DE0000F91FF90EF90DF90CF900895EE0FFF1FBF
:101DF000881F8BBF0790F691E02D19946F927F9208
:101E00008F929F92AF92BF92CF92DF92EF92FF920A
:101E10000F931F93CF93DF93EC01009781F4CB01D5
:101E2000DF91CF911F910F91FF90EF90DF90CF90B6
:101E3000BF90AF909F908F907F906F906CC1FC018E
:101E4000E60FF71F9C0122503109E217F30708F44F
:101E5000A8C0D9010D911C91119706171707A8F07A
:101E60000530110508F49BC0C80104978617970731
:101E700008F495C002501109061B170B019311932A
:101E80006D937C93CF01DCD18AC05B01A01AB10AAB
:101E90004C01800E911EA091E005B091E10540E05B
:101EA00050E0E12CF12C109709F44AC0A815B905AF
:101EB000D1F56D907C901197630182E0C80ED11C22
:101EC000CA14DB0480F1A3014A195B096A0182E0AC
:101ED000C80ED11C1296BC9012971396AC91B5E027
:101EE000CB16D10440F0B282A38351834083D90141
:101EF0006D937C930AC00E5F1F4FC301800F911F2B
:101F0000F90191838083EB2DFA2FE114F10431F074
:101F1000D7011396FC93EE93129741C0F093E1051D
:101F2000E093E0053CC08D919C91119748175907AB
:101F300008F4AC017D0112960D90BC91A02DB3CF99
:101F40008091DE059091DF0588159905E1F446172B
:101F50005707C8F48091000290910102009741F464
:101F60008DB79EB74091040250910502841B950BDA
:101F7000E817F907B0F4F093DF05E093DE05F90107
:101F8000718360830CC0CB01C6D07C01009749F0FF
:101F9000A801BE011BD0CE0153D1C70104C0CE01A0
:101FA00002C080E090E0DF91CF911F910F91FF90F0
:101FB000EF90DF90CF90BF90AF909F908F907F90E9
:101FC0006F90089581E090E0F894E9C1FB01DC0195
:101FD00002C001900D9241505040D8F70895FB0186
:101FE000DC0101900D920020E1F70895FB01DC0176
:101FF0004150504030F08D910190801919F400202B
:10200000B9F7881B990B0895BB274A3031F49923FF
:1020100022F4BDE2909581959F4F01C0BB27FB0143
:102020005527AA27880F991FAA1FA41710F0A41BD1
:1020300083955051B9F7A05DAA3308F0A95DA1932B
:10204000009779F7B111B1931192CB0198C10F9319
:102050001F93CF93DF93009731F46115710519F445
:1020600080E090E039C08B01EC016EE070E081E02F
:1020700090E037D0FC01892B99F380E88383011528
:10208000110571F01387028781E883838091D80559
:102090009091D905892B21F4F093D905E093D805C7
:1020A0002097C9F0D187C087838182608383809124
:1020B000DA059091DB05892B71F4F093DB05E09351
:1020C000DA058091DC059091DD05892B21F4F093F0
:1020D000DD05E093DC05CF01DF91CF911F910F91DA
:1020E00008950F931F93CF93DF93869F8001879F5F
:1020F000100D969F100D1124C8010DD0EC01009712
:1021000021F0A80160E070E033D1CE01DF91CF91E2
:102110001F910F910895CF93DF938230910510F4B2
:1021200082E090E0E091E005F091E10520E030E010
:10213000C0E0D0E0309711F1408151814817590734
:10214000C0F04817590761F482819381209719F0F4
:102150009B838A832BC09093E1058093E00526C082
:102160002115310519F04217530718F49A01BE01E1
:10217000DF01EF010280F381E02DDCCF2115310575
:1021800009F1281B390B2430310590F412968D91FA
:102190009C9113976115710521F0FB019383828354
:1021A00004C09093E1058093E005FD01329644C0A0
:1021B000FD01E20FF31F81939193225031092D937A
:1021C0003C933AC02091DE053091DF05232B41F48A
:1021D00020910202309103023093DF052093DE0547
:1021E00020910002309101022115310541F42DB7F3
:1021F0003EB74091040250910502241B350BE0913B
:10220000DE05F091DF05E217F307A0F42E1B3F0B6C
:102210002817390778F0AC014E5F5F4F2417350758
:1022200048F04E0F5F1F5093DF054093DE0581930A
:10223000919302C0E0E0F0E0CF01DF91CF910895EB
:102240000F931F93CF93DF93009709F48CC0FC0189
:102250003297138212820091E0051091E105011579
:10226000110581F420813181820F931F2091DE05B9
:102270003091DF052817390779F5F093DF05E093F2
:10228000DE0571C0D80140E050E0AE17BF0750F442
:1022900012962D913C911397AD012115310509F14D
:1022A000D901F3CF9D01DA013383228360817181EB
:1022B000860F971F8217930769F4EC0128813981F3
:1022C000260F371F2E5F3F4F318320838A819B81EA
:1022D00093838283452B29F4F093E105E093E00595
:1022E00042C01396FC93EE931297ED0149915991D8
:1022F0009E01240F351FE217F30771F4808191814D
:10230000840F951F029611969C938E9382819381E0
:1023100013969C938E931297E0E0F0E0D80112960A
:102320008D919C911397009719F0F8018C01F6CFCD
:102330008D919C9198012E5F3F4F820F931F2091AA
:10234000DE053091DF052817390769F4309729F445
:102350001092E1051092E00502C0138212821093E0
:10236000DF050093DE05DF91CF911F910F91089556
:10237000DC0101C06D9341505040E0F70895DC014D
:10238000FC01672F71917723E1F7329704C07C91AC
:102390006D9370836291AE17BF07C8F3089511E083
:1023A000C8E0D1E000E005C0802FFE011FDD2196CE
:1023B000011DC930D10780E00807B1F7F894FFCFBD
:1023C0000000E2058000180000000000000000008E
:1023D000E8FFE8FF0000000000001400000000001B
:1023E00000000000ECFFECFF000000000000000017
:1023F0000000E9013B01A1017F0193012F020600CA
:1024000000000000C607C807FAFFFAFF0000C70770
:10241000CA07180000000000E607FB07E8FFE8FF16
:102420000000F207040858020C02160262020000C3
:102430000000B009C407C606C306C006BD06BA063A
:1024400031062D062A0614063406B805B605020024
:10245000000000000F081108FEFFFEFF000010083A
:10246000130800000000B209560800000000B1097E
:102470000D08C606C306C006BD06BA06AE06680647
:102480004F0636063406770858081400000000008E
:102490002F084408ECFFECFF00003B084D08D00279
:1024A00020022A02DA0200000000B2079F07040798
:1024B00000000000B2079F0779074849484948498A
:0C24C000484948000D0A00424C554500F8
:00000001FF
