:1000000008C1000037C1000035C1000033C1000045
:1000100031C100002FC100002DC100002BC1000024
:1000200029C1000027C1000025C1000023C1000034
:1000300021C100001FC100001DC100001BC1000044
:1000400019C1000017C1000015C1000013C1000054
:1000500011C100000FC100000DC100004AC700001F
:1000600009C10000BCC6000091C6000003C1000029
:1000700001C10000FFC00000FDC00000FBC0000087
:10008000F9C00000F7C00000F5C00000F3C0000098
:1000900054C6000029C60000EDC00000EBC00000FF
:1000A000E9C00000E7C00000E5C00000E3C00000B8
:1000B000E1C00000DFC00000DDC00000DBC00000C8
:1000C000D9C00000D7C00000D5C00000E4C50000C2
:1000D000B9C50000CFC00000CDC00000CBC00000FB
:1000E000C9C0000030083308220826082A086A0818
:1000F00037083B084108450849084F085308570886
:100100006A085D08610865080000210024002700D6
:100110002A002D0030003300010100000401070116
:100120000A0100000A0B02090C0D0E080703040166
:1001300000000000000000000000000000000000BF
:10014000000000000000000000000000000012118C
:10015000100000000000000000000000000000008F
:10016000000000000000000001021020200808101C
:100170002040102040800201020108040201010217
:1001800004081020408080402010080402018004F0
:10019000020180402010080402010804020101024B
:1001A0000408102040800102040810204080000054
:1001B0002200250028002B002E003100340002010F
:1001C0000000050108010B010505050507050808E4
:1001D0000808020202020A0A0808040404040101D1
:1001E00001010101010103030303030303030407E6
:1001F00007070C0C0C0C0C0C0C0C0202020206067D
:100200000606060606060B0B0B0B0B0B0B0B410A27
:10021000C40C11241FBECFEFD1E2DEBFCDBF00E082
:100220000CBF12E0A0E0B2E0E4E3FDE100E00BBFB0
:1002300002C007900D92AA3FB107D9F725E0AAEFB7
:10024000B2E001C01D92A13DB207E1F711E0C8E0A4
:10025000D1E000E006C021970109802FFE010E9435
:10026000E50CC730D10780E00807A9F70E946809AC
:100270000C94890EC5CEFC0142835383648375833D
:1002800086819781A085B185480F591F6A1F7B1F02
:1002900042875387648775870895DC01ED91FC914F
:1002A0000190F081E02D1994CF92DF92EF92FF92AE
:1002B0000F931F93CF93DF936C017A018B01C0E002
:1002C000D0E0CE15DF0589F0D8016D918D01D60102
:1002D000ED91FC910190F081E02DC6011995892BDB
:1002E00011F47E0102C02196ECCFC701DF91CF91BE
:1002F0001F910F91FF90EF90DF90CF900895FC0138
:10030000A089B1898C91A689B78982FD0FC09C9183
:10031000818D8F5F8F73228D821749F0218DDF01D0
:10032000A20FB11D5D969C93818F08958C910895C5
:10033000FC01918D828D981761F0828DDF01A80FED
:10034000B11D5D968C91928D9F5F9F73928F90E00F
:1003500008958FEF9FEF0895FC01918D828D98177E
:1003600031F0828DE80FF11D858D90E008958FEFBB
:100370009FEF0895FC01918D228D892F90E0805C84
:100380009F4F821B91098F739927089584E093E012
:10039000F1DF21E0892B09F420E0822F089581EA22
:1003A00093E0E8DF21E0892B09F420E0822F089513
:1003B00080E095E0DFDF21E0892B09F420E0822F47
:1003C0000895FC01848DDF01A80FB11DA35ABF4F12
:1003D0002C91848D90E001968F739927848FA68944
:1003E000B7892C93A089B1898C9180648C93938D6B
:1003F000848D981306C00288F389E02D80818F7D5B
:1004000080830895EF92FF920F931F93CF93DF9312
:10041000EC0181E0888F9B8D8C8D981305C0E88955
:10042000F989808185FD23C0F62E0B8D10E00F5FCA
:100430001F4F0F731127E02E8C8DE8120BC00FB6E3
:1004400007FCFACFE889F989808185FFF5CFCE01D5
:10045000B8DFF2CF8B8DFE01E80FF11DE35AFF4F9D
:10046000F0820B8FEA89FB898081806207C0EE8968
:10047000FF896083E889F98980818064808381E0D5
:1004800090E0DF91CF911F910F91FF90EF90089531
:10049000CF93DF93EC01888D8823C1F0EA89FB8933
:1004A000808185FD05C0A889B9898C9186FD0EC023
:1004B0000FB607FCF5CF808185FFF2CFA889B989F7
:1004C0008C9185FFEDCFCE017CDFE8CFDF91CF911E
:1004D000089580E090E0892B19F06ADF81111BC03C
:1004E00080E090E0892B19F05ADF811117C080E07D
:1004F00090E0892B19F04ADF811113C080E090E071
:10050000892BA1F080E090E0892B81F00E9400000F
:1005100081110AC008950E940000E2CF0E940000ED
:10052000E6CF0E940000EACF0C9400000895CB01B2
:1005300008957F928F929F92AF92BF92CF92DF9257
:10054000EF92FF920F931F93CF93DF93EC0149013A
:100550005A018B01C12CD12C7601C814D904EA04AC
:10056000FB0484F5F80171908F018F8580FF0BC02B
:10057000E881F9810084F185E02D20E144E060E02C
:1005800070E0CE011995EB85FC858D859E85E81779
:10059000F90738F470828B859C8501969C878B8740
:1005A0000BC0E881F981672D70E0028CF38DE02D9E
:1005B000CE011995019649F02FEFC21AD20AE20A2C
:1005C000F20ACBCFB401C50102C0B601C701DF9169
:1005D000CF911F910F91FF90EF90DF90CF90BF9040
:1005E000AF909F908F907F900895CF93DF93EC0111
:1005F000E881F9810288F389E02D19958F3F2FEF6B
:10060000920731F02D813E812F5F3F4F3E832D8336
:10061000DF91CF9108958FEF9FEF089560E070E034
:10062000CB01089580E090E008950F931F93CF933E
:10063000DF938C01EB016F3F8FEF780719F480E0B7
:1006400090E00DC06A3029F46DE0F801808991894D
:1006500024DE6C2FF801808991891FDECE01DF91A5
:10066000CF911F910F9108958F929F92BF92CF9239
:10067000DF92EF92FF920F931F93CF93DF9300D0FF
:100680001F92CDB7DEB78C014B01C12CD12C760166
:10069000C216D306E406F50634F5F401B1904F0115
:1006A000FAE0BF120DC06DE0F801808991892983BD
:1006B0003A834B835C83F1DD5C814B813A812981F4
:1006C0006B2DF8018089918929833A834B835C8360
:1006D000E4DDFFEFCF1ADF0AEF0AFF0A5C814B81EE
:1006E0003A812981D5CFCA01B9010F900F900F909F
:1006F0000F90DF91CF911F910F91FF90EF90DF90BE
:10070000CF90BF909F908F900895CB010895CF9385
:10071000DF93EC0188899989DC01ED91FC910480DB
:10072000F581E02D1995892BA9F388899989DC0138
:10073000ED91FC910680F781E02DDF91CF91199426
:10074000CF93DF93EC0188899989DC01ED91FC91CD
:100750000480F581E02D1995892BA9F38889998961
:10076000DC01ED91FC910084F185E02DDF91CF91CA
:100770001994AF92BF92CF92DF92EF92FF920F93B4
:100780001F93CF93DF9300D01F92CDB7DEB78C01BC
:100790005B01C12CD12C7601F80180899189DC01A3
:1007A000ED91FC910680F781E02D29833A834B83FC
:1007B0005C83199529813A814B815C818F3F71F06F
:1007C000C216D306E406F5064CF4D5018D935D01FF
:1007D000BFEFCB1ADB0AEB0AFB0ADECFC701B6017B
:1007E0000F900F900F900F90DF91CF911F910F916D
:1007F000FF90EF90DF90CF90BF90AF900895DC0115
:1008000050968D919C915197DC01ED91FC91048063
:10081000F581E02D199480E090E0089580E090E06B
:10082000089580E090E0089580E090E008950895B4
:10083000CF93DF93C091D004D091D104E881F981A6
:100840000480F581E02DCE011995892BB9F3E8815B
:10085000F9810680F781E02DCE01DF91CF911994C7
:100860001F93CF93DF93182FC091D004D091D10460
:100870008A3041F4E881F9810190F081E02D6DE04A
:10088000CE011995E881F9810190F081E02D612F69
:10089000CE01199521E030E0019711F420E030E01D
:1008A000C901DF91CF911F9108958F929F92AF92CE
:1008B000BF92CF92DF92EF92FF920F931F93CF934D
:1008C000DF93EC01EE85FF85309709F019958FB71E
:1008D000F8948090FB029090FC02A090FD02B090F2
:1008E000FE028FBF8E016E012EE1C20ED11CE12CE3
:1008F000F12C89A99AA98E159F0524F1D801539648
:100900008D919C9154970097C1F0BFEFEB1AFB0AB1
:10091000DC01ED91FC910280F381E02DB501A40191
:100920001995882351F0F80183899489DC01ED91B0
:10093000FC910480F581E02D19950E5F1F4F0C1579
:100940001D05B9F62FB7F8948091FB029091FC0237
:10095000A091FD02B091FE022FBF8E839F83A887D6
:10096000B9874A815B816C817D81840F951FA61FA9
:10097000B71F8A879B87AC87BD87DF91CF911F9177
:100980000F91FF90EF90DF90CF90BF90AF909F902E
:100990008F900895CF93DF93EC01EE85FF8530971C
:1009A00009F019952FB7F8948091FB029091FC0201
:1009B000A091FD02B091FE022FBF8E839F83A88776
:1009C000B9874A815B816C817D81840F951FA61F49
:1009D000B71F8A879B87AC87BD87DF91CF9108952A
:1009E0000F931F93FC010285138524853585401BD9
:1009F000510B620B730B77FD02C0808901C080E050
:100A00001F910F9108954F925F926F927F928F92F4
:100A10009F92AF92BF92EF92FF920F931F93CF934B
:100A2000DF9300E010E0E12CF12CC0E0D0E08091F9
:100A3000AC049091AD04C817D90708F061C02091AB
:100A4000BF048091C00490E0A0E0B0E0BA2FA92FCD
:100A5000982F8827A22B2091C104822B2D01662478
:100A60007724892E9A2EAB2EBB24482D382F209127
:100A7000B104222391F0622F70E0649DA001659D76
:100A8000500D749D500D1124452E829E400111245D
:100A9000492D829FC0011124392F2091B704509114
:100AA000B4048091B2049091B304251303C08E0D59
:100AB0009F1D06C0800F911FFC01E20FF11D1082E7
:100AC0002091B404FC01E20FF11D40822091B50495
:100AD000FC01E20FF11D40832091B604FC01E20FFE
:100AE000F11D30838091B2049091B304892B09F0F9
:100AF00001D3219683E0E80EF11C0C5F1F4F97CFC6
:100B0000DF91CF911F910F91FF90EF90BF90AF9029
:100B10009F908F907F906F905F904F9008955DD7DA
:100B20000C94EA0D089508950C94EA0DDC01ED9102
:100B3000FC91369720813181820F931FF5CFFB0105
:100B400020813181FC0131832083FB01428153816B
:100B5000F901369720813181FC01E20FF31F5183A7
:100B60004083089522E632E0FC01318320832CE6A5
:100B700032E0318F208F62E772E0E1CFDC01ED914E
:100B8000FC91369720813181820F931FEBCFCF9359
:100B9000DF93EC01E7DFCE01DF91CF910C94EA0DFA
:100BA000DC01ED91FC91369720813181820F931FFA
:100BB000EECF0C94EA0D089508950C94EA0DDC0133
:100BC000ED91FC91369720813181820F931FF5CFF3
:100BD000FB0120813181FC0131832083FB014281B3
:100BE0005381F901369720813181FC01E20FF31F17
:100BF0005183408308952AED32E0FC013183208344
:100C000024EE32E0358B248B6AEE72E0E1CFDC011A
:100C1000ED91FC91369720813181820F931FEBCFAC
:100C2000CF93DF93EC01E7DFCE01DF91CF91D2C705
:100C3000DC01ED91FC91369720813181820F931F69
:100C4000EFCFC8C71F920F920FB60F9211240BB6A9
:100C50000F922F933F934F935F936F937F938F9355
:100C60009F93AF93BF93EF93FF9384E093E0A9DB4F
:100C7000FF91EF91BF91AF919F918F917F916F9174
:100C80005F914F913F912F910F900BBE0F900FBE30
:100C90000F901F9018951F920F920FB60F9211246C
:100CA0000BB60F922F933F934F935F936F937F9366
:100CB0008F939F93AF93BF93EF93FF9384E093E061
:100CC0001EDBFF91EF91BF91AF919F918F917F912B
:100CD0006F915F914F913F912F910F900BBE0F90AD
:100CE0000FBE0F901F9018951F920F920FB60F9284
:100CF00011240BB60F922F933F934F935F936F93F3
:100D00007F938F939F93AF93BF93EF93FF9381EA6A
:100D100093E057DBFF91EF91BF91AF919F918F913E
:100D20007F916F915F914F913F912F910F900BBEEB
:100D30000F900FBE0F901F9018951F920F920FB635
:100D40000F9211240BB60F922F933F934F935F9303
:100D50006F937F938F939F93AF93BF93EF93FF9383
:100D600081EA93E0CCDAFF91EF91BF91AF919F912F
:100D70008F917F916F915F914F913F912F910F9044
:100D80000BBE0F900FBE0F901F9018951F920F92E1
:100D90000FB60F9211240BB60F922F933F934F93E0
:100DA0005F936F937F938F939F93AF93BF93EF93D3
:100DB000FF9380E095E005DBFF91EF91BF91AF914C
:100DC0009F918F917F916F915F914F913F912F9163
:100DD0000F900BBE0F900FBE0F901F9018951F9293
:100DE0000F920FB60F9211240BB60F922F933F93D1
:100DF0004F935F936F937F938F939F93AF93BF9323
:100E0000EF93FF9380E095E07ADAFF91EF91BF9145
:100E1000AF919F918F917F916F915F914F913F9192
:100E20002F910F900BBE0F900FBE0F901F90189533
:100E3000CF93DF9390E0FC01E859FE4F2491FC0131
:100E4000E853FE4F8491882361F190E0880F991F49
:100E5000FC01E85FFE4FC591D491FC01E255FE4FC5
:100E6000A591B491611109C09FB7F894888120952C
:100E700082238883EC912E230BC0623061F49FB7EC
:100E8000F8943881822F809583238883EC912E2BD0
:100E90002C939FBF06C08FB7F894E8812E2B288330
:100EA0008FBFDF91CF9108953FB7F8948091FF02F3
:100EB00090910003A0910103B091020326B5A89B75
:100EC00005C02F3F19F00196A11DB11D3FBFBA2FDC
:100ED000A92F982F8827820F911DA11DB11DBC013C
:100EE000CD0142E0660F771F881F991F4A95D1F701
:100EF00008951F920F920FB60F9211242F933F93D4
:100F00008F939F93AF93BF938091FB029091FC02CC
:100F1000A091FD02B091FE023091FA0223E0230F6E
:100F20002D3720F40196A11DB11D05C026E8230F21
:100F30000296A11DB11D2093FA028093FB029093AB
:100F4000FC02A093FD02B093FE028091FF029091FB
:100F50000003A0910103B09102030196A11DB11DF0
:100F60008093FF0290930003A0930103B0930203C8
:100F7000BF91AF919F918F913F912F910F900FBE95
:100F80000F901F901895CF93DF93EC01888599857A
:100F9000009709F01FD68E8187FD04C060E0DF91C5
:100FA000CF9146CFDF91CF91089508950895089588
:100FB000FC018AE092E09183808381E0808B7787D7
:100FC000668712861386148615866FB7F89480910B
:100FD000FB029091FC02A091FD02B091FE026FBF56
:100FE00086839783A087B187F28BE18B228333833B
:100FF00044835583820F931FA41FB51F8287938755
:10100000A487B587089590E0FC01EE5DFE4F449102
:10101000FC01E859FE4F2491FC01E853FE4F9491E6
:10102000992309F466C0442309F454C050E0FA013E
:101030003197E231F10508F04DC08827EE58FF4F97
:101040008F4FC3C4809180008F7707C0809180004C
:101050008F7D03C080918000877F809380003AC09D
:1010600084B58F7702C084B58F7D84BD33C08091F5
:10107000B0008F7703C08091B0008F7D8093B00067
:1010800029C0809190008F7707C0809190008F7D5C
:1010900003C080919000877F809390001BC0809157
:1010A000A0008F7707C08091A0008F7D03C0809142
:1010B000A000877F8093A0000DC0809120018F77D2
:1010C00007C0809120018F7D03C080912001877F20
:1010D00080932001E92FF0E0EE0FFF1FE255FE4F55
:1010E000A591B4918FB7F894EC9120952E232C9371
:1010F0008FBF08950F931F93CF93DF93CDB7DEB7C4
:1011000029970FB6F894DEBF0FBECDBFCDDE00919C
:10111000B8041091B9042091BA043091BB04DC01E9
:10112000CB01801B910BA20BB30B8C329140A1051C
:10113000B10560F3F8948091AE049091AF049A8366
:101140008983E091B204F091B304DF0111968081AC
:1011500089879091AA04E091BC04F091BD0480912C
:10116000BE04992309F42EC09081982B9887908112
:10117000809589238F838F818C8388E08B8358852A
:101180006F8149853B812C8189819A81508347FDFC
:10119000252F3A952083262F39F0441F00C00000E8
:1011A0006083000000C0F2CF38E04D916083000002
:1011B000019761F7F093BD04E093BC0449873B833A
:1011C0002C8338C09081982B9887908180958923B3
:1011D0008F838F818E8388E08D8358856F814985C9
:1011E0003D812E8189819A81508347FD252F00C042
:1011F00000C0208300C000C000C000C000C06083E9
:101200000000262F3A9541F0441F000000C000C0A6
:1012100000C000C000C0E8CF38E04D9100C060833E
:1012200000C0019709F7F093BD04E093BC0449871F
:101230003D832E839A838983789436DE6093B80445
:101240007093B9048093BA049093BB0429960FB6A7
:10125000F894DEBF0FBECDBFDF91CF911F910F91EC
:101260000895CF93DF93A1E5B4E0FD01C191D19141
:10127000209741F049895A89EC0129893A89421716
:10128000530711F1D4E0EF36FD0781F720E030E09D
:101290004D915D91452B89F4220F331FF901E25CDA
:1012A000FB4F948B838B80916F0490917004019617
:1012B0009093700480936F0407C02F5F3F4F2F30CF
:1012C000310531F780E001C081E0DF91CF910895D1
:1012D000789484B5826084BD84B5816084BD85B511
:1012E000826085BD85B5816085BD80916E0081601D
:1012F00080936E00109281008091810082608093C3
:1013000081008091810081608093810080918000C4
:101310008160809380008091B10084608093B100EF
:101320008091B00081608093B000809191008260D4
:1013300080939100809191008160809391008091D1
:1013400090008160809390008091A10082608093E2
:10135000A1008091A10081608093A1008091A000F4
:1013600081608093A000809121018260809321019F
:101370008091210181608093210180912001816011
:101380008093200180917A00846080937A0080911C
:101390007A00826080937A0080917A0081608093E5
:1013A0007A0080917A00806880937A001092C10060
:1013B0008091B00487FD05C061E03ADD8091B00402
:1013C00022DE81E08093AB048091B2049091B3045B
:1013D000892B09F08FDE81E08093A7048AE090E0FA
:1013E000A0E0B0E08093990490939A04A0939B04AA
:1013F000B0939C0480919D0490919E04A0919F04C1
:10140000B091A0040A96A11DB11D8093A1049093F0
:10141000A204A093A304B093A40483E095E0909366
:10142000A6048093A50487E994E01BDF84E894E098
:1014300018DF81E794E015DFD3E0CFEF8EE394E08F
:1014400034DA20910303822F6D2FB3D2911107C09C
:101450001092BF041092C004C093C1040DC091301B
:1014600029F41092BF04C093C00404C0C093BF0409
:101470001092C0041092C1042F5F2093030329D857
:10148000DDCFCF92DF92EF92FF920F931F93CF9316
:10149000DF93CDB7DEB765970FB6F894DEBF0FBE0A
:1014A000CDBF109207031092060348EE53E060E0B0
:1014B00070E0409308035093090360930A0370930C
:1014C0000B032CE332E0309305032093040385EDF6
:1014D00090E0909311038093100384ED90E090933B
:1014E00013038093120380ED90E090931503809393
:1014F000140381ED90E0909317038093160382ED1F
:1015000090E0909319038093180386ED90E09093F8
:101510001B0380931A0310921D0310921E03109256
:101520001F03109220031092A4031092A303409370
:10153000A5035093A6036093A7037093A803309369
:10154000A2032093A1038DEC90E09093AE038093CF
:10155000AD038CEC90E09093B0038093AF0388ECE4
:1015600090E09093B2038093B10389EC90E0909364
:10157000B4038093B3038AEC90E09093B603809316
:10158000B5038EEC90E09093B8038093B70310926C
:10159000BA031092BB031092BC031092BD0380E00B
:1015A00095E01092030510920205409304055093B4
:1015B0000505609306057093070530930105209398
:1015C000000525EC30E030930D0520930C0524EC4C
:1015D00030E030930F0520930E0520EC30E030937F
:1015E00011052093100521EC30E030931305209372
:1015F000120522EC30E0309315052093140526ECFB
:1016000030E03093170520931605109219051092BB
:101610001A0510921B0510921C0561E270E0709390
:10162000B5056093B4051092B6051092B7051092F7
:10163000B80526E0C22ED12CE12CF12CC092B905C0
:10164000D092BA05E092BB05F092BC051092BD05A0
:101650001092BE051092BF051092C00540E2409363
:10166000C1051092C3051092C2051092C6052FE95C
:1016700035E03093C5052093C4052AED32E0309360
:101680009E0520939D0524EE32E03093B205209311
:10169000B1051092A3051092A2051092A505109213
:1016A000A4051092A7051092A6051092A905109204
:1016B000A8051092AB051092AA051092AD051092E4
:1016C000AC0528EB32E03093A00520939F05909362
:1016D000B0058093AF0550E15093AE057093EE04D2
:1016E0006093ED041092EF041092F0041092F10454
:1016F000C092F204D092F304E092F404F092F50464
:101700001092F6041092F7041092F8041092F90463
:101710004093FA041092FC041092FB041092FF0410
:101720001092D4041092D5041092D6041092D704CB
:1017300048ED54E05093FE044093FD0442E652E02D
:101740005093D3044093D2044CE652E05093EB0400
:101750004093EA041092DC041092DB041092DE0441
:101760001092DD041092E0041092DF041092E20463
:101770001092E1041092E4041092E3041092E60443
:101780001092E5043093D9042093D8049093E9048F
:101790008093E80428E02093E7049093D104809399
:1017A000D00468E174E080E394E01BD1E2ECF4E063
:1017B0008EE0DF011D928A95E9F708E010E01093B2
:1017C000C5040093C40480E190E06FD19093C304FA
:1017D0008093C2041093CC040093CB0480E190E08A
:1017E00064D19093CA048093C90481E08093AA04D1
:1017F0001092AB041092AD041092AC041092AF049E
:101800001092AE049FEF9093B0041092B104109226
:10181000B3041092B2048093B4041092B50492E021
:101820009093B6048093B7041092B8041092B90450
:101830001092BA041092BB041A8218861F86188A66
:10184000198A1A8A8E878B871C869D87898389E6E9
:1018500090E09E838D8329D19A878987009751F0E4
:1018600029E6FC0111922A95E9F783E290E09C8336
:101870008B8304C01E821D821C821B828DE08F839D
:101880008A81882329F061E08DE0D2DA8DE0BBDB2C
:10189000E5EDF1E0E491F0E0EE0FFF1FE255FE4FC1
:1018A000859194919C8B8B8BE5E7F1E0E491ED8B36
:1018B00085E1FE013196AAEAB4E001900D928A9585
:1018C000E1F7CE0101965FDB8FEF8093BF04809339
:1018D000C0048093C10420E030E0A90160E070E022
:1018E00087E994E065DB20E030E0A90160E070E08A
:1018F00084E894E05DDB20E030E0A90160E070E086
:1019000081E794E055DB20E030E0A90160E070E081
:101910008EE394E04DDB84EF92E090933F0480935C
:101920003E041092700410926F04E1E5F4E011920D
:10193000119284E0EF36F807D1F71092400410922C
:101940004104109242041092430480914404909107
:101950004504A0914604B0914704809348049093B5
:101960004904A0934A04B0934B0465960FB6F894CB
:10197000DEBF0FBECDBFDF91CF911F910F91FF90C2
:10198000EF90DF90CF900895CF93DF938AEA94E0B1
:10199000FADAC2ECD4E08F8198851CD188819981D4
:1019A00019D182ED94E0DED88DE995E0DF91CF91F9
:1019B00022C9991B79E004C0991F961708F0961B5D
:1019C000881F7A95C9F780950895EE0FFF1F881F2D
:1019D0008BBF0790F691E02D199481E090E0F89488
:1019E00098C10F931F93CF93DF93009731F4611544
:1019F000710519F480E090E039C08B01EC016EE0D4
:101A000070E081E090E037D0FC01892B99F380E809
:101A100083830115110571F01387028781E88383A1
:101A20008091C7059091C805892B21F4F093C805D2
:101A3000E093C7052097C9F0D187C0878381826072
:101A400083838091C9059091CA05892B71F4F09325
:101A5000CA05E093C9058091CB059091CC05892BEF
:101A600021F4F093CC05E093CB05CF01DF91CF912A
:101A70001F910F9108950F931F93CF93DF93869F2C
:101A80008001879F100D969F100D1124C8010DD065
:101A9000EC01009721F0A80160E070E033D1CE01A5
:101AA000DF91CF911F910F910895CF93DF938230F3
:101AB000910510F482E090E0E091CF05F091D0051F
:101AC00020E030E0C0E0D0E0309711F1408151815A
:101AD00048175907C0F04817590761F4828193816C
:101AE000209719F09B838A832BC09093D005809315
:101AF000CF0526C02115310519F04217530718F4F8
:101B00009A01BE01DF01EF010280F381E02DDCCFFD
:101B10002115310509F1281B390B2430310590F4CA
:101B200012968D919C9113976115710521F0FB011F
:101B30009383828304C09093D0058093CF05FD01E9
:101B4000329644C0FD01E20FF31F8193919322501E
:101B500031092D933C933AC02091CD053091CE05AB
:101B6000232B41F420910202309103023093CE05E1
:101B70002093CD05209100023091010221153105FD
:101B800041F42DB73EB74091040250910502241B49
:101B9000350BE091CD05F091CE05E217F307A0F4E7
:101BA0002E1B3F0B2817390778F0AC014E5F5F4FB3
:101BB0002417350748F04E0F5F1F5093CE05409312
:101BC000CD058193919302C0E0E0F0E0CF01DF9179
:101BD000CF9108950F931F93CF93DF93009709F44C
:101BE0008CC0FC013297138212820091CF051091B4
:101BF000D0050115110581F420813181820F931FD9
:101C00002091CD053091CE052817390779F5F0934D
:101C1000CE05E093CD0571C0D80140E050E0AE178D
:101C2000BF0750F412962D913C911397AD012115E9
:101C3000310509F1D901F3CF9D01DA013383228304
:101C400060817181860F971F8217930769F4EC01F9
:101C500028813981260F371F2E5F3F4F3183208324
:101C60008A819B8193838283452B29F4F093D0054D
:101C7000E093CF0542C01396FC93EE931297ED01CB
:101C8000499159919E01240F351FE217F30771F412
:101C900080819181840F951F029611969C938E935B
:101CA0008281938113969C938E931297E0E0F0E0EB
:101CB000D80112968D919C911397009719F0F80115
:101CC0008C01F6CF8D919C9198012E5F3F4F820F32
:101CD000931F2091CD053091CE052817390769F45F
:101CE000309729F41092D0051092CF0502C01382CC
:101CF00012821093CE050093CD05DF91CF911F91F5
:101D00000F910895DC0101C06D9341505040E0F700
:101D1000089511E0C8E0D1E000E005C0802FFE0189
:101D200054DE2196011DC930D10780E00807B1F7C4
:041D3000F894FFCF55
:101D34000000D1058000000000003B01F004CA044B
:101D440018000000000000000000E8FFE8FF0000A9
:101D54000000000014000000000000000000ECFF80
:101D6400ECFF00000000000000000000020254012B
:101D7400BA019801AC014802060000000000920577
:101D84009405FAFFFAFF0000930596051800000079
:101D94000000B205C705E8FFE8FF0000BE05D00556
:101DA4006202160220026C0200000000D5079005B2
:101DB4001704140411040E040B0412030E030B0382
:101DC400F502850399029702020000000000DB057A
:101DD400DD05FEFFFEFF0000DC05DF05000000005E
:101DE400D707210600000000D607D90517041404FC
:101DF40011040E040B04FF03B903A0038703850336
:101E040034031503140000000000FB051006ECFF6A
:101E1400ECFF000007061806DA022A023402E40284
:0A1E2400000000003B01F00455042B
:00000001FF
