:1000000006C1000016C1000014C1000012C10000AA
:1000100010C100000EC100000CC100000AC10000A8
:1000200008C1000006C1000004C1000002C10000B8
:1000300000C10000FEC00000FCC00000FAC00000CB
:10004000F8C00000F6C00000F4C00000F2C00000DC
:10005000F0C00000EEC00000ECC00000BFC1000016
:10006000E8C00000E6C00000E4C00000E2C00000FC
:10007000E0C00000DEC00000DCC00000DAC000000C
:10008000D8C00000D6C00000D4C00000D2C000001C
:10009000D0C00000CEC00000CCC00000CAC000002C
:1000A000C8C00000C6C00000C4C00000C2C000003C
:1000B000C0C00000BEC00000BCC00000BAC000004C
:1000C000B8C00000B6C00000B4C00000B2C000005C
:1000D000B0C00000AEC00000ACC00000AAC000006C
:1000E000A8C000004501480137013B013F017F01E5
:1000F0004C01500156015A015E01640168016C0116
:100100007F01720176017A0100002100240027009E
:100110002A002D0030003300010100000401070116
:100120000A0100002200250028002B002E003100CB
:10013000340002010000050108010B010505050559
:10014000070508080808020202020A0A080804044F
:10015000040401010101010101010303030303037D
:100160000303040707070C0C0C0C0C0C0C0C02020C
:10017000020206060606060606060B0B0B0B0B0B09
:100180000B0B010210202008081020401020408096
:10019000020102010804020101020408102040804B
:1001A00080402010080402018004020180402010D9
:1001B0000804020108040201010204081020408022
:1001C000010204081020408000000A0B02090C0DF7
:1001D0000E080703040100000000000000000000FA
:1001E000000000000000000000000000000000000F
:1001F00000000000121110000000000000000000CC
:1002000000000000000000000000000000001124B9
:100210001FBECFEFD1E2DEBFCDBF00E00CBF22E0BA
:10022000A0E0B2E001C01D92A930B207E1F720D1F1
:10023000BFC1E6CECF93C82FE5EDF1E04491EFE8E2
:10024000F1E02491E9E4F1E09491992309F46AC082
:10025000442309F454C050E0FA013197E231F1052A
:1002600008F04DC08827EE58FF4F8F4F99C18091FD
:1002700080008F7707C0809180008F7D03C08091C0
:100280008000877F809380003AC084B58F7702C05A
:1002900084B58F7D84BD33C08091B0008F7703C05B
:1002A0008091B0008F7D8093B00029C08091900034
:1002B0008F7707C0809190008F7D03C08091900060
:1002C000877F809390001BC08091A0008F7707C02C
:1002D0008091A0008F7D03C08091A000877F8093D4
:1002E000A0000DC0309120013F7707C03091200160
:1002F0003F7D03C030912001377F30932001E92FEB
:10030000F0E0EE0FFF1FEE5DFE4FA591B4918FB7A9
:10031000F894EC91C11103C020952E2301C02E2B1F
:100320002C938FBFCF9108953FB7F8948091050229
:1003300090910602A0910702B091080226B5A89BF1
:1003400005C02F3F19F00196A11DB11D3FBFBA2F67
:10035000A92F982F8827820F911DA11DB11DBC01C7
:10036000CD0142E0660F771F881F991F4A95D1F78C
:1003700008958F929F92AF92BF92CF92DF92EF92A9
:10038000FF92D2DF4B015C018AE0C82ED12CE12C18
:10039000F12CCADFDC01CB0188199909AA09BB0934
:1003A000883E9340A105B10558F021E0C21AD1085A
:1003B000E108F10888EE880E83E0981EA11CB11CAC
:1003C000C114D104E104F10421F7FF90EF90DF9014
:1003D000CF90BF90AF909F908F9008951F920F92F3
:1003E0000FB60F9211242F933F938F939F93AF9348
:1003F000BF938091010290910202A0910302B091FB
:1004000004023091000223E0230F2D3720F40196DF
:10041000A11DB11D05C026E8230F0296A11DB11D27
:10042000209300028093010290930202A0930302A2
:10043000B09304028091050290910602A0910702F8
:10044000B09108020196A11DB11D80930502909301
:100450000602A0930702B0930802BF91AF919F914B
:100460008F913F912F910F900FBE0F901F90189575
:10047000789484B5826084BD84B5816084BD85B57F
:10048000826085BD85B5816085BD80916E0081608B
:1004900080936E0010928100809181008260809331
:1004A0008100809181008160809381008091800033
:1004B0008160809380008091B10084608093B1005E
:1004C0008091B00081608093B00080919100826043
:1004D0008093910080919100816080939100809140
:1004E00090008160809390008091A1008260809351
:1004F000A1008091A10081608093A1008091A00063
:1005000081608093A000809121018260809321010D
:10051000809121018160809321018091200181607F
:100520008093200180917A00846080937A0080918A
:100530007A00826080937A0080917A008160809353
:100540007A0080917A00806880937A001092C100CE
:10055000EFE8F1E02491E9E4F1E08491882399F057
:1005600090E0880F991FFC01E85FFE4FA591B491C0
:10057000FC01EE5DFE4F859194918FB7F894EC915C
:10058000E22BEC938FBFC0E0D0E081E053DEF1DEE0
:1005900080E050DEEEDE2097C1F30E940000F5CF30
:1005A000EE0FFF1F881F8BBF0790F691E02D199467
:0405B000F894FFCFED
:00000001FF
